{
  "_format": "hh-sol-artifact-1",
  "contractName": "TheoNFT",
  "sourceName": "contracts/TheoNFT.sol",
  "abi": [
    {
      "inputs": [
        {
          "internalType": "string",
          "name": "name",
          "type": "string"
        },
        {
          "internalType": "string",
          "name": "symbol",
          "type": "string"
        },
        {
          "internalType": "string",
          "name": "initRevealedURI",
          "type": "string"
        },
        {
          "internalType": "string",
          "name": "_newBaseURI",
          "type": "string"
        }
      ],
      "stateMutability": "nonpayable",
      "type": "constructor"
    },
    {
      "anonymous": false,
      "inputs": [
        {
          "indexed": true,
          "internalType": "address",
          "name": "owner",
          "type": "address"
        },
        {
          "indexed": true,
          "internalType": "address",
          "name": "approved",
          "type": "address"
        },
        {
          "indexed": true,
          "internalType": "uint256",
          "name": "tokenId",
          "type": "uint256"
        }
      ],
      "name": "Approval",
      "type": "event"
    },
    {
      "anonymous": false,
      "inputs": [
        {
          "indexed": true,
          "internalType": "address",
          "name": "owner",
          "type": "address"
        },
        {
          "indexed": true,
          "internalType": "address",
          "name": "operator",
          "type": "address"
        },
        {
          "indexed": false,
          "internalType": "bool",
          "name": "approved",
          "type": "bool"
        }
      ],
      "name": "ApprovalForAll",
      "type": "event"
    },
    {
      "anonymous": false,
      "inputs": [
        {
          "indexed": true,
          "internalType": "address",
          "name": "previousOwner",
          "type": "address"
        },
        {
          "indexed": true,
          "internalType": "address",
          "name": "newOwner",
          "type": "address"
        }
      ],
      "name": "OwnershipTransferred",
      "type": "event"
    },
    {
      "anonymous": false,
      "inputs": [
        {
          "indexed": false,
          "internalType": "address",
          "name": "account",
          "type": "address"
        }
      ],
      "name": "Paused",
      "type": "event"
    },
    {
      "anonymous": false,
      "inputs": [
        {
          "indexed": true,
          "internalType": "address",
          "name": "from",
          "type": "address"
        },
        {
          "indexed": true,
          "internalType": "address",
          "name": "to",
          "type": "address"
        },
        {
          "indexed": true,
          "internalType": "uint256",
          "name": "tokenId",
          "type": "uint256"
        }
      ],
      "name": "Transfer",
      "type": "event"
    },
    {
      "anonymous": false,
      "inputs": [
        {
          "indexed": false,
          "internalType": "address",
          "name": "account",
          "type": "address"
        }
      ],
      "name": "Unpaused",
      "type": "event"
    },
    {
      "anonymous": false,
      "inputs": [
        {
          "indexed": false,
          "internalType": "bool",
          "name": "status",
          "type": "bool"
        },
        {
          "indexed": false,
          "internalType": "address",
          "name": "_address",
          "type": "address"
        }
      ],
      "name": "VStatus",
      "type": "event"
    },
    {
      "inputs": [
        {
          "internalType": "address",
          "name": "to",
          "type": "address"
        },
        {
          "internalType": "uint256",
          "name": "tokenId",
          "type": "uint256"
        }
      ],
      "name": "approve",
      "outputs": [],
      "stateMutability": "nonpayable",
      "type": "function"
    },
    {
      "inputs": [
        {
          "internalType": "address",
          "name": "owner",
          "type": "address"
        }
      ],
      "name": "balanceOf",
      "outputs": [
        {
          "internalType": "uint256",
          "name": "",
          "type": "uint256"
        }
      ],
      "stateMutability": "view",
      "type": "function"
    },
    {
      "inputs": [],
      "name": "baseExtension",
      "outputs": [
        {
          "internalType": "string",
          "name": "",
          "type": "string"
        }
      ],
      "stateMutability": "view",
      "type": "function"
    },
    {
      "inputs": [],
      "name": "baseURI",
      "outputs": [
        {
          "internalType": "string",
          "name": "",
          "type": "string"
        }
      ],
      "stateMutability": "view",
      "type": "function"
    },
    {
      "inputs": [
        {
          "internalType": "uint256",
          "name": "tokenId",
          "type": "uint256"
        }
      ],
      "name": "getApproved",
      "outputs": [
        {
          "internalType": "address",
          "name": "",
          "type": "address"
        }
      ],
      "stateMutability": "view",
      "type": "function"
    },
    {
      "inputs": [
        {
          "internalType": "address",
          "name": "",
          "type": "address"
        }
      ],
      "name": "isAllowedToMintInPresale",
      "outputs": [
        {
          "internalType": "uint256",
          "name": "",
          "type": "uint256"
        }
      ],
      "stateMutability": "view",
      "type": "function"
    },
    {
      "inputs": [
        {
          "internalType": "address",
          "name": "owner",
          "type": "address"
        },
        {
          "internalType": "address",
          "name": "operator",
          "type": "address"
        }
      ],
      "name": "isApprovedForAll",
      "outputs": [
        {
          "internalType": "bool",
          "name": "",
          "type": "bool"
        }
      ],
      "stateMutability": "view",
      "type": "function"
    },
    {
      "inputs": [],
      "name": "isRevealed",
      "outputs": [
        {
          "internalType": "bool",
          "name": "",
          "type": "bool"
        }
      ],
      "stateMutability": "view",
      "type": "function"
    },
    {
      "inputs": [
        {
          "internalType": "address",
          "name": "",
          "type": "address"
        }
      ],
      "name": "isVerified",
      "outputs": [
        {
          "internalType": "bool",
          "name": "",
          "type": "bool"
        }
      ],
      "stateMutability": "view",
      "type": "function"
    },
    {
      "inputs": [
        {
          "internalType": "address",
          "name": "",
          "type": "address"
        }
      ],
      "name": "maxMintable",
      "outputs": [
        {
          "internalType": "uint256",
          "name": "",
          "type": "uint256"
        }
      ],
      "stateMutability": "view",
      "type": "function"
    },
    {
      "inputs": [],
      "name": "maxPublicAmount",
      "outputs": [
        {
          "internalType": "uint256",
          "name": "",
          "type": "uint256"
        }
      ],
      "stateMutability": "view",
      "type": "function"
    },
    {
      "inputs": [],
      "name": "maxSupply",
      "outputs": [
        {
          "internalType": "uint256",
          "name": "",
          "type": "uint256"
        }
      ],
      "stateMutability": "view",
      "type": "function"
    },
    {
      "inputs": [
        {
          "internalType": "uint256",
          "name": "mintAmount",
          "type": "uint256"
        }
      ],
      "name": "mint",
      "outputs": [],
      "stateMutability": "payable",
      "type": "function"
    },
    {
      "inputs": [],
      "name": "name",
      "outputs": [
        {
          "internalType": "string",
          "name": "",
          "type": "string"
        }
      ],
      "stateMutability": "view",
      "type": "function"
    },
    {
      "inputs": [],
      "name": "notRevealedUri",
      "outputs": [
        {
          "internalType": "string",
          "name": "",
          "type": "string"
        }
      ],
      "stateMutability": "view",
      "type": "function"
    },
    {
      "inputs": [],
      "name": "owner",
      "outputs": [
        {
          "internalType": "address",
          "name": "",
          "type": "address"
        }
      ],
      "stateMutability": "view",
      "type": "function"
    },
    {
      "inputs": [
        {
          "internalType": "uint256",
          "name": "tokenId",
          "type": "uint256"
        }
      ],
      "name": "ownerOf",
      "outputs": [
        {
          "internalType": "address",
          "name": "",
          "type": "address"
        }
      ],
      "stateMutability": "view",
      "type": "function"
    },
    {
      "inputs": [],
      "name": "pause",
      "outputs": [
        {
          "internalType": "bool",
          "name": "",
          "type": "bool"
        }
      ],
      "stateMutability": "nonpayable",
      "type": "function"
    },
    {
      "inputs": [],
      "name": "paused",
      "outputs": [
        {
          "internalType": "bool",
          "name": "",
          "type": "bool"
        }
      ],
      "stateMutability": "view",
      "type": "function"
    },
    {
      "inputs": [
        {
          "internalType": "address",
          "name": "",
          "type": "address"
        }
      ],
      "name": "preSaleMaxMintAmount",
      "outputs": [
        {
          "internalType": "uint256",
          "name": "",
          "type": "uint256"
        }
      ],
      "stateMutability": "view",
      "type": "function"
    },
    {
      "inputs": [],
      "name": "presale",
      "outputs": [
        {
          "internalType": "bool",
          "name": "",
          "type": "bool"
        }
      ],
      "stateMutability": "view",
      "type": "function"
    },
    {
      "inputs": [
        {
          "internalType": "address",
          "name": "",
          "type": "address"
        }
      ],
      "name": "presaleMinted",
      "outputs": [
        {
          "internalType": "uint256",
          "name": "",
          "type": "uint256"
        }
      ],
      "stateMutability": "view",
      "type": "function"
    },
    {
      "inputs": [],
      "name": "price",
      "outputs": [
        {
          "internalType": "uint256",
          "name": "",
          "type": "uint256"
        }
      ],
      "stateMutability": "view",
      "type": "function"
    },
    {
      "inputs": [],
      "name": "renounceOwnership",
      "outputs": [],
      "stateMutability": "nonpayable",
      "type": "function"
    },
    {
      "inputs": [],
      "name": "reveal",
      "outputs": [
        {
          "internalType": "bool",
          "name": "",
          "type": "bool"
        }
      ],
      "stateMutability": "nonpayable",
      "type": "function"
    },
    {
      "inputs": [
        {
          "internalType": "address",
          "name": "from",
          "type": "address"
        },
        {
          "internalType": "address",
          "name": "to",
          "type": "address"
        },
        {
          "internalType": "uint256",
          "name": "tokenId",
          "type": "uint256"
        }
      ],
      "name": "safeTransferFrom",
      "outputs": [],
      "stateMutability": "nonpayable",
      "type": "function"
    },
    {
      "inputs": [
        {
          "internalType": "address",
          "name": "from",
          "type": "address"
        },
        {
          "internalType": "address",
          "name": "to",
          "type": "address"
        },
        {
          "internalType": "uint256",
          "name": "tokenId",
          "type": "uint256"
        },
        {
          "internalType": "bytes",
          "name": "_data",
          "type": "bytes"
        }
      ],
      "name": "safeTransferFrom",
      "outputs": [],
      "stateMutability": "nonpayable",
      "type": "function"
    },
    {
      "inputs": [
        {
          "internalType": "address",
          "name": "operator",
          "type": "address"
        },
        {
          "internalType": "bool",
          "name": "approved",
          "type": "bool"
        }
      ],
      "name": "setApprovalForAll",
      "outputs": [],
      "stateMutability": "nonpayable",
      "type": "function"
    },
    {
      "inputs": [
        {
          "internalType": "string",
          "name": "_newBaseURI",
          "type": "string"
        }
      ],
      "name": "setBaseURI",
      "outputs": [],
      "stateMutability": "nonpayable",
      "type": "function"
    },
    {
      "inputs": [
        {
          "internalType": "uint256",
          "name": "_newPrice",
          "type": "uint256"
        }
      ],
      "name": "setPrice",
      "outputs": [
        {
          "internalType": "bool",
          "name": "",
          "type": "bool"
        }
      ],
      "stateMutability": "nonpayable",
      "type": "function"
    },
    {
      "inputs": [
        {
          "internalType": "bytes32",
          "name": "newRoot",
          "type": "bytes32"
        }
      ],
      "name": "setRoot",
      "outputs": [
        {
          "internalType": "bool",
          "name": "",
          "type": "bool"
        }
      ],
      "stateMutability": "nonpayable",
      "type": "function"
    },
    {
      "inputs": [],
      "name": "startPresale",
      "outputs": [
        {
          "internalType": "bool",
          "name": "",
          "type": "bool"
        }
      ],
      "stateMutability": "nonpayable",
      "type": "function"
    },
    {
      "inputs": [],
      "name": "stopPresale",
      "outputs": [
        {
          "internalType": "bool",
          "name": "",
          "type": "bool"
        }
      ],
      "stateMutability": "nonpayable",
      "type": "function"
    },
    {
      "inputs": [
        {
          "internalType": "bytes4",
          "name": "interfaceId",
          "type": "bytes4"
        }
      ],
      "name": "supportsInterface",
      "outputs": [
        {
          "internalType": "bool",
          "name": "",
          "type": "bool"
        }
      ],
      "stateMutability": "view",
      "type": "function"
    },
    {
      "inputs": [],
      "name": "symbol",
      "outputs": [
        {
          "internalType": "string",
          "name": "",
          "type": "string"
        }
      ],
      "stateMutability": "view",
      "type": "function"
    },
    {
      "inputs": [
        {
          "internalType": "uint256",
          "name": "tokenId",
          "type": "uint256"
        }
      ],
      "name": "tokenURI",
      "outputs": [
        {
          "internalType": "string",
          "name": "",
          "type": "string"
        }
      ],
      "stateMutability": "view",
      "type": "function"
    },
    {
      "inputs": [],
      "name": "totalMinted",
      "outputs": [
        {
          "internalType": "uint256",
          "name": "",
          "type": "uint256"
        }
      ],
      "stateMutability": "view",
      "type": "function"
    },
    {
      "inputs": [
        {
          "internalType": "address",
          "name": "from",
          "type": "address"
        },
        {
          "internalType": "address",
          "name": "to",
          "type": "address"
        },
        {
          "internalType": "uint256",
          "name": "tokenId",
          "type": "uint256"
        }
      ],
      "name": "transferFrom",
      "outputs": [],
      "stateMutability": "nonpayable",
      "type": "function"
    },
    {
      "inputs": [
        {
          "internalType": "address",
          "name": "newOwner",
          "type": "address"
        }
      ],
      "name": "transferOwnership",
      "outputs": [],
      "stateMutability": "nonpayable",
      "type": "function"
    },
    {
      "inputs": [],
      "name": "unPaused",
      "outputs": [
        {
          "internalType": "bool",
          "name": "",
          "type": "bool"
        }
      ],
      "stateMutability": "nonpayable",
      "type": "function"
    },
    {
      "inputs": [
        {
          "internalType": "bytes32[]",
          "name": "proof",
          "type": "bytes32[]"
        },
        {
          "internalType": "bytes32",
          "name": "leaf",
          "type": "bytes32"
        },
        {
          "internalType": "uint256",
          "name": "maxMintAmount",
          "type": "uint256"
        }
      ],
      "name": "verification",
      "outputs": [
        {
          "internalType": "bool",
          "name": "",
          "type": "bool"
        }
      ],
      "stateMutability": "nonpayable",
      "type": "function"
    },
    {
      "inputs": [],
      "name": "viewRoot",
      "outputs": [
        {
          "internalType": "bytes32",
          "name": "",
          "type": "bytes32"
        }
      ],
      "stateMutability": "view",
      "type": "function"
    },
    {
      "inputs": [
        {
          "internalType": "address",
          "name": "_address",
          "type": "address"
        }
      ],
      "name": "whiteListAddress",
      "outputs": [
        {
          "internalType": "bool",
          "name": "",
          "type": "bool"
        }
      ],
      "stateMutability": "nonpayable",
      "type": "function"
    },
    {
      "inputs": [],
      "name": "withdraw",
      "outputs": [
        {
          "internalType": "bool",
          "name": "",
          "type": "bool"
        }
      ],
      "stateMutability": "nonpayable",
      "type": "function"
    }
  ],
  "bytecode": "0x60806040526040518060400160405280600581526020017f2e6a736f6e000000000000000000000000000000000000000000000000000000815250600a908051906020019062000051929190620003b5565b507f3af020aab4e27a80329d7f7a7616a8c69b2317e8222e6211c2e495322c4a2a8960001b600d556103e8600e556005600f5566038d7ea4c680006010553480156200009c57600080fd5b506040516200586d3803806200586d8339818101604052810190620000c29190620004d7565b83838160009080519060200190620000dc929190620003b5565b508060019080519060200190620000f5929190620003b5565b505050620001186200010c6200016760201b60201c565b6200016f60201b60201c565b6000600760146101000a81548160ff02191690831515021790555060016008819055506200014c826200023560201b60201c565b6200015d81620002e060201b60201c565b505050506200079a565b600033905090565b6000600760009054906101000a900473ffffffffffffffffffffffffffffffffffffffff16905081600760006101000a81548173ffffffffffffffffffffffffffffffffffffffff021916908373ffffffffffffffffffffffffffffffffffffffff1602179055508173ffffffffffffffffffffffffffffffffffffffff168173ffffffffffffffffffffffffffffffffffffffff167f8be0079c531659141344cd1fd0a4f28419497f9722a3daafe3b4186f6b6457e060405160405180910390a35050565b620002456200016760201b60201c565b73ffffffffffffffffffffffffffffffffffffffff166200026b6200038b60201b60201c565b73ffffffffffffffffffffffffffffffffffffffff1614620002c4576040517f08c379a0000000000000000000000000000000000000000000000000000000008152600401620002bb90620005ce565b60405180910390fd5b80600c9080519060200190620002dc929190620003b5565b5050565b620002f06200016760201b60201c565b73ffffffffffffffffffffffffffffffffffffffff16620003166200038b60201b60201c565b73ffffffffffffffffffffffffffffffffffffffff16146200036f576040517f08c379a00000000000000000000000000000000000000000000000000000000081526004016200036690620005ce565b60405180910390fd5b80600b908051906020019062000387929190620003b5565b5050565b6000600760009054906101000a900473ffffffffffffffffffffffffffffffffffffffff16905090565b828054620003c39062000696565b90600052602060002090601f016020900481019282620003e7576000855562000433565b82601f106200040257805160ff191683800117855562000433565b8280016001018555821562000433579182015b828111156200043257825182559160200191906001019062000415565b5b50905062000442919062000446565b5090565b5b808211156200046157600081600090555060010162000447565b5090565b60006200047c620004768462000619565b620005f0565b9050828152602081018484840111156200049557600080fd5b620004a284828562000660565b509392505050565b600082601f830112620004bc57600080fd5b8151620004ce84826020860162000465565b91505092915050565b60008060008060808587031215620004ee57600080fd5b600085015167ffffffffffffffff8111156200050957600080fd5b6200051787828801620004aa565b945050602085015167ffffffffffffffff8111156200053557600080fd5b6200054387828801620004aa565b935050604085015167ffffffffffffffff8111156200056157600080fd5b6200056f87828801620004aa565b925050606085015167ffffffffffffffff8111156200058d57600080fd5b6200059b87828801620004aa565b91505092959194509250565b6000620005b66020836200064f565b9150620005c38262000771565b602082019050919050565b60006020820190508181036000830152620005e981620005a7565b9050919050565b6000620005fc6200060f565b90506200060a8282620006cc565b919050565b6000604051905090565b600067ffffffffffffffff82111562000637576200063662000731565b5b620006428262000760565b9050602081019050919050565b600082825260208201905092915050565b60005b838110156200068057808201518184015260208101905062000663565b8381111562000690576000848401525b50505050565b60006002820490506001821680620006af57607f821691505b60208210811415620006c657620006c562000702565b5b50919050565b620006d78262000760565b810181811067ffffffffffffffff82111715620006f957620006f862000731565b5b80604052505050565b7f4e487b7100000000000000000000000000000000000000000000000000000000600052602260045260246000fd5b7f4e487b7100000000000000000000000000000000000000000000000000000000600052604160045260246000fd5b6000601f19601f8301169050919050565b7f4f776e61626c653a2063616c6c6572206973206e6f7420746865206f776e6572600082015250565b6150c380620007aa6000396000f3fe6080604052600436106102675760003560e01c80638456cb5911610144578063b9209e33116100b6578063cf52a7b21161007a578063cf52a7b214610977578063d5abeb01146109b4578063dab5f340146109df578063e985e9c514610a1c578063f2fde38b14610a59578063fdea8e0b14610a8257610267565b8063b9209e3314610858578063bc660cac14610895578063c6682862146108d2578063c6e5d1a3146108fd578063c87b56dd1461093a57610267565b8063a0712d6811610108578063a0712d6814610769578063a22cb46514610785578063a2309ff8146107ae578063a475b5dd146107d9578063b2bf781314610804578063b88d4fde1461082f57610267565b80638456cb59146106805780638da5cb5b146106ab57806391b7f5ed146106d657806395d89b4114610713578063a035b1fe1461073e57610267565b806342842e0e116101dd5780635ed88ecf116101a15780635ed88ecf1461055c5780636352211e146105995780636c0360eb146105d657806370a0823114610601578063715018a61461063e5780637dfdd6871461065557610267565b806342842e0e146104775780634d0ab100146104a057806354214f69146104dd57806355f804b3146105085780635c975abb1461053157610267565b8063081c8c441161022f578063081c8c4414610367578063095ea7b3146103925780630b24bb23146103bb5780631ad2ad1a146103f857806323b872dd146104235780633ccfd60b1461044c57610267565b806301ffc9a71461026c57806304c98b2b146102a9578063061a46a9146102d457806306fdde03146102ff578063081812fc1461032a575b600080fd5b34801561027857600080fd5b50610293600480360381019061028e9190613ac3565b610aad565b6040516102a09190614146565b60405180910390f35b3480156102b557600080fd5b506102be610b8f565b6040516102cb9190614146565b60405180910390f35b3480156102e057600080fd5b506102e9610c3d565b6040516102f69190614146565b60405180910390f35b34801561030b57600080fd5b50610314610cca565b60405161032191906141a5565b60405180910390f35b34801561033657600080fd5b50610351600480360381019061034c9190613b56565b610d5c565b60405161035e91906140df565b60405180910390f35b34801561037357600080fd5b5061037c610de1565b60405161038991906141a5565b60405180910390f35b34801561039e57600080fd5b506103b960048036038101906103b491906139f7565b610e6f565b005b3480156103c757600080fd5b506103e260048036038101906103dd919061388c565b610f87565b6040516103ef9190614507565b60405180910390f35b34801561040457600080fd5b5061040d610f9f565b60405161041a9190614146565b60405180910390f35b34801561042f57600080fd5b5061044a600480360381019061044591906138f1565b61104d565b005b34801561045857600080fd5b506104616110ad565b60405161046e9190614146565b60405180910390f35b34801561048357600080fd5b5061049e600480360381019061049991906138f1565b61117f565b005b3480156104ac57600080fd5b506104c760048036038101906104c2919061388c565b61119f565b6040516104d49190614507565b60405180910390f35b3480156104e957600080fd5b506104f26111b7565b6040516104ff9190614146565b60405180910390f35b34801561051457600080fd5b5061052f600480360381019061052a9190613b15565b6111ca565b005b34801561053d57600080fd5b50610546611260565b6040516105539190614146565b60405180910390f35b34801561056857600080fd5b50610583600480360381019061057e919061388c565b611277565b6040516105909190614507565b60405180910390f35b3480156105a557600080fd5b506105c060048036038101906105bb9190613b56565b61128f565b6040516105cd91906140df565b60405180910390f35b3480156105e257600080fd5b506105eb611341565b6040516105f891906141a5565b60405180910390f35b34801561060d57600080fd5b506106286004803603810190610623919061388c565b6113cf565b6040516106359190614507565b60405180910390f35b34801561064a57600080fd5b50610653611487565b005b34801561066157600080fd5b5061066a61150f565b604051610677919061418a565b60405180910390f35b34801561068c57600080fd5b50610695611595565b6040516106a29190614146565b60405180910390f35b3480156106b757600080fd5b506106c0611622565b6040516106cd91906140df565b60405180910390f35b3480156106e257600080fd5b506106fd60048036038101906106f89190613b56565b61164c565b60405161070a9190614146565b60405180910390f35b34801561071f57600080fd5b506107286116da565b60405161073591906141a5565b60405180910390f35b34801561074a57600080fd5b5061075361176c565b6040516107609190614507565b60405180910390f35b610783600480360381019061077e9190613b56565b611772565b005b34801561079157600080fd5b506107ac60048036038101906107a791906139bb565b611d38565b005b3480156107ba57600080fd5b506107c3611d4e565b6040516107d09190614507565b60405180910390f35b3480156107e557600080fd5b506107ee611d5f565b6040516107fb9190614146565b60405180910390f35b34801561081057600080fd5b50610819611dff565b6040516108269190614507565b60405180910390f35b34801561083b57600080fd5b5061085660048036038101906108519190613940565b611e05565b005b34801561086457600080fd5b5061087f600480360381019061087a919061388c565b611e67565b60405161088c9190614146565b60405180910390f35b3480156108a157600080fd5b506108bc60048036038101906108b7919061388c565b611e87565b6040516108c99190614507565b60405180910390f35b3480156108de57600080fd5b506108e7611e9f565b6040516108f491906141a5565b60405180910390f35b34801561090957600080fd5b50610924600480360381019061091f9190613a33565b611f2d565b6040516109319190614146565b60405180910390f35b34801561094657600080fd5b50610961600480360381019061095c9190613b56565b6120ea565b60405161096e91906141a5565b60405180910390f35b34801561098357600080fd5b5061099e6004803603810190610999919061388c565b612243565b6040516109ab9190614146565b60405180910390f35b3480156109c057600080fd5b506109c9612322565b6040516109d69190614507565b60405180910390f35b3480156109eb57600080fd5b50610a066004803603810190610a019190613a9a565b612328565b604051610a139190614146565b60405180910390f35b348015610a2857600080fd5b50610a436004803603810190610a3e91906138b5565b6123b6565b604051610a509190614146565b60405180910390f35b348015610a6557600080fd5b50610a806004803603810190610a7b919061388c565b61244a565b005b348015610a8e57600080fd5b50610a97612542565b604051610aa49190614146565b60405180910390f35b60007f80ac58cd000000000000000000000000000000000000000000000000000000007bffffffffffffffffffffffffffffffffffffffffffffffffffffffff1916827bffffffffffffffffffffffffffffffffffffffffffffffffffffffff19161480610b7857507f5b5e139f000000000000000000000000000000000000000000000000000000007bffffffffffffffffffffffffffffffffffffffffffffffffffffffff1916827bffffffffffffffffffffffffffffffffffffffffffffffffffffffff1916145b80610b885750610b8782612555565b5b9050919050565b6000610b996125bf565b73ffffffffffffffffffffffffffffffffffffffff16610bb7611622565b73ffffffffffffffffffffffffffffffffffffffff1614610c0d576040517f08c379a0000000000000000000000000000000000000000000000000000000008152600401610c04906143c7565b60405180910390fd5b6001601160006101000a81548160ff021916908315150217905550601160009054906101000a900460ff16905090565b6000610c476125bf565b73ffffffffffffffffffffffffffffffffffffffff16610c65611622565b73ffffffffffffffffffffffffffffffffffffffff1614610cbb576040517f08c379a0000000000000000000000000000000000000000000000000000000008152600401610cb2906143c7565b60405180910390fd5b610cc36125c7565b6001905090565b606060008054610cd990614802565b80601f0160208091040260200160405190810160405280929190818152602001828054610d0590614802565b8015610d525780601f10610d2757610100808354040283529160200191610d52565b820191906000526020600020905b815481529060010190602001808311610d3557829003601f168201915b5050505050905090565b6000610d6782612669565b610da6576040517f08c379a0000000000000000000000000000000000000000000000000000000008152600401610d9d906143a7565b60405180910390fd5b6004600083815260200190815260200160002060009054906101000a900473ffffffffffffffffffffffffffffffffffffffff169050919050565b600c8054610dee90614802565b80601f0160208091040260200160405190810160405280929190818152602001828054610e1a90614802565b8015610e675780601f10610e3c57610100808354040283529160200191610e67565b820191906000526020600020905b815481529060010190602001808311610e4a57829003601f168201915b505050505081565b6000610e7a8261128f565b90508073ffffffffffffffffffffffffffffffffffffffff168373ffffffffffffffffffffffffffffffffffffffff161415610eeb576040517f08c379a0000000000000000000000000000000000000000000000000000000008152600401610ee290614447565b60405180910390fd5b8073ffffffffffffffffffffffffffffffffffffffff16610f0a6125bf565b73ffffffffffffffffffffffffffffffffffffffff161480610f395750610f3881610f336125bf565b6123b6565b5b610f78576040517f08c379a0000000000000000000000000000000000000000000000000000000008152600401610f6f90614307565b60405180910390fd5b610f8283836126d5565b505050565b60136020528060005260406000206000915090505481565b6000610fa96125bf565b73ffffffffffffffffffffffffffffffffffffffff16610fc7611622565b73ffffffffffffffffffffffffffffffffffffffff161461101d576040517f08c379a0000000000000000000000000000000000000000000000000000000008152600401611014906143c7565b60405180910390fd5b6000601160006101000a81548160ff021916908315150217905550601160009054906101000a900460ff16905090565b61105e6110586125bf565b8261278e565b61109d576040517f08c379a0000000000000000000000000000000000000000000000000000000008152600401611094906144a7565b60405180910390fd5b6110a883838361286c565b505050565b60006110b76125bf565b73ffffffffffffffffffffffffffffffffffffffff166110d5611622565b73ffffffffffffffffffffffffffffffffffffffff161461112b576040517f08c379a0000000000000000000000000000000000000000000000000000000008152600401611122906143c7565b60405180910390fd5b60004790503373ffffffffffffffffffffffffffffffffffffffff166108fc829081150290604051600060405180830381858888f19350505050158015611176573d6000803e3d6000fd5b50600191505090565b61119a83838360405180602001604052806000815250611e05565b505050565b60156020528060005260406000206000915090505481565b601160019054906101000a900460ff1681565b6111d26125bf565b73ffffffffffffffffffffffffffffffffffffffff166111f0611622565b73ffffffffffffffffffffffffffffffffffffffff1614611246576040517f08c379a000000000000000000000000000000000000000000000000000000000815260040161123d906143c7565b60405180910390fd5b80600b908051906020019061125c929190613605565b5050565b6000600760149054906101000a900460ff16905090565b60146020528060005260406000206000915090505481565b6000806002600084815260200190815260200160002060009054906101000a900473ffffffffffffffffffffffffffffffffffffffff169050600073ffffffffffffffffffffffffffffffffffffffff168173ffffffffffffffffffffffffffffffffffffffff161415611338576040517f08c379a000000000000000000000000000000000000000000000000000000000815260040161132f90614347565b60405180910390fd5b80915050919050565b600b805461134e90614802565b80601f016020809104026020016040519081016040528092919081815260200182805461137a90614802565b80156113c75780601f1061139c576101008083540402835291602001916113c7565b820191906000526020600020905b8154815290600101906020018083116113aa57829003601f168201915b505050505081565b60008073ffffffffffffffffffffffffffffffffffffffff168273ffffffffffffffffffffffffffffffffffffffff161415611440576040517f08c379a000000000000000000000000000000000000000000000000000000000815260040161143790614327565b60405180910390fd5b600360008373ffffffffffffffffffffffffffffffffffffffff1673ffffffffffffffffffffffffffffffffffffffff168152602001908152602001600020549050919050565b61148f6125bf565b73ffffffffffffffffffffffffffffffffffffffff166114ad611622565b73ffffffffffffffffffffffffffffffffffffffff1614611503576040517f08c379a00000000000000000000000000000000000000000000000000000000081526004016114fa906143c7565b60405180910390fd5b61150d6000612ac8565b565b60006115196125bf565b73ffffffffffffffffffffffffffffffffffffffff16611537611622565b73ffffffffffffffffffffffffffffffffffffffff161461158d576040517f08c379a0000000000000000000000000000000000000000000000000000000008152600401611584906143c7565b60405180910390fd5b600d54905090565b600061159f6125bf565b73ffffffffffffffffffffffffffffffffffffffff166115bd611622565b73ffffffffffffffffffffffffffffffffffffffff1614611613576040517f08c379a000000000000000000000000000000000000000000000000000000000815260040161160a906143c7565b60405180910390fd5b61161b612b8e565b6001905090565b6000600760009054906101000a900473ffffffffffffffffffffffffffffffffffffffff16905090565b60006116566125bf565b73ffffffffffffffffffffffffffffffffffffffff16611674611622565b73ffffffffffffffffffffffffffffffffffffffff16146116ca576040517f08c379a00000000000000000000000000000000000000000000000000000000081526004016116c1906143c7565b60405180910390fd5b8160108190555060019050919050565b6060600180546116e990614802565b80601f016020809104026020016040519081016040528092919081815260200182805461171590614802565b80156117625780601f1061173757610100808354040283529160200191611762565b820191906000526020600020905b81548152906001019060200180831161174557829003601f168201915b5050505050905090565b60105481565b61177a611260565b156117ba576040517f08c379a00000000000000000000000000000000000000000000000000000000081526004016117b1906142e7565b60405180910390fd5b60026008541415611800576040517f08c379a00000000000000000000000000000000000000000000000000000000081526004016117f7906144e7565b60405180910390fd5b6002600881905550600e546118156009612c31565b1115611856576040517f08c379a000000000000000000000000000000000000000000000000000000000815260040161184d90614267565b60405180910390fd5b60011515601160009054906101000a900460ff1615151415611b1d5760011515601260003373ffffffffffffffffffffffffffffffffffffffff1673ffffffffffffffffffffffffffffffffffffffff16815260200190815260200160002060009054906101000a900460ff16151514611905576040517f08c379a00000000000000000000000000000000000000000000000000000000081526004016118fc906144c7565b60405180910390fd5b601560003373ffffffffffffffffffffffffffffffffffffffff1673ffffffffffffffffffffffffffffffffffffffff16815260200190815260200160002054811115611987576040517f08c379a000000000000000000000000000000000000000000000000000000000815260040161197e90614367565b60405180910390fd5b80601660003373ffffffffffffffffffffffffffffffffffffffff1673ffffffffffffffffffffffffffffffffffffffff168152602001908152602001600020546119d2919061462d565b601660003373ffffffffffffffffffffffffffffffffffffffff1673ffffffffffffffffffffffffffffffffffffffff16815260200190815260200160002081905550601560003373ffffffffffffffffffffffffffffffffffffffff1673ffffffffffffffffffffffffffffffffffffffff16815260200190815260200160002054601660003373ffffffffffffffffffffffffffffffffffffffff1673ffffffffffffffffffffffffffffffffffffffff168152602001908152602001600020541115611ad6576040517f08c379a0000000000000000000000000000000000000000000000000000000008152600401611acd90614427565b60405180910390fd5b6000600190505b818111611b1b57611afe611aef6125bf565b611af96009612c31565b612c3f565b611b086009612c5d565b8080611b1390614865565b915050611add565b505b60001515601160009054906101000a900460ff1615151415611d2d57600081601054611b4991906146b4565b905080341015611b8e576040517f08c379a0000000000000000000000000000000000000000000000000000000008152600401611b8590614467565b60405180910390fd5b600f54821115611bd3576040517f08c379a0000000000000000000000000000000000000000000000000000000008152600401611bca906141c7565b60405180910390fd5b81601460003373ffffffffffffffffffffffffffffffffffffffff1673ffffffffffffffffffffffffffffffffffffffff16815260200190815260200160002054611c1e919061462d565b601460003373ffffffffffffffffffffffffffffffffffffffff1673ffffffffffffffffffffffffffffffffffffffff16815260200190815260200160002081905550600f54601460003373ffffffffffffffffffffffffffffffffffffffff1673ffffffffffffffffffffffffffffffffffffffff168152602001908152602001600020541115611ce5576040517f08c379a0000000000000000000000000000000000000000000000000000000008152600401611cdc90614487565b60405180910390fd5b6000600190505b828111611d2a57611d0d611cfe6125bf565b611d086009612c31565b612c3f565b611d176009612c5d565b8080611d2290614865565b915050611cec565b50505b600160088190555050565b611d4a611d436125bf565b8383612c73565b5050565b6000611d5a6009612c31565b905090565b6000611d696125bf565b73ffffffffffffffffffffffffffffffffffffffff16611d87611622565b73ffffffffffffffffffffffffffffffffffffffff1614611ddd576040517f08c379a0000000000000000000000000000000000000000000000000000000008152600401611dd4906143c7565b60405180910390fd5b6001601160016101000a81548160ff0219169083151502179055506001905090565b600f5481565b611e16611e106125bf565b8361278e565b611e55576040517f08c379a0000000000000000000000000000000000000000000000000000000008152600401611e4c906144a7565b60405180910390fd5b611e6184848484612de0565b50505050565b60126020528060005260406000206000915054906101000a900460ff1681565b60166020528060005260406000206000915090505481565b600a8054611eac90614802565b80601f0160208091040260200160405190810160405280929190818152602001828054611ed890614802565b8015611f255780601f10611efa57610100808354040283529160200191611f25565b820191906000526020600020905b815481529060010190602001808311611f0857829003601f168201915b505050505081565b6000611f37611260565b15611f77576040517f08c379a0000000000000000000000000000000000000000000000000000000008152600401611f6e906142e7565b60405180910390fd5b60026008541415611fbd576040517f08c379a0000000000000000000000000000000000000000000000000000000008152600401611fb4906144e7565b60405180910390fd5b60026008819055506000611fd485600d5486612e3c565b9050611fdf81612e53565b611ff4611fef86600d5487612e3c565b612e53565b60011515811515141561209e576001601260003373ffffffffffffffffffffffffffffffffffffffff1673ffffffffffffffffffffffffffffffffffffffff16815260200190815260200160002060006101000a81548160ff02191690831515021790555082601560003373ffffffffffffffffffffffffffffffffffffffff1673ffffffffffffffffffffffffffffffffffffffff168152602001908152602001600020819055505b7f7367756b6744e408b3eaae8198e1d9929f92453e224ced244d427bd49efc16be81336040516120cf929190614161565b60405180910390a18091505060016008819055509392505050565b60606120f582612669565b612134576040517f08c379a000000000000000000000000000000000000000000000000000000000815260040161212b90614407565b60405180910390fd5b60001515601160019054906101000a900460ff16151514156121e257600c805461215d90614802565b80601f016020809104026020016040519081016040528092919081815260200182805461218990614802565b80156121d65780601f106121ab576101008083540402835291602001916121d6565b820191906000526020600020905b8154815290600101906020018083116121b957829003601f168201915b5050505050905061223e565b60006121ec612eec565b9050600081511161220c576040518060200160405280600081525061223a565b8061221684612f7e565b600a60405160200161222a939291906140ae565b6040516020818303038152906040525b9150505b919050565b600061224d6125bf565b73ffffffffffffffffffffffffffffffffffffffff1661226b611622565b73ffffffffffffffffffffffffffffffffffffffff16146122c1576040517f08c379a00000000000000000000000000000000000000000000000000000000081526004016122b8906143c7565b60405180910390fd5b6001601260008473ffffffffffffffffffffffffffffffffffffffff1673ffffffffffffffffffffffffffffffffffffffff16815260200190815260200160002060006101000a81548160ff02191690831515021790555060019050919050565b600e5481565b60006123326125bf565b73ffffffffffffffffffffffffffffffffffffffff16612350611622565b73ffffffffffffffffffffffffffffffffffffffff16146123a6576040517f08c379a000000000000000000000000000000000000000000000000000000000815260040161239d906143c7565b60405180910390fd5b81600d8190555060019050919050565b6000600560008473ffffffffffffffffffffffffffffffffffffffff1673ffffffffffffffffffffffffffffffffffffffff16815260200190815260200160002060008373ffffffffffffffffffffffffffffffffffffffff1673ffffffffffffffffffffffffffffffffffffffff16815260200190815260200160002060009054906101000a900460ff16905092915050565b6124526125bf565b73ffffffffffffffffffffffffffffffffffffffff16612470611622565b73ffffffffffffffffffffffffffffffffffffffff16146124c6576040517f08c379a00000000000000000000000000000000000000000000000000000000081526004016124bd906143c7565b60405180910390fd5b600073ffffffffffffffffffffffffffffffffffffffff168173ffffffffffffffffffffffffffffffffffffffff161415612536576040517f08c379a000000000000000000000000000000000000000000000000000000000815260040161252d90614227565b60405180910390fd5b61253f81612ac8565b50565b601160009054906101000a900460ff1681565b60007f01ffc9a7000000000000000000000000000000000000000000000000000000007bffffffffffffffffffffffffffffffffffffffffffffffffffffffff1916827bffffffffffffffffffffffffffffffffffffffffffffffffffffffff1916149050919050565b600033905090565b6125cf611260565b61260e576040517f08c379a0000000000000000000000000000000000000000000000000000000008152600401612605906141e7565b60405180910390fd5b6000600760146101000a81548160ff0219169083151502179055507f5db9ee0a495bf2e6ff9c91a7834c1ba4fdd244a5e8aa4e537bd38aeae4b073aa6126526125bf565b60405161265f91906140df565b60405180910390a1565b60008073ffffffffffffffffffffffffffffffffffffffff166002600084815260200190815260200160002060009054906101000a900473ffffffffffffffffffffffffffffffffffffffff1673ffffffffffffffffffffffffffffffffffffffff1614159050919050565b816004600083815260200190815260200160002060006101000a81548173ffffffffffffffffffffffffffffffffffffffff021916908373ffffffffffffffffffffffffffffffffffffffff160217905550808273ffffffffffffffffffffffffffffffffffffffff166127488361128f565b73ffffffffffffffffffffffffffffffffffffffff167f8c5be1e5ebec7d5bd14f71427d1e84f3dd0314c0f7b2291e5b200ac8c7c3b92560405160405180910390a45050565b600061279982612669565b6127d8576040517f08c379a00000000000000000000000000000000000000000000000000000000081526004016127cf906142c7565b60405180910390fd5b60006127e38361128f565b90508073ffffffffffffffffffffffffffffffffffffffff168473ffffffffffffffffffffffffffffffffffffffff16148061285257508373ffffffffffffffffffffffffffffffffffffffff1661283a84610d5c565b73ffffffffffffffffffffffffffffffffffffffff16145b80612863575061286281856123b6565b5b91505092915050565b8273ffffffffffffffffffffffffffffffffffffffff1661288c8261128f565b73ffffffffffffffffffffffffffffffffffffffff16146128e2576040517f08c379a00000000000000000000000000000000000000000000000000000000081526004016128d9906143e7565b60405180910390fd5b600073ffffffffffffffffffffffffffffffffffffffff168273ffffffffffffffffffffffffffffffffffffffff161415612952576040517f08c379a000000000000000000000000000000000000000000000000000000000815260040161294990614287565b60405180910390fd5b61295d83838361312b565b6129686000826126d5565b6001600360008573ffffffffffffffffffffffffffffffffffffffff1673ffffffffffffffffffffffffffffffffffffffff16815260200190815260200160002060008282546129b8919061470e565b925050819055506001600360008473ffffffffffffffffffffffffffffffffffffffff1673ffffffffffffffffffffffffffffffffffffffff1681526020019081526020016000206000828254612a0f919061462d565b92505081905550816002600083815260200190815260200160002060006101000a81548173ffffffffffffffffffffffffffffffffffffffff021916908373ffffffffffffffffffffffffffffffffffffffff160217905550808273ffffffffffffffffffffffffffffffffffffffff168473ffffffffffffffffffffffffffffffffffffffff167fddf252ad1be2c89b69c2b068fc378daa952ba7f163c4a11628f55a4df523b3ef60405160405180910390a4505050565b6000600760009054906101000a900473ffffffffffffffffffffffffffffffffffffffff16905081600760006101000a81548173ffffffffffffffffffffffffffffffffffffffff021916908373ffffffffffffffffffffffffffffffffffffffff1602179055508173ffffffffffffffffffffffffffffffffffffffff168173ffffffffffffffffffffffffffffffffffffffff167f8be0079c531659141344cd1fd0a4f28419497f9722a3daafe3b4186f6b6457e060405160405180910390a35050565b612b96611260565b15612bd6576040517f08c379a0000000000000000000000000000000000000000000000000000000008152600401612bcd906142e7565b60405180910390fd5b6001600760146101000a81548160ff0219169083151502179055507f62e78cea01bee320cd4e420270b5ea74000d11b0c9f74754ebdbfc544b05a258612c1a6125bf565b604051612c2791906140df565b60405180910390a1565b600081600001549050919050565b612c59828260405180602001604052806000815250613130565b5050565b6001816000016000828254019250508190555050565b8173ffffffffffffffffffffffffffffffffffffffff168373ffffffffffffffffffffffffffffffffffffffff161415612ce2576040517f08c379a0000000000000000000000000000000000000000000000000000000008152600401612cd9906142a7565b60405180910390fd5b80600560008573ffffffffffffffffffffffffffffffffffffffff1673ffffffffffffffffffffffffffffffffffffffff16815260200190815260200160002060008473ffffffffffffffffffffffffffffffffffffffff1673ffffffffffffffffffffffffffffffffffffffff16815260200190815260200160002060006101000a81548160ff0219169083151502179055508173ffffffffffffffffffffffffffffffffffffffff168373ffffffffffffffffffffffffffffffffffffffff167f17307eab39ab6107e8899845ad3d59bd9653f200f220920489ca2b5937696c3183604051612dd39190614146565b60405180910390a3505050565b612deb84848461286c565b612df78484848461318b565b612e36576040517f08c379a0000000000000000000000000000000000000000000000000000000008152600401612e2d90614207565b60405180910390fd5b50505050565b600082612e498584613322565b1490509392505050565b612ee981604051602401612e679190614146565b6040516020818303038152906040527f32458eed000000000000000000000000000000000000000000000000000000007bffffffffffffffffffffffffffffffffffffffffffffffffffffffff19166020820180517bffffffffffffffffffffffffffffffffffffffffffffffffffffffff83818316178352505050506133fb565b50565b6060600b8054612efb90614802565b80601f0160208091040260200160405190810160405280929190818152602001828054612f2790614802565b8015612f745780601f10612f4957610100808354040283529160200191612f74565b820191906000526020600020905b815481529060010190602001808311612f5757829003601f168201915b5050505050905090565b60606000821415612fc6576040518060400160405280600181526020017f30000000000000000000000000000000000000000000000000000000000000008152509050613126565b600082905060005b60008214612ff8578080612fe190614865565b915050600a82612ff19190614683565b9150612fce565b60008167ffffffffffffffff81111561303a577f4e487b7100000000000000000000000000000000000000000000000000000000600052604160045260246000fd5b6040519080825280601f01601f19166020018201604052801561306c5781602001600182028036833780820191505090505b5090505b6000851461311f57600182613085919061470e565b9150600a8561309491906148b8565b60306130a0919061462d565b60f81b8183815181106130dc577f4e487b7100000000000000000000000000000000000000000000000000000000600052603260045260246000fd5b60200101907effffffffffffffffffffffffffffffffffffffffffffffffffffffffffffff1916908160001a905350600a856131189190614683565b9450613070565b8093505050505b919050565b505050565b61313a8383613424565b613147600084848461318b565b613186576040517f08c379a000000000000000000000000000000000000000000000000000000000815260040161317d90614207565b60405180910390fd5b505050565b60006131ac8473ffffffffffffffffffffffffffffffffffffffff166135f2565b15613315578373ffffffffffffffffffffffffffffffffffffffff1663150b7a026131d56125bf565b8786866040518563ffffffff1660e01b81526004016131f794939291906140fa565b602060405180830381600087803b15801561321157600080fd5b505af192505050801561324257506040513d601f19601f8201168201806040525081019061323f9190613aec565b60015b6132c5573d8060008114613272576040519150601f19603f3d011682016040523d82523d6000602084013e613277565b606091505b506000815114156132bd576040517f08c379a00000000000000000000000000000000000000000000000000000000081526004016132b490614207565b60405180910390fd5b805181602001fd5b63150b7a0260e01b7bffffffffffffffffffffffffffffffffffffffffffffffffffffffff1916817bffffffffffffffffffffffffffffffffffffffffffffffffffffffff19161491505061331a565b600190505b949350505050565b60008082905060005b84518110156133f057600085828151811061336f577f4e487b7100000000000000000000000000000000000000000000000000000000600052603260045260246000fd5b602002602001015190508083116133b0578281604051602001613393929190614082565b6040516020818303038152906040528051906020012092506133dc565b80836040516020016133c3929190614082565b6040516020818303038152906040528051906020012092505b5080806133e890614865565b91505061332b565b508091505092915050565b60008151905060006a636f6e736f6c652e6c6f679050602083016000808483855afa5050505050565b600073ffffffffffffffffffffffffffffffffffffffff168273ffffffffffffffffffffffffffffffffffffffff161415613494576040517f08c379a000000000000000000000000000000000000000000000000000000000815260040161348b90614387565b60405180910390fd5b61349d81612669565b156134dd576040517f08c379a00000000000000000000000000000000000000000000000000000000081526004016134d490614247565b60405180910390fd5b6134e96000838361312b565b6001600360008473ffffffffffffffffffffffffffffffffffffffff1673ffffffffffffffffffffffffffffffffffffffff1681526020019081526020016000206000828254613539919061462d565b92505081905550816002600083815260200190815260200160002060006101000a81548173ffffffffffffffffffffffffffffffffffffffff021916908373ffffffffffffffffffffffffffffffffffffffff160217905550808273ffffffffffffffffffffffffffffffffffffffff16600073ffffffffffffffffffffffffffffffffffffffff167fddf252ad1be2c89b69c2b068fc378daa952ba7f163c4a11628f55a4df523b3ef60405160405180910390a45050565b600080823b905060008111915050919050565b82805461361190614802565b90600052602060002090601f016020900481019282613633576000855561367a565b82601f1061364c57805160ff191683800117855561367a565b8280016001018555821561367a579182015b8281111561367957825182559160200191906001019061365e565b5b509050613687919061368b565b5090565b5b808211156136a457600081600090555060010161368c565b5090565b60006136bb6136b684614547565b614522565b905080838252602082019050828560208602820111156136da57600080fd5b60005b8581101561370a57816136f088826137e4565b8452602084019350602083019250506001810190506136dd565b5050509392505050565b600061372761372284614573565b614522565b90508281526020810184848401111561373f57600080fd5b61374a8482856147c0565b509392505050565b6000613765613760846145a4565b614522565b90508281526020810184848401111561377d57600080fd5b6137888482856147c0565b509392505050565b60008135905061379f8161501a565b92915050565b600082601f8301126137b657600080fd5b81356137c68482602086016136a8565b91505092915050565b6000813590506137de81615031565b92915050565b6000813590506137f381615048565b92915050565b6000813590506138088161505f565b92915050565b60008151905061381d8161505f565b92915050565b600082601f83011261383457600080fd5b8135613844848260208601613714565b91505092915050565b600082601f83011261385e57600080fd5b813561386e848260208601613752565b91505092915050565b60008135905061388681615076565b92915050565b60006020828403121561389e57600080fd5b60006138ac84828501613790565b91505092915050565b600080604083850312156138c857600080fd5b60006138d685828601613790565b92505060206138e785828601613790565b9150509250929050565b60008060006060848603121561390657600080fd5b600061391486828701613790565b935050602061392586828701613790565b925050604061393686828701613877565b9150509250925092565b6000806000806080858703121561395657600080fd5b600061396487828801613790565b945050602061397587828801613790565b935050604061398687828801613877565b925050606085013567ffffffffffffffff8111156139a357600080fd5b6139af87828801613823565b91505092959194509250565b600080604083850312156139ce57600080fd5b60006139dc85828601613790565b92505060206139ed858286016137cf565b9150509250929050565b60008060408385031215613a0a57600080fd5b6000613a1885828601613790565b9250506020613a2985828601613877565b9150509250929050565b600080600060608486031215613a4857600080fd5b600084013567ffffffffffffffff811115613a6257600080fd5b613a6e868287016137a5565b9350506020613a7f868287016137e4565b9250506040613a9086828701613877565b9150509250925092565b600060208284031215613aac57600080fd5b6000613aba848285016137e4565b91505092915050565b600060208284031215613ad557600080fd5b6000613ae3848285016137f9565b91505092915050565b600060208284031215613afe57600080fd5b6000613b0c8482850161380e565b91505092915050565b600060208284031215613b2757600080fd5b600082013567ffffffffffffffff811115613b4157600080fd5b613b4d8482850161384d565b91505092915050565b600060208284031215613b6857600080fd5b6000613b7684828501613877565b91505092915050565b613b8881614742565b82525050565b613b9781614754565b82525050565b613ba681614760565b82525050565b613bbd613bb882614760565b6148ae565b82525050565b6000613bce826145ea565b613bd88185614600565b9350613be88185602086016147cf565b613bf1816149a5565b840191505092915050565b6000613c07826145f5565b613c118185614611565b9350613c218185602086016147cf565b613c2a816149a5565b840191505092915050565b6000613c40826145f5565b613c4a8185614622565b9350613c5a8185602086016147cf565b80840191505092915050565b60008154613c7381614802565b613c7d8186614622565b94506001821660008114613c985760018114613ca957613cdc565b60ff19831686528186019350613cdc565b613cb2856145d5565b60005b83811015613cd457815481890152600182019150602081019050613cb5565b838801955050505b50505092915050565b6000613cf2602083614611565b9150613cfd826149b6565b602082019050919050565b6000613d15601483614611565b9150613d20826149df565b602082019050919050565b6000613d38603283614611565b9150613d4382614a08565b604082019050919050565b6000613d5b602683614611565b9150613d6682614a57565b604082019050919050565b6000613d7e601c83614611565b9150613d8982614aa6565b602082019050919050565b6000613da1601883614611565b9150613dac82614acf565b602082019050919050565b6000613dc4602483614611565b9150613dcf82614af8565b604082019050919050565b6000613de7601983614611565b9150613df282614b47565b602082019050919050565b6000613e0a602c83614611565b9150613e1582614b70565b604082019050919050565b6000613e2d601083614611565b9150613e3882614bbf565b602082019050919050565b6000613e50603883614611565b9150613e5b82614be8565b604082019050919050565b6000613e73602a83614611565b9150613e7e82614c37565b604082019050919050565b6000613e96602983614611565b9150613ea182614c86565b604082019050919050565b6000613eb9602f83614611565b9150613ec482614cd5565b604082019050919050565b6000613edc602083614611565b9150613ee782614d24565b602082019050919050565b6000613eff602c83614611565b9150613f0a82614d4d565b604082019050919050565b6000613f22602083614611565b9150613f2d82614d9c565b602082019050919050565b6000613f45602983614611565b9150613f5082614dc5565b604082019050919050565b6000613f68602f83614611565b9150613f7382614e14565b604082019050919050565b6000613f8b602283614611565b9150613f9682614e63565b604082019050919050565b6000613fae602183614611565b9150613fb982614eb2565b604082019050919050565b6000613fd1601283614611565b9150613fdc82614f01565b602082019050919050565b6000613ff4602d83614611565b9150613fff82614f2a565b604082019050919050565b6000614017603183614611565b915061402282614f79565b604082019050919050565b600061403a602083614611565b915061404582614fc8565b602082019050919050565b600061405d601f83614611565b915061406882614ff1565b602082019050919050565b61407c816147b6565b82525050565b600061408e8285613bac565b60208201915061409e8284613bac565b6020820191508190509392505050565b60006140ba8286613c35565b91506140c68285613c35565b91506140d28284613c66565b9150819050949350505050565b60006020820190506140f46000830184613b7f565b92915050565b600060808201905061410f6000830187613b7f565b61411c6020830186613b7f565b6141296040830185614073565b818103606083015261413b8184613bc3565b905095945050505050565b600060208201905061415b6000830184613b8e565b92915050565b60006040820190506141766000830185613b8e565b6141836020830184613b7f565b9392505050565b600060208201905061419f6000830184613b9d565b92915050565b600060208201905081810360008301526141bf8184613bfc565b905092915050565b600060208201905081810360008301526141e081613ce5565b9050919050565b6000602082019050818103600083015261420081613d08565b9050919050565b6000602082019050818103600083015261422081613d2b565b9050919050565b6000602082019050818103600083015261424081613d4e565b9050919050565b6000602082019050818103600083015261426081613d71565b9050919050565b6000602082019050818103600083015261428081613d94565b9050919050565b600060208201905081810360008301526142a081613db7565b9050919050565b600060208201905081810360008301526142c081613dda565b9050919050565b600060208201905081810360008301526142e081613dfd565b9050919050565b6000602082019050818103600083015261430081613e20565b9050919050565b6000602082019050818103600083015261432081613e43565b9050919050565b6000602082019050818103600083015261434081613e66565b9050919050565b6000602082019050818103600083015261436081613e89565b9050919050565b6000602082019050818103600083015261438081613eac565b9050919050565b600060208201905081810360008301526143a081613ecf565b9050919050565b600060208201905081810360008301526143c081613ef2565b9050919050565b600060208201905081810360008301526143e081613f15565b9050919050565b6000602082019050818103600083015261440081613f38565b9050919050565b6000602082019050818103600083015261442081613f5b565b9050919050565b6000602082019050818103600083015261444081613f7e565b9050919050565b6000602082019050818103600083015261446081613fa1565b9050919050565b6000602082019050818103600083015261448081613fc4565b9050919050565b600060208201905081810360008301526144a081613fe7565b9050919050565b600060208201905081810360008301526144c08161400a565b9050919050565b600060208201905081810360008301526144e08161402d565b9050919050565b6000602082019050818103600083015261450081614050565b9050919050565b600060208201905061451c6000830184614073565b92915050565b600061452c61453d565b90506145388282614834565b919050565b6000604051905090565b600067ffffffffffffffff82111561456257614561614976565b5b602082029050602081019050919050565b600067ffffffffffffffff82111561458e5761458d614976565b5b614597826149a5565b9050602081019050919050565b600067ffffffffffffffff8211156145bf576145be614976565b5b6145c8826149a5565b9050602081019050919050565b60008190508160005260206000209050919050565b600081519050919050565b600081519050919050565b600082825260208201905092915050565b600082825260208201905092915050565b600081905092915050565b6000614638826147b6565b9150614643836147b6565b9250827fffffffffffffffffffffffffffffffffffffffffffffffffffffffffffffffff03821115614678576146776148e9565b5b828201905092915050565b600061468e826147b6565b9150614699836147b6565b9250826146a9576146a8614918565b5b828204905092915050565b60006146bf826147b6565b91506146ca836147b6565b9250817fffffffffffffffffffffffffffffffffffffffffffffffffffffffffffffffff0483118215151615614703576147026148e9565b5b828202905092915050565b6000614719826147b6565b9150614724836147b6565b925082821015614737576147366148e9565b5b828203905092915050565b600061474d82614796565b9050919050565b60008115159050919050565b6000819050919050565b60007fffffffff0000000000000000000000000000000000000000000000000000000082169050919050565b600073ffffffffffffffffffffffffffffffffffffffff82169050919050565b6000819050919050565b82818337600083830152505050565b60005b838110156147ed5780820151818401526020810190506147d2565b838111156147fc576000848401525b50505050565b6000600282049050600182168061481a57607f821691505b6020821081141561482e5761482d614947565b5b50919050565b61483d826149a5565b810181811067ffffffffffffffff8211171561485c5761485b614976565b5b80604052505050565b6000614870826147b6565b91507fffffffffffffffffffffffffffffffffffffffffffffffffffffffffffffffff8214156148a3576148a26148e9565b5b600182019050919050565b6000819050919050565b60006148c3826147b6565b91506148ce836147b6565b9250826148de576148dd614918565b5b828206905092915050565b7f4e487b7100000000000000000000000000000000000000000000000000000000600052601160045260246000fd5b7f4e487b7100000000000000000000000000000000000000000000000000000000600052601260045260246000fd5b7f4e487b7100000000000000000000000000000000000000000000000000000000600052602260045260246000fd5b7f4e487b7100000000000000000000000000000000000000000000000000000000600052604160045260246000fd5b6000601f19601f8301169050919050565b7f63616e6e6f74206d696e74206d6f7265207468616e2074686520616d6f756e74600082015250565b7f5061757361626c653a206e6f7420706175736564000000000000000000000000600082015250565b7f4552433732313a207472616e7366657220746f206e6f6e20455243373231526560008201527f63656976657220696d706c656d656e7465720000000000000000000000000000602082015250565b7f4f776e61626c653a206e6577206f776e657220697320746865207a65726f206160008201527f6464726573730000000000000000000000000000000000000000000000000000602082015250565b7f4552433732313a20746f6b656e20616c7265616479206d696e74656400000000600082015250565b7f4d617820616d6f756e74206f66204e4654206d696e7465640000000000000000600082015250565b7f4552433732313a207472616e7366657220746f20746865207a65726f2061646460008201527f7265737300000000000000000000000000000000000000000000000000000000602082015250565b7f4552433732313a20617070726f766520746f2063616c6c657200000000000000600082015250565b7f4552433732313a206f70657261746f7220717565727920666f72206e6f6e657860008201527f697374656e7420746f6b656e0000000000000000000000000000000000000000602082015250565b7f5061757361626c653a2070617573656400000000000000000000000000000000600082015250565b7f4552433732313a20617070726f76652063616c6c6572206973206e6f74206f7760008201527f6e6572206e6f7220617070726f76656420666f7220616c6c0000000000000000602082015250565b7f4552433732313a2062616c616e636520717565727920666f7220746865207a6560008201527f726f206164647265737300000000000000000000000000000000000000000000602082015250565b7f4552433732313a206f776e657220717565727920666f72206e6f6e657869737460008201527f656e7420746f6b656e0000000000000000000000000000000000000000000000602082015250565b7f596f7520617265206e6f7420656c696769626c6520746f206d696e742074686960008201527f73206e756d626572206f66204e46540000000000000000000000000000000000602082015250565b7f4552433732313a206d696e7420746f20746865207a65726f2061646472657373600082015250565b7f4552433732313a20617070726f76656420717565727920666f72206e6f6e657860008201527f697374656e7420746f6b656e0000000000000000000000000000000000000000602082015250565b7f4f776e61626c653a2063616c6c6572206973206e6f7420746865206f776e6572600082015250565b7f4552433732313a207472616e73666572206f6620746f6b656e2074686174206960008201527f73206e6f74206f776e0000000000000000000000000000000000000000000000602082015250565b7f4552433732314d657461646174613a2055524920717565727920666f72206e6f60008201527f6e6578697374656e7420746f6b656e0000000000000000000000000000000000602082015250565b7f596f752063616e6e6f74206d696e74206d6f7265207468616e20656c6967696260008201527f6c65000000000000000000000000000000000000000000000000000000000000602082015250565b7f4552433732313a20617070726f76616c20746f2063757272656e74206f776e6560008201527f7200000000000000000000000000000000000000000000000000000000000000602082015250565b7f696e53756666696369656e742046756e64730000000000000000000000000000600082015250565b7f596f752063616e6e6f74206d696e74206d6f7265207468616e20746865206d6160008201527f78204e465420616c6c6f77656400000000000000000000000000000000000000602082015250565b7f4552433732313a207472616e736665722063616c6c6572206973206e6f74206f60008201527f776e6572206e6f7220617070726f766564000000000000000000000000000000602082015250565b7f596f7520617265206e6f7420656c696769626c6520666f722070726573616c65600082015250565b7f5265656e7472616e637947756172643a207265656e7472616e742063616c6c00600082015250565b61502381614742565b811461502e57600080fd5b50565b61503a81614754565b811461504557600080fd5b50565b61505181614760565b811461505c57600080fd5b50565b6150688161476a565b811461507357600080fd5b50565b61507f816147b6565b811461508a57600080fd5b5056fea264697066735822122039fb72ca85687618dc034114d9a24a5eb70735b1f4580149454138fe21db301d64736f6c63430008040033",
  "linkReferences": {},
  "deployedLinkReferences": {}
}