{
    "_format": "hh-sol-artifact-1",
    "contractName": "TheoNFT",
    "sourceName": "contracts/TheoNFT.sol",
    "abi": [
        {
            "inputs": [
                {
                    "internalType": "string",
                    "name": "name",
                    "type": "string"
                },
                {
                    "internalType": "string",
                    "name": "symbol",
                    "type": "string"
                },
                {
                    "internalType": "string",
                    "name": "initRevealedURI",
                    "type": "string"
                },
                {
                    "internalType": "string",
                    "name": "_newBaseURI",
                    "type": "string"
                }
            ],
            "stateMutability": "nonpayable",
            "type": "constructor"
        },
        {
            "anonymous": false,
            "inputs": [
                {
                    "indexed": true,
                    "internalType": "address",
                    "name": "owner",
                    "type": "address"
                },
                {
                    "indexed": true,
                    "internalType": "address",
                    "name": "approved",
                    "type": "address"
                },
                {
                    "indexed": true,
                    "internalType": "uint256",
                    "name": "tokenId",
                    "type": "uint256"
                }
            ],
            "name": "Approval",
            "type": "event"
        },
        {
            "anonymous": false,
            "inputs": [
                {
                    "indexed": true,
                    "internalType": "address",
                    "name": "owner",
                    "type": "address"
                },
                {
                    "indexed": true,
                    "internalType": "address",
                    "name": "operator",
                    "type": "address"
                },
                {
                    "indexed": false,
                    "internalType": "bool",
                    "name": "approved",
                    "type": "bool"
                }
            ],
            "name": "ApprovalForAll",
            "type": "event"
        },
        {
            "anonymous": false,
            "inputs": [
                {
                    "indexed": true,
                    "internalType": "address",
                    "name": "previousOwner",
                    "type": "address"
                },
                {
                    "indexed": true,
                    "internalType": "address",
                    "name": "newOwner",
                    "type": "address"
                }
            ],
            "name": "OwnershipTransferred",
            "type": "event"
        },
        {
            "anonymous": false,
            "inputs": [
                {
                    "indexed": false,
                    "internalType": "address",
                    "name": "account",
                    "type": "address"
                }
            ],
            "name": "Paused",
            "type": "event"
        },
        {
            "anonymous": false,
            "inputs": [
                {
                    "indexed": true,
                    "internalType": "address",
                    "name": "from",
                    "type": "address"
                },
                {
                    "indexed": true,
                    "internalType": "address",
                    "name": "to",
                    "type": "address"
                },
                {
                    "indexed": true,
                    "internalType": "uint256",
                    "name": "tokenId",
                    "type": "uint256"
                }
            ],
            "name": "Transfer",
            "type": "event"
        },
        {
            "anonymous": false,
            "inputs": [
                {
                    "indexed": false,
                    "internalType": "address",
                    "name": "account",
                    "type": "address"
                }
            ],
            "name": "Unpaused",
            "type": "event"
        },
        {
            "inputs": [
                {
                    "internalType": "address",
                    "name": "to",
                    "type": "address"
                },
                {
                    "internalType": "uint256",
                    "name": "tokenId",
                    "type": "uint256"
                }
            ],
            "name": "approve",
            "outputs": [],
            "stateMutability": "nonpayable",
            "type": "function"
        },
        {
            "inputs": [
                {
                    "internalType": "address",
                    "name": "owner",
                    "type": "address"
                }
            ],
            "name": "balanceOf",
            "outputs": [
                {
                    "internalType": "uint256",
                    "name": "",
                    "type": "uint256"
                }
            ],
            "stateMutability": "view",
            "type": "function"
        },
        {
            "inputs": [],
            "name": "baseExtension",
            "outputs": [
                {
                    "internalType": "string",
                    "name": "",
                    "type": "string"
                }
            ],
            "stateMutability": "view",
            "type": "function"
        },
        {
            "inputs": [],
            "name": "baseURI",
            "outputs": [
                {
                    "internalType": "string",
                    "name": "",
                    "type": "string"
                }
            ],
            "stateMutability": "view",
            "type": "function"
        },
        {
            "inputs": [
                {
                    "internalType": "uint256",
                    "name": "tokenId",
                    "type": "uint256"
                }
            ],
            "name": "getApproved",
            "outputs": [
                {
                    "internalType": "address",
                    "name": "",
                    "type": "address"
                }
            ],
            "stateMutability": "view",
            "type": "function"
        },
        {
            "inputs": [
                {
                    "internalType": "address",
                    "name": "owner",
                    "type": "address"
                },
                {
                    "internalType": "address",
                    "name": "operator",
                    "type": "address"
                }
            ],
            "name": "isApprovedForAll",
            "outputs": [
                {
                    "internalType": "bool",
                    "name": "",
                    "type": "bool"
                }
            ],
            "stateMutability": "view",
            "type": "function"
        },
        {
            "inputs": [
                {
                    "internalType": "address",
                    "name": "",
                    "type": "address"
                }
            ],
            "name": "isVerified",
            "outputs": [
                {
                    "internalType": "bool",
                    "name": "",
                    "type": "bool"
                }
            ],
            "stateMutability": "view",
            "type": "function"
        },
        {
            "inputs": [],
            "name": "maxPublicAmount",
            "outputs": [
                {
                    "internalType": "uint256",
                    "name": "",
                    "type": "uint256"
                }
            ],
            "stateMutability": "view",
            "type": "function"
        },
        {
            "inputs": [],
            "name": "maxSupply",
            "outputs": [
                {
                    "internalType": "uint256",
                    "name": "",
                    "type": "uint256"
                }
            ],
            "stateMutability": "view",
            "type": "function"
        },
        {
            "inputs": [
                {
                    "internalType": "uint256",
                    "name": "mintAmount",
                    "type": "uint256"
                }
            ],
            "name": "mint",
            "outputs": [],
            "stateMutability": "payable",
            "type": "function"
        },
        {
            "inputs": [],
            "name": "name",
            "outputs": [
                {
                    "internalType": "string",
                    "name": "",
                    "type": "string"
                }
            ],
            "stateMutability": "view",
            "type": "function"
        },
        {
            "inputs": [],
            "name": "notRevealedUri",
            "outputs": [
                {
                    "internalType": "string",
                    "name": "",
                    "type": "string"
                }
            ],
            "stateMutability": "view",
            "type": "function"
        },
        {
            "inputs": [],
            "name": "owner",
            "outputs": [
                {
                    "internalType": "address",
                    "name": "",
                    "type": "address"
                }
            ],
            "stateMutability": "view",
            "type": "function"
        },
        {
            "inputs": [
                {
                    "internalType": "uint256",
                    "name": "tokenId",
                    "type": "uint256"
                }
            ],
            "name": "ownerOf",
            "outputs": [
                {
                    "internalType": "address",
                    "name": "",
                    "type": "address"
                }
            ],
            "stateMutability": "view",
            "type": "function"
        },
        {
            "inputs": [],
            "name": "pause",
            "outputs": [
                {
                    "internalType": "bool",
                    "name": "",
                    "type": "bool"
                }
            ],
            "stateMutability": "nonpayable",
            "type": "function"
        },
        {
            "inputs": [],
            "name": "paused",
            "outputs": [
                {
                    "internalType": "bool",
                    "name": "",
                    "type": "bool"
                }
            ],
            "stateMutability": "view",
            "type": "function"
        },
        {
            "inputs": [],
            "name": "presale",
            "outputs": [
                {
                    "internalType": "bool",
                    "name": "",
                    "type": "bool"
                }
            ],
            "stateMutability": "view",
            "type": "function"
        },
        {
            "inputs": [],
            "name": "price",
            "outputs": [
                {
                    "internalType": "uint256",
                    "name": "",
                    "type": "uint256"
                }
            ],
            "stateMutability": "view",
            "type": "function"
        },
        {
            "inputs": [],
            "name": "renounceOwnership",
            "outputs": [],
            "stateMutability": "nonpayable",
            "type": "function"
        },
        {
            "inputs": [],
            "name": "reveal",
            "outputs": [
                {
                    "internalType": "bool",
                    "name": "",
                    "type": "bool"
                }
            ],
            "stateMutability": "nonpayable",
            "type": "function"
        },
        {
            "inputs": [
                {
                    "internalType": "address",
                    "name": "from",
                    "type": "address"
                },
                {
                    "internalType": "address",
                    "name": "to",
                    "type": "address"
                },
                {
                    "internalType": "uint256",
                    "name": "tokenId",
                    "type": "uint256"
                }
            ],
            "name": "safeTransferFrom",
            "outputs": [],
            "stateMutability": "nonpayable",
            "type": "function"
        },
        {
            "inputs": [
                {
                    "internalType": "address",
                    "name": "from",
                    "type": "address"
                },
                {
                    "internalType": "address",
                    "name": "to",
                    "type": "address"
                },
                {
                    "internalType": "uint256",
                    "name": "tokenId",
                    "type": "uint256"
                },
                {
                    "internalType": "bytes",
                    "name": "_data",
                    "type": "bytes"
                }
            ],
            "name": "safeTransferFrom",
            "outputs": [],
            "stateMutability": "nonpayable",
            "type": "function"
        },
        {
            "inputs": [
                {
                    "internalType": "address",
                    "name": "operator",
                    "type": "address"
                },
                {
                    "internalType": "bool",
                    "name": "approved",
                    "type": "bool"
                }
            ],
            "name": "setApprovalForAll",
            "outputs": [],
            "stateMutability": "nonpayable",
            "type": "function"
        },
        {
            "inputs": [
                {
                    "internalType": "string",
                    "name": "_newBaseURI",
                    "type": "string"
                }
            ],
            "name": "setBaseURI",
            "outputs": [],
            "stateMutability": "nonpayable",
            "type": "function"
        },
        {
            "inputs": [
                {
                    "internalType": "uint256",
                    "name": "_newPrice",
                    "type": "uint256"
                }
            ],
            "name": "setPrice",
            "outputs": [
                {
                    "internalType": "bool",
                    "name": "",
                    "type": "bool"
                }
            ],
            "stateMutability": "nonpayable",
            "type": "function"
        },
        {
            "inputs": [],
            "name": "startPresale",
            "outputs": [
                {
                    "internalType": "bool",
                    "name": "",
                    "type": "bool"
                }
            ],
            "stateMutability": "nonpayable",
            "type": "function"
        },
        {
            "inputs": [],
            "name": "stopPresale",
            "outputs": [
                {
                    "internalType": "bool",
                    "name": "",
                    "type": "bool"
                }
            ],
            "stateMutability": "nonpayable",
            "type": "function"
        },
        {
            "inputs": [
                {
                    "internalType": "bytes4",
                    "name": "interfaceId",
                    "type": "bytes4"
                }
            ],
            "name": "supportsInterface",
            "outputs": [
                {
                    "internalType": "bool",
                    "name": "",
                    "type": "bool"
                }
            ],
            "stateMutability": "view",
            "type": "function"
        },
        {
            "inputs": [],
            "name": "symbol",
            "outputs": [
                {
                    "internalType": "string",
                    "name": "",
                    "type": "string"
                }
            ],
            "stateMutability": "view",
            "type": "function"
        },
        {
            "inputs": [
                {
                    "internalType": "uint256",
                    "name": "tokenId",
                    "type": "uint256"
                }
            ],
            "name": "tokenURI",
            "outputs": [
                {
                    "internalType": "string",
                    "name": "",
                    "type": "string"
                }
            ],
            "stateMutability": "view",
            "type": "function"
        },
        {
            "inputs": [],
            "name": "totalMinted",
            "outputs": [
                {
                    "internalType": "uint256",
                    "name": "",
                    "type": "uint256"
                }
            ],
            "stateMutability": "view",
            "type": "function"
        },
        {
            "inputs": [
                {
                    "internalType": "address",
                    "name": "from",
                    "type": "address"
                },
                {
                    "internalType": "address",
                    "name": "to",
                    "type": "address"
                },
                {
                    "internalType": "uint256",
                    "name": "tokenId",
                    "type": "uint256"
                }
            ],
            "name": "transferFrom",
            "outputs": [],
            "stateMutability": "nonpayable",
            "type": "function"
        },
        {
            "inputs": [
                {
                    "internalType": "address",
                    "name": "newOwner",
                    "type": "address"
                }
            ],
            "name": "transferOwnership",
            "outputs": [],
            "stateMutability": "nonpayable",
            "type": "function"
        },
        {
            "inputs": [],
            "name": "unPaused",
            "outputs": [
                {
                    "internalType": "bool",
                    "name": "",
                    "type": "bool"
                }
            ],
            "stateMutability": "nonpayable",
            "type": "function"
        },
        {
            "inputs": [
                {
                    "internalType": "bytes32[]",
                    "name": "proof",
                    "type": "bytes32[]"
                },
                {
                    "internalType": "bytes32",
                    "name": "leaf",
                    "type": "bytes32"
                },
                {
                    "internalType": "uint256",
                    "name": "maxMintAmount",
                    "type": "uint256"
                }
            ],
            "name": "verification",
            "outputs": [],
            "stateMutability": "nonpayable",
            "type": "function"
        },
        {
            "inputs": [
                {
                    "internalType": "address",
                    "name": "_address",
                    "type": "address"
                }
            ],
            "name": "whiteListAddress",
            "outputs": [
                {
                    "internalType": "bool",
                    "name": "",
                    "type": "bool"
                }
            ],
            "stateMutability": "nonpayable",
            "type": "function"
        },
        {
            "inputs": [],
            "name": "withdraw",
            "outputs": [
                {
                    "internalType": "bool",
                    "name": "",
                    "type": "bool"
                }
            ],
            "stateMutability": "nonpayable",
            "type": "function"
        }
    ],
    "bytecode": "0x60806040526040518060400160405280600581526020017f2e6a736f6e000000000000000000000000000000000000000000000000000000815250600a908051906020019062000051929190620008f7565b506103e8600d556005600e5566038d7ea4c68000600f553480156200007557600080fd5b5060405162005c5838038062005c5883398181016040528101906200009b919062000a5c565b83838160009080519060200190620000b5929190620008f7565b508060019080519060200190620000ce929190620008f7565b505050620000f1620000e5620001cd60201b60201c565b620001d560201b60201c565b6000600760146101000a81548160ff021916908315150217905550600160088190555062000125826200029b60201b60201c565b62000136816200034660201b60201c565b6200014d6009620003f160201b6200219a1760201c565b505b6064620001686009620003f160201b6200219a1760201c565b1015620001c357620001a662000183620001cd60201b60201c565b6200019a6009620003f160201b6200219a1760201c565b620003ff60201b60201c565b620001bd60096200042560201b620021a81760201c565b6200014f565b505050506200107e565b600033905090565b6000600760009054906101000a900473ffffffffffffffffffffffffffffffffffffffff16905081600760006101000a81548173ffffffffffffffffffffffffffffffffffffffff021916908373ffffffffffffffffffffffffffffffffffffffff1602179055508173ffffffffffffffffffffffffffffffffffffffff168173ffffffffffffffffffffffffffffffffffffffff167f8be0079c531659141344cd1fd0a4f28419497f9722a3daafe3b4186f6b6457e060405160405180910390a35050565b620002ab620001cd60201b60201c565b73ffffffffffffffffffffffffffffffffffffffff16620002d16200043b60201b60201c565b73ffffffffffffffffffffffffffffffffffffffff16146200032a576040517f08c379a0000000000000000000000000000000000000000000000000000000008152600401620003219062000ce5565b60405180910390fd5b80600c908051906020019062000342929190620008f7565b5050565b62000356620001cd60201b60201c565b73ffffffffffffffffffffffffffffffffffffffff166200037c6200043b60201b60201c565b73ffffffffffffffffffffffffffffffffffffffff1614620003d5576040517f08c379a0000000000000000000000000000000000000000000000000000000008152600401620003cc9062000ce5565b60405180910390fd5b80600b9080519060200190620003ed929190620008f7565b5050565b600081600001549050919050565b620004218282604051806020016040528060008152506200046560201b60201c565b5050565b6001816000016000828254019250508190555050565b6000600760009054906101000a900473ffffffffffffffffffffffffffffffffffffffff16905090565b620004778383620004d360201b60201c565b6200048c6000848484620006b960201b60201c565b620004ce576040517f08c379a0000000000000000000000000000000000000000000000000000000008152600401620004c59062000c7f565b60405180910390fd5b505050565b600073ffffffffffffffffffffffffffffffffffffffff168273ffffffffffffffffffffffffffffffffffffffff16141562000546576040517f08c379a00000000000000000000000000000000000000000000000000000000081526004016200053d9062000cc3565b60405180910390fd5b62000557816200087360201b60201c565b156200059a576040517f08c379a0000000000000000000000000000000000000000000000000000000008152600401620005919062000ca1565b60405180910390fd5b620005ae60008383620008df60201b60201c565b6001600360008473ffffffffffffffffffffffffffffffffffffffff1673ffffffffffffffffffffffffffffffffffffffff168152602001908152602001600020600082825462000600919062000d93565b92505081905550816002600083815260200190815260200160002060006101000a81548173ffffffffffffffffffffffffffffffffffffffff021916908373ffffffffffffffffffffffffffffffffffffffff160217905550808273ffffffffffffffffffffffffffffffffffffffff16600073ffffffffffffffffffffffffffffffffffffffff167fddf252ad1be2c89b69c2b068fc378daa952ba7f163c4a11628f55a4df523b3ef60405160405180910390a45050565b6000620006e78473ffffffffffffffffffffffffffffffffffffffff16620008e460201b620021be1760201c565b1562000866578373ffffffffffffffffffffffffffffffffffffffff1663150b7a0262000719620001cd60201b60201c565b8786866040518563ffffffff1660e01b81526004016200073d949392919062000c2b565b602060405180830381600087803b1580156200075857600080fd5b505af19250505080156200078c57506040513d601f19601f8201168201806040525081019062000789919062000a30565b60015b62000815573d8060008114620007bf576040519150601f19603f3d011682016040523d82523d6000602084013e620007c4565b606091505b506000815114156200080d576040517f08c379a0000000000000000000000000000000000000000000000000000000008152600401620008049062000c7f565b60405180910390fd5b805181602001fd5b63150b7a0260e01b7bffffffffffffffffffffffffffffffffffffffffffffffffffffffff1916817bffffffffffffffffffffffffffffffffffffffffffffffffffffffff1916149150506200086b565b600190505b949350505050565b60008073ffffffffffffffffffffffffffffffffffffffff166002600084815260200190815260200160002060009054906101000a900473ffffffffffffffffffffffffffffffffffffffff1673ffffffffffffffffffffffffffffffffffffffff1614159050919050565b505050565b600080823b905060008111915050919050565b828054620009059062000e90565b90600052602060002090601f01602090048101928262000929576000855562000975565b82601f106200094457805160ff191683800117855562000975565b8280016001018555821562000975579182015b828111156200097457825182559160200191906001019062000957565b5b50905062000984919062000988565b5090565b5b80821115620009a357600081600090555060010162000989565b5090565b6000620009be620009b88462000d30565b62000d07565b905082815260208101848484011115620009d757600080fd5b620009e484828562000e5a565b509392505050565b600081519050620009fd8162001064565b92915050565b600082601f83011262000a1557600080fd5b815162000a27848260208601620009a7565b91505092915050565b60006020828403121562000a4357600080fd5b600062000a5384828501620009ec565b91505092915050565b6000806000806080858703121562000a7357600080fd5b600085015167ffffffffffffffff81111562000a8e57600080fd5b62000a9c8782880162000a03565b945050602085015167ffffffffffffffff81111562000aba57600080fd5b62000ac88782880162000a03565b935050604085015167ffffffffffffffff81111562000ae657600080fd5b62000af48782880162000a03565b925050606085015167ffffffffffffffff81111562000b1257600080fd5b62000b208782880162000a03565b91505092959194509250565b62000b378162000df0565b82525050565b600062000b4a8262000d66565b62000b56818562000d71565b935062000b6881856020860162000e5a565b62000b738162000f89565b840191505092915050565b600062000b8d60328362000d82565b915062000b9a8262000f9a565b604082019050919050565b600062000bb4601c8362000d82565b915062000bc18262000fe9565b602082019050919050565b600062000bdb60208362000d82565b915062000be88262001012565b602082019050919050565b600062000c0260208362000d82565b915062000c0f826200103b565b602082019050919050565b62000c258162000e50565b82525050565b600060808201905062000c42600083018762000b2c565b62000c51602083018662000b2c565b62000c60604083018562000c1a565b818103606083015262000c74818462000b3d565b905095945050505050565b6000602082019050818103600083015262000c9a8162000b7e565b9050919050565b6000602082019050818103600083015262000cbc8162000ba5565b9050919050565b6000602082019050818103600083015262000cde8162000bcc565b9050919050565b6000602082019050818103600083015262000d008162000bf3565b9050919050565b600062000d1362000d26565b905062000d21828262000ec6565b919050565b6000604051905090565b600067ffffffffffffffff82111562000d4e5762000d4d62000f5a565b5b62000d598262000f89565b9050602081019050919050565b600081519050919050565b600082825260208201905092915050565b600082825260208201905092915050565b600062000da08262000e50565b915062000dad8362000e50565b9250827fffffffffffffffffffffffffffffffffffffffffffffffffffffffffffffffff0382111562000de55762000de462000efc565b5b828201905092915050565b600062000dfd8262000e30565b9050919050565b60007fffffffff0000000000000000000000000000000000000000000000000000000082169050919050565b600073ffffffffffffffffffffffffffffffffffffffff82169050919050565b6000819050919050565b60005b8381101562000e7a57808201518184015260208101905062000e5d565b8381111562000e8a576000848401525b50505050565b6000600282049050600182168062000ea957607f821691505b6020821081141562000ec05762000ebf62000f2b565b5b50919050565b62000ed18262000f89565b810181811067ffffffffffffffff8211171562000ef35762000ef262000f5a565b5b80604052505050565b7f4e487b7100000000000000000000000000000000000000000000000000000000600052601160045260246000fd5b7f4e487b7100000000000000000000000000000000000000000000000000000000600052602260045260246000fd5b7f4e487b7100000000000000000000000000000000000000000000000000000000600052604160045260246000fd5b6000601f19601f8301169050919050565b7f4552433732313a207472616e7366657220746f206e6f6e20455243373231526560008201527f63656976657220696d706c656d656e7465720000000000000000000000000000602082015250565b7f4552433732313a20746f6b656e20616c7265616479206d696e74656400000000600082015250565b7f4552433732313a206d696e7420746f20746865207a65726f2061646472657373600082015250565b7f4f776e61626c653a2063616c6c6572206973206e6f7420746865206f776e6572600082015250565b6200106f8162000e04565b81146200107b57600080fd5b50565b614bca806200108e6000396000f3fe60806040526004361061021a5760003560e01c80638da5cb5b11610123578063b88d4fde116100ab578063cf52a7b21161006f578063cf52a7b2146107cc578063d5abeb0114610809578063e985e9c514610834578063f2fde38b14610871578063fdea8e0b1461089a5761021a565b8063b88d4fde146106d5578063b9209e33146106fe578063c66828621461073b578063c6e5d1a314610766578063c87b56dd1461078f5761021a565b8063a0712d68116100f2578063a0712d681461060f578063a22cb4651461062b578063a2309ff814610654578063a475b5dd1461067f578063b2bf7813146106aa5761021a565b80638da5cb5b1461055157806391b7f5ed1461057c57806395d89b41146105b9578063a035b1fe146105e45761021a565b80633ccfd60b116101a65780636352211e116101755780636352211e1461046a5780636c0360eb146104a757806370a08231146104d2578063715018a61461050f5780638456cb59146105265761021a565b80633ccfd60b146103c257806342842e0e146103ed57806355f804b3146104165780635c975abb1461043f5761021a565b8063081812fc116101ed578063081812fc146102dd578063081c8c441461031a578063095ea7b3146103455780631ad2ad1a1461036e57806323b872dd146103995761021a565b806301ffc9a71461021f57806304c98b2b1461025c578063061a46a91461028757806306fdde03146102b2575b600080fd5b34801561022b57600080fd5b506102466004803603810190610241919061361d565b6108c5565b6040516102539190613c91565b60405180910390f35b34801561026857600080fd5b506102716109a7565b60405161027e9190613c91565b60405180910390f35b34801561029357600080fd5b5061029c610a55565b6040516102a99190613c91565b60405180910390f35b3480156102be57600080fd5b506102c7610ae2565b6040516102d49190613cac565b60405180910390f35b3480156102e957600080fd5b5061030460048036038101906102ff91906136b0565b610b74565b6040516103119190613c2a565b60405180910390f35b34801561032657600080fd5b5061032f610bf9565b60405161033c9190613cac565b60405180910390f35b34801561035157600080fd5b5061036c6004803603810190610367919061357a565b610c87565b005b34801561037a57600080fd5b50610383610d9f565b6040516103909190613c91565b60405180910390f35b3480156103a557600080fd5b506103c060048036038101906103bb9190613474565b610e4d565b005b3480156103ce57600080fd5b506103d7610ead565b6040516103e49190613c91565b60405180910390f35b3480156103f957600080fd5b50610414600480360381019061040f9190613474565b610f7f565b005b34801561042257600080fd5b5061043d6004803603810190610438919061366f565b610f9f565b005b34801561044b57600080fd5b50610454611035565b6040516104619190613c91565b60405180910390f35b34801561047657600080fd5b50610491600480360381019061048c91906136b0565b61104c565b60405161049e9190613c2a565b60405180910390f35b3480156104b357600080fd5b506104bc6110fe565b6040516104c99190613cac565b60405180910390f35b3480156104de57600080fd5b506104f960048036038101906104f4919061340f565b61118c565b604051610506919061400e565b60405180910390f35b34801561051b57600080fd5b50610524611244565b005b34801561053257600080fd5b5061053b6112cc565b6040516105489190613c91565b60405180910390f35b34801561055d57600080fd5b50610566611359565b6040516105739190613c2a565b60405180910390f35b34801561058857600080fd5b506105a3600480360381019061059e91906136b0565b611383565b6040516105b09190613c91565b60405180910390f35b3480156105c557600080fd5b506105ce611411565b6040516105db9190613cac565b60405180910390f35b3480156105f057600080fd5b506105f96114a3565b604051610606919061400e565b60405180910390f35b610629600480360381019061062491906136b0565b6114a9565b005b34801561063757600080fd5b50610652600480360381019061064d919061353e565b611a6f565b005b34801561066057600080fd5b50610669611a85565b604051610676919061400e565b60405180910390f35b34801561068b57600080fd5b50610694611a96565b6040516106a19190613c91565b60405180910390f35b3480156106b657600080fd5b506106bf611b36565b6040516106cc919061400e565b60405180910390f35b3480156106e157600080fd5b506106fc60048036038101906106f791906134c3565b611b3c565b005b34801561070a57600080fd5b506107256004803603810190610720919061340f565b611b9e565b6040516107329190613c91565b60405180910390f35b34801561074757600080fd5b50610750611bbe565b60405161075d9190613cac565b60405180910390f35b34801561077257600080fd5b5061078d600480360381019061078891906135b6565b611c4c565b005b34801561079b57600080fd5b506107b660048036038101906107b191906136b0565b611dbd565b6040516107c39190613cac565b60405180910390f35b3480156107d857600080fd5b506107f360048036038101906107ee919061340f565b611f16565b6040516108009190613c91565b60405180910390f35b34801561081557600080fd5b5061081e611ff5565b60405161082b919061400e565b60405180910390f35b34801561084057600080fd5b5061085b60048036038101906108569190613438565b611ffb565b6040516108689190613c91565b60405180910390f35b34801561087d57600080fd5b506108986004803603810190610893919061340f565b61208f565b005b3480156108a657600080fd5b506108af612187565b6040516108bc9190613c91565b60405180910390f35b60007f80ac58cd000000000000000000000000000000000000000000000000000000007bffffffffffffffffffffffffffffffffffffffffffffffffffffffff1916827bffffffffffffffffffffffffffffffffffffffffffffffffffffffff1916148061099057507f5b5e139f000000000000000000000000000000000000000000000000000000007bffffffffffffffffffffffffffffffffffffffffffffffffffffffff1916827bffffffffffffffffffffffffffffffffffffffffffffffffffffffff1916145b806109a0575061099f826121d1565b5b9050919050565b60006109b161223b565b73ffffffffffffffffffffffffffffffffffffffff166109cf611359565b73ffffffffffffffffffffffffffffffffffffffff1614610a25576040517f08c379a0000000000000000000000000000000000000000000000000000000008152600401610a1c90613ece565b60405180910390fd5b6001601060006101000a81548160ff021916908315150217905550601060009054906101000a900460ff16905090565b6000610a5f61223b565b73ffffffffffffffffffffffffffffffffffffffff16610a7d611359565b73ffffffffffffffffffffffffffffffffffffffff1614610ad3576040517f08c379a0000000000000000000000000000000000000000000000000000000008152600401610aca90613ece565b60405180910390fd5b610adb612243565b6001905090565b606060008054610af190614309565b80601f0160208091040260200160405190810160405280929190818152602001828054610b1d90614309565b8015610b6a5780601f10610b3f57610100808354040283529160200191610b6a565b820191906000526020600020905b815481529060010190602001808311610b4d57829003601f168201915b5050505050905090565b6000610b7f826122e5565b610bbe576040517f08c379a0000000000000000000000000000000000000000000000000000000008152600401610bb590613eae565b60405180910390fd5b6004600083815260200190815260200160002060009054906101000a900473ffffffffffffffffffffffffffffffffffffffff169050919050565b600c8054610c0690614309565b80601f0160208091040260200160405190810160405280929190818152602001828054610c3290614309565b8015610c7f5780601f10610c5457610100808354040283529160200191610c7f565b820191906000526020600020905b815481529060010190602001808311610c6257829003601f168201915b505050505081565b6000610c928261104c565b90508073ffffffffffffffffffffffffffffffffffffffff168373ffffffffffffffffffffffffffffffffffffffff161415610d03576040517f08c379a0000000000000000000000000000000000000000000000000000000008152600401610cfa90613f4e565b60405180910390fd5b8073ffffffffffffffffffffffffffffffffffffffff16610d2261223b565b73ffffffffffffffffffffffffffffffffffffffff161480610d515750610d5081610d4b61223b565b611ffb565b5b610d90576040517f08c379a0000000000000000000000000000000000000000000000000000000008152600401610d8790613e0e565b60405180910390fd5b610d9a8383612351565b505050565b6000610da961223b565b73ffffffffffffffffffffffffffffffffffffffff16610dc7611359565b73ffffffffffffffffffffffffffffffffffffffff1614610e1d576040517f08c379a0000000000000000000000000000000000000000000000000000000008152600401610e1490613ece565b60405180910390fd5b6000601060006101000a81548160ff021916908315150217905550601060009054906101000a900460ff16905090565b610e5e610e5861223b565b8261240a565b610e9d576040517f08c379a0000000000000000000000000000000000000000000000000000000008152600401610e9490613fae565b60405180910390fd5b610ea88383836124e8565b505050565b6000610eb761223b565b73ffffffffffffffffffffffffffffffffffffffff16610ed5611359565b73ffffffffffffffffffffffffffffffffffffffff1614610f2b576040517f08c379a0000000000000000000000000000000000000000000000000000000008152600401610f2290613ece565b60405180910390fd5b60004790503373ffffffffffffffffffffffffffffffffffffffff166108fc829081150290604051600060405180830381858888f19350505050158015610f76573d6000803e3d6000fd5b50600191505090565b610f9a83838360405180602001604052806000815250611b3c565b505050565b610fa761223b565b73ffffffffffffffffffffffffffffffffffffffff16610fc5611359565b73ffffffffffffffffffffffffffffffffffffffff161461101b576040517f08c379a000000000000000000000000000000000000000000000000000000000815260040161101290613ece565b60405180910390fd5b80600b9080519060200190611031929190613188565b5050565b6000600760149054906101000a900460ff16905090565b6000806002600084815260200190815260200160002060009054906101000a900473ffffffffffffffffffffffffffffffffffffffff169050600073ffffffffffffffffffffffffffffffffffffffff168173ffffffffffffffffffffffffffffffffffffffff1614156110f5576040517f08c379a00000000000000000000000000000000000000000000000000000000081526004016110ec90613e4e565b60405180910390fd5b80915050919050565b600b805461110b90614309565b80601f016020809104026020016040519081016040528092919081815260200182805461113790614309565b80156111845780601f1061115957610100808354040283529160200191611184565b820191906000526020600020905b81548152906001019060200180831161116757829003601f168201915b505050505081565b60008073ffffffffffffffffffffffffffffffffffffffff168273ffffffffffffffffffffffffffffffffffffffff1614156111fd576040517f08c379a00000000000000000000000000000000000000000000000000000000081526004016111f490613e2e565b60405180910390fd5b600360008373ffffffffffffffffffffffffffffffffffffffff1673ffffffffffffffffffffffffffffffffffffffff168152602001908152602001600020549050919050565b61124c61223b565b73ffffffffffffffffffffffffffffffffffffffff1661126a611359565b73ffffffffffffffffffffffffffffffffffffffff16146112c0576040517f08c379a00000000000000000000000000000000000000000000000000000000081526004016112b790613ece565b60405180910390fd5b6112ca6000612744565b565b60006112d661223b565b73ffffffffffffffffffffffffffffffffffffffff166112f4611359565b73ffffffffffffffffffffffffffffffffffffffff161461134a576040517f08c379a000000000000000000000000000000000000000000000000000000000815260040161134190613ece565b60405180910390fd5b61135261280a565b6001905090565b6000600760009054906101000a900473ffffffffffffffffffffffffffffffffffffffff16905090565b600061138d61223b565b73ffffffffffffffffffffffffffffffffffffffff166113ab611359565b73ffffffffffffffffffffffffffffffffffffffff1614611401576040517f08c379a00000000000000000000000000000000000000000000000000000000081526004016113f890613ece565b60405180910390fd5b81600f8190555060019050919050565b60606001805461142090614309565b80601f016020809104026020016040519081016040528092919081815260200182805461144c90614309565b80156114995780601f1061146e57610100808354040283529160200191611499565b820191906000526020600020905b81548152906001019060200180831161147c57829003601f168201915b5050505050905090565b600f5481565b6114b1611035565b156114f1576040517f08c379a00000000000000000000000000000000000000000000000000000000081526004016114e890613dee565b60405180910390fd5b60026008541415611537576040517f08c379a000000000000000000000000000000000000000000000000000000000815260040161152e90613fee565b60405180910390fd5b6002600881905550600d5461154c600961219a565b111561158d576040517f08c379a000000000000000000000000000000000000000000000000000000000815260040161158490613d6e565b60405180910390fd5b60011515601060009054906101000a900460ff16151514156118545760011515601160003373ffffffffffffffffffffffffffffffffffffffff1673ffffffffffffffffffffffffffffffffffffffff16815260200190815260200160002060009054906101000a900460ff1615151461163c576040517f08c379a000000000000000000000000000000000000000000000000000000000815260040161163390613fce565b60405180910390fd5b601460003373ffffffffffffffffffffffffffffffffffffffff1673ffffffffffffffffffffffffffffffffffffffff168152602001908152602001600020548111156116be576040517f08c379a00000000000000000000000000000000000000000000000000000000081526004016116b590613e6e565b60405180910390fd5b80601560003373ffffffffffffffffffffffffffffffffffffffff1673ffffffffffffffffffffffffffffffffffffffff168152602001908152602001600020546117099190614134565b601560003373ffffffffffffffffffffffffffffffffffffffff1673ffffffffffffffffffffffffffffffffffffffff16815260200190815260200160002081905550601460003373ffffffffffffffffffffffffffffffffffffffff1673ffffffffffffffffffffffffffffffffffffffff16815260200190815260200160002054601560003373ffffffffffffffffffffffffffffffffffffffff1673ffffffffffffffffffffffffffffffffffffffff16815260200190815260200160002054111561180d576040517f08c379a000000000000000000000000000000000000000000000000000000000815260040161180490613f2e565b60405180910390fd5b6000600190505b8181116118525761183561182661223b565b611830600961219a565b6128ad565b61183f60096121a8565b808061184a9061436c565b915050611814565b505b60001515601060009054906101000a900460ff1615151415611a6457600081600f5461188091906141bb565b9050803410156118c5576040517f08c379a00000000000000000000000000000000000000000000000000000000081526004016118bc90613f6e565b60405180910390fd5b600e5482111561190a576040517f08c379a000000000000000000000000000000000000000000000000000000000815260040161190190613cce565b60405180910390fd5b81601360003373ffffffffffffffffffffffffffffffffffffffff1673ffffffffffffffffffffffffffffffffffffffff168152602001908152602001600020546119559190614134565b601360003373ffffffffffffffffffffffffffffffffffffffff1673ffffffffffffffffffffffffffffffffffffffff16815260200190815260200160002081905550600e54601360003373ffffffffffffffffffffffffffffffffffffffff1673ffffffffffffffffffffffffffffffffffffffff168152602001908152602001600020541115611a1c576040517f08c379a0000000000000000000000000000000000000000000000000000000008152600401611a1390613f8e565b60405180910390fd5b6000600190505b828111611a6157611a44611a3561223b565b611a3f600961219a565b6128ad565b611a4e60096121a8565b8080611a599061436c565b915050611a23565b50505b600160088190555050565b611a81611a7a61223b565b83836128cb565b5050565b6000611a91600961219a565b905090565b6000611aa061223b565b73ffffffffffffffffffffffffffffffffffffffff16611abe611359565b73ffffffffffffffffffffffffffffffffffffffff1614611b14576040517f08c379a0000000000000000000000000000000000000000000000000000000008152600401611b0b90613ece565b60405180910390fd5b6001601060016101000a81548160ff0219169083151502179055506001905090565b600e5481565b611b4d611b4761223b565b8361240a565b611b8c576040517f08c379a0000000000000000000000000000000000000000000000000000000008152600401611b8390613fae565b60405180910390fd5b611b9884848484612a38565b50505050565b60116020528060005260406000206000915054906101000a900460ff1681565b600a8054611bcb90614309565b80601f0160208091040260200160405190810160405280929190818152602001828054611bf790614309565b8015611c445780601f10611c1957610100808354040283529160200191611c44565b820191906000526020600020905b815481529060010190602001808311611c2757829003601f168201915b505050505081565b611c54611035565b15611c94576040517f08c379a0000000000000000000000000000000000000000000000000000000008152600401611c8b90613dee565b60405180910390fd5b60026008541415611cda576040517f08c379a0000000000000000000000000000000000000000000000000000000008152600401611cd190613fee565b60405180910390fd5b60026008819055506000611d12847f679e2bbabd15e576870cb3c4ec3c35e65633912666ce3d48afe8b5f2cb0bca2860001b85612a94565b905080601160003373ffffffffffffffffffffffffffffffffffffffff1673ffffffffffffffffffffffffffffffffffffffff16815260200190815260200160002060006101000a81548160ff02191690831515021790555081601460003373ffffffffffffffffffffffffffffffffffffffff1673ffffffffffffffffffffffffffffffffffffffff16815260200190815260200160002081905550506001600881905550505050565b6060611dc8826122e5565b611e07576040517f08c379a0000000000000000000000000000000000000000000000000000000008152600401611dfe90613f0e565b60405180910390fd5b60001515601060019054906101000a900460ff1615151415611eb557600c8054611e3090614309565b80601f0160208091040260200160405190810160405280929190818152602001828054611e5c90614309565b8015611ea95780601f10611e7e57610100808354040283529160200191611ea9565b820191906000526020600020905b815481529060010190602001808311611e8c57829003601f168201915b50505050509050611f11565b6000611ebf612aab565b90506000815111611edf5760405180602001604052806000815250611f0d565b80611ee984612b3d565b600a604051602001611efd93929190613bf9565b6040516020818303038152906040525b9150505b919050565b6000611f2061223b565b73ffffffffffffffffffffffffffffffffffffffff16611f3e611359565b73ffffffffffffffffffffffffffffffffffffffff1614611f94576040517f08c379a0000000000000000000000000000000000000000000000000000000008152600401611f8b90613ece565b60405180910390fd5b6001601160008473ffffffffffffffffffffffffffffffffffffffff1673ffffffffffffffffffffffffffffffffffffffff16815260200190815260200160002060006101000a81548160ff02191690831515021790555060019050919050565b600d5481565b6000600560008473ffffffffffffffffffffffffffffffffffffffff1673ffffffffffffffffffffffffffffffffffffffff16815260200190815260200160002060008373ffffffffffffffffffffffffffffffffffffffff1673ffffffffffffffffffffffffffffffffffffffff16815260200190815260200160002060009054906101000a900460ff16905092915050565b61209761223b565b73ffffffffffffffffffffffffffffffffffffffff166120b5611359565b73ffffffffffffffffffffffffffffffffffffffff161461210b576040517f08c379a000000000000000000000000000000000000000000000000000000000815260040161210290613ece565b60405180910390fd5b600073ffffffffffffffffffffffffffffffffffffffff168173ffffffffffffffffffffffffffffffffffffffff16141561217b576040517f08c379a000000000000000000000000000000000000000000000000000000000815260040161217290613d2e565b60405180910390fd5b61218481612744565b50565b601060009054906101000a900460ff1681565b600081600001549050919050565b6001816000016000828254019250508190555050565b600080823b905060008111915050919050565b60007f01ffc9a7000000000000000000000000000000000000000000000000000000007bffffffffffffffffffffffffffffffffffffffffffffffffffffffff1916827bffffffffffffffffffffffffffffffffffffffffffffffffffffffff1916149050919050565b600033905090565b61224b611035565b61228a576040517f08c379a000000000000000000000000000000000000000000000000000000000815260040161228190613cee565b60405180910390fd5b6000600760146101000a81548160ff0219169083151502179055507f5db9ee0a495bf2e6ff9c91a7834c1ba4fdd244a5e8aa4e537bd38aeae4b073aa6122ce61223b565b6040516122db9190613c2a565b60405180910390a1565b60008073ffffffffffffffffffffffffffffffffffffffff166002600084815260200190815260200160002060009054906101000a900473ffffffffffffffffffffffffffffffffffffffff1673ffffffffffffffffffffffffffffffffffffffff1614159050919050565b816004600083815260200190815260200160002060006101000a81548173ffffffffffffffffffffffffffffffffffffffff021916908373ffffffffffffffffffffffffffffffffffffffff160217905550808273ffffffffffffffffffffffffffffffffffffffff166123c48361104c565b73ffffffffffffffffffffffffffffffffffffffff167f8c5be1e5ebec7d5bd14f71427d1e84f3dd0314c0f7b2291e5b200ac8c7c3b92560405160405180910390a45050565b6000612415826122e5565b612454576040517f08c379a000000000000000000000000000000000000000000000000000000000815260040161244b90613dce565b60405180910390fd5b600061245f8361104c565b90508073ffffffffffffffffffffffffffffffffffffffff168473ffffffffffffffffffffffffffffffffffffffff1614806124ce57508373ffffffffffffffffffffffffffffffffffffffff166124b684610b74565b73ffffffffffffffffffffffffffffffffffffffff16145b806124df57506124de8185611ffb565b5b91505092915050565b8273ffffffffffffffffffffffffffffffffffffffff166125088261104c565b73ffffffffffffffffffffffffffffffffffffffff161461255e576040517f08c379a000000000000000000000000000000000000000000000000000000000815260040161255590613eee565b60405180910390fd5b600073ffffffffffffffffffffffffffffffffffffffff168273ffffffffffffffffffffffffffffffffffffffff1614156125ce576040517f08c379a00000000000000000000000000000000000000000000000000000000081526004016125c590613d8e565b60405180910390fd5b6125d9838383612cea565b6125e4600082612351565b6001600360008573ffffffffffffffffffffffffffffffffffffffff1673ffffffffffffffffffffffffffffffffffffffff16815260200190815260200160002060008282546126349190614215565b925050819055506001600360008473ffffffffffffffffffffffffffffffffffffffff1673ffffffffffffffffffffffffffffffffffffffff168152602001908152602001600020600082825461268b9190614134565b92505081905550816002600083815260200190815260200160002060006101000a81548173ffffffffffffffffffffffffffffffffffffffff021916908373ffffffffffffffffffffffffffffffffffffffff160217905550808273ffffffffffffffffffffffffffffffffffffffff168473ffffffffffffffffffffffffffffffffffffffff167fddf252ad1be2c89b69c2b068fc378daa952ba7f163c4a11628f55a4df523b3ef60405160405180910390a4505050565b6000600760009054906101000a900473ffffffffffffffffffffffffffffffffffffffff16905081600760006101000a81548173ffffffffffffffffffffffffffffffffffffffff021916908373ffffffffffffffffffffffffffffffffffffffff1602179055508173ffffffffffffffffffffffffffffffffffffffff168173ffffffffffffffffffffffffffffffffffffffff167f8be0079c531659141344cd1fd0a4f28419497f9722a3daafe3b4186f6b6457e060405160405180910390a35050565b612812611035565b15612852576040517f08c379a000000000000000000000000000000000000000000000000000000000815260040161284990613dee565b60405180910390fd5b6001600760146101000a81548160ff0219169083151502179055507f62e78cea01bee320cd4e420270b5ea74000d11b0c9f74754ebdbfc544b05a25861289661223b565b6040516128a39190613c2a565b60405180910390a1565b6128c7828260405180602001604052806000815250612cef565b5050565b8173ffffffffffffffffffffffffffffffffffffffff168373ffffffffffffffffffffffffffffffffffffffff16141561293a576040517f08c379a000000000000000000000000000000000000000000000000000000000815260040161293190613dae565b60405180910390fd5b80600560008573ffffffffffffffffffffffffffffffffffffffff1673ffffffffffffffffffffffffffffffffffffffff16815260200190815260200160002060008473ffffffffffffffffffffffffffffffffffffffff1673ffffffffffffffffffffffffffffffffffffffff16815260200190815260200160002060006101000a81548160ff0219169083151502179055508173ffffffffffffffffffffffffffffffffffffffff168373ffffffffffffffffffffffffffffffffffffffff167f17307eab39ab6107e8899845ad3d59bd9653f200f220920489ca2b5937696c3183604051612a2b9190613c91565b60405180910390a3505050565b612a438484846124e8565b612a4f84848484612d4a565b612a8e576040517f08c379a0000000000000000000000000000000000000000000000000000000008152600401612a8590613d0e565b60405180910390fd5b50505050565b600082612aa18584612ee1565b1490509392505050565b6060600b8054612aba90614309565b80601f0160208091040260200160405190810160405280929190818152602001828054612ae690614309565b8015612b335780601f10612b0857610100808354040283529160200191612b33565b820191906000526020600020905b815481529060010190602001808311612b1657829003601f168201915b5050505050905090565b60606000821415612b85576040518060400160405280600181526020017f30000000000000000000000000000000000000000000000000000000000000008152509050612ce5565b600082905060005b60008214612bb7578080612ba09061436c565b915050600a82612bb0919061418a565b9150612b8d565b60008167ffffffffffffffff811115612bf9577f4e487b7100000000000000000000000000000000000000000000000000000000600052604160045260246000fd5b6040519080825280601f01601f191660200182016040528015612c2b5781602001600182028036833780820191505090505b5090505b60008514612cde57600182612c449190614215565b9150600a85612c5391906143bf565b6030612c5f9190614134565b60f81b818381518110612c9b577f4e487b7100000000000000000000000000000000000000000000000000000000600052603260045260246000fd5b60200101907effffffffffffffffffffffffffffffffffffffffffffffffffffffffffffff1916908160001a905350600a85612cd7919061418a565b9450612c2f565b8093505050505b919050565b505050565b612cf98383612fba565b612d066000848484612d4a565b612d45576040517f08c379a0000000000000000000000000000000000000000000000000000000008152600401612d3c90613d0e565b60405180910390fd5b505050565b6000612d6b8473ffffffffffffffffffffffffffffffffffffffff166121be565b15612ed4578373ffffffffffffffffffffffffffffffffffffffff1663150b7a02612d9461223b565b8786866040518563ffffffff1660e01b8152600401612db69493929190613c45565b602060405180830381600087803b158015612dd057600080fd5b505af1925050508015612e0157506040513d601f19601f82011682018060405250810190612dfe9190613646565b60015b612e84573d8060008114612e31576040519150601f19603f3d011682016040523d82523d6000602084013e612e36565b606091505b50600081511415612e7c576040517f08c379a0000000000000000000000000000000000000000000000000000000008152600401612e7390613d0e565b60405180910390fd5b805181602001fd5b63150b7a0260e01b7bffffffffffffffffffffffffffffffffffffffffffffffffffffffff1916817bffffffffffffffffffffffffffffffffffffffffffffffffffffffff191614915050612ed9565b600190505b949350505050565b60008082905060005b8451811015612faf576000858281518110612f2e577f4e487b7100000000000000000000000000000000000000000000000000000000600052603260045260246000fd5b60200260200101519050808311612f6f578281604051602001612f52929190613bcd565b604051602081830303815290604052805190602001209250612f9b565b8083604051602001612f82929190613bcd565b6040516020818303038152906040528051906020012092505b508080612fa79061436c565b915050612eea565b508091505092915050565b600073ffffffffffffffffffffffffffffffffffffffff168273ffffffffffffffffffffffffffffffffffffffff16141561302a576040517f08c379a000000000000000000000000000000000000000000000000000000000815260040161302190613e8e565b60405180910390fd5b613033816122e5565b15613073576040517f08c379a000000000000000000000000000000000000000000000000000000000815260040161306a90613d4e565b60405180910390fd5b61307f60008383612cea565b6001600360008473ffffffffffffffffffffffffffffffffffffffff1673ffffffffffffffffffffffffffffffffffffffff16815260200190815260200160002060008282546130cf9190614134565b92505081905550816002600083815260200190815260200160002060006101000a81548173ffffffffffffffffffffffffffffffffffffffff021916908373ffffffffffffffffffffffffffffffffffffffff160217905550808273ffffffffffffffffffffffffffffffffffffffff16600073ffffffffffffffffffffffffffffffffffffffff167fddf252ad1be2c89b69c2b068fc378daa952ba7f163c4a11628f55a4df523b3ef60405160405180910390a45050565b82805461319490614309565b90600052602060002090601f0160209004810192826131b657600085556131fd565b82601f106131cf57805160ff19168380011785556131fd565b828001600101855582156131fd579182015b828111156131fc5782518255916020019190600101906131e1565b5b50905061320a919061320e565b5090565b5b8082111561322757600081600090555060010161320f565b5090565b600061323e6132398461404e565b614029565b9050808382526020820190508285602086028201111561325d57600080fd5b60005b8581101561328d57816132738882613367565b845260208401935060208301925050600181019050613260565b5050509392505050565b60006132aa6132a58461407a565b614029565b9050828152602081018484840111156132c257600080fd5b6132cd8482856142c7565b509392505050565b60006132e86132e3846140ab565b614029565b90508281526020810184848401111561330057600080fd5b61330b8482856142c7565b509392505050565b60008135905061332281614b21565b92915050565b600082601f83011261333957600080fd5b813561334984826020860161322b565b91505092915050565b60008135905061336181614b38565b92915050565b60008135905061337681614b4f565b92915050565b60008135905061338b81614b66565b92915050565b6000815190506133a081614b66565b92915050565b600082601f8301126133b757600080fd5b81356133c7848260208601613297565b91505092915050565b600082601f8301126133e157600080fd5b81356133f18482602086016132d5565b91505092915050565b60008135905061340981614b7d565b92915050565b60006020828403121561342157600080fd5b600061342f84828501613313565b91505092915050565b6000806040838503121561344b57600080fd5b600061345985828601613313565b925050602061346a85828601613313565b9150509250929050565b60008060006060848603121561348957600080fd5b600061349786828701613313565b93505060206134a886828701613313565b92505060406134b9868287016133fa565b9150509250925092565b600080600080608085870312156134d957600080fd5b60006134e787828801613313565b94505060206134f887828801613313565b9350506040613509878288016133fa565b925050606085013567ffffffffffffffff81111561352657600080fd5b613532878288016133a6565b91505092959194509250565b6000806040838503121561355157600080fd5b600061355f85828601613313565b925050602061357085828601613352565b9150509250929050565b6000806040838503121561358d57600080fd5b600061359b85828601613313565b92505060206135ac858286016133fa565b9150509250929050565b6000806000606084860312156135cb57600080fd5b600084013567ffffffffffffffff8111156135e557600080fd5b6135f186828701613328565b935050602061360286828701613367565b9250506040613613868287016133fa565b9150509250925092565b60006020828403121561362f57600080fd5b600061363d8482850161337c565b91505092915050565b60006020828403121561365857600080fd5b600061366684828501613391565b91505092915050565b60006020828403121561368157600080fd5b600082013567ffffffffffffffff81111561369b57600080fd5b6136a7848285016133d0565b91505092915050565b6000602082840312156136c257600080fd5b60006136d0848285016133fa565b91505092915050565b6136e281614249565b82525050565b6136f18161425b565b82525050565b61370861370382614267565b6143b5565b82525050565b6000613719826140f1565b6137238185614107565b93506137338185602086016142d6565b61373c816144ac565b840191505092915050565b6000613752826140fc565b61375c8185614118565b935061376c8185602086016142d6565b613775816144ac565b840191505092915050565b600061378b826140fc565b6137958185614129565b93506137a58185602086016142d6565b80840191505092915050565b600081546137be81614309565b6137c88186614129565b945060018216600081146137e357600181146137f457613827565b60ff19831686528186019350613827565b6137fd856140dc565b60005b8381101561381f57815481890152600182019150602081019050613800565b838801955050505b50505092915050565b600061383d602083614118565b9150613848826144bd565b602082019050919050565b6000613860601483614118565b915061386b826144e6565b602082019050919050565b6000613883603283614118565b915061388e8261450f565b604082019050919050565b60006138a6602683614118565b91506138b18261455e565b604082019050919050565b60006138c9601c83614118565b91506138d4826145ad565b602082019050919050565b60006138ec601883614118565b91506138f7826145d6565b602082019050919050565b600061390f602483614118565b915061391a826145ff565b604082019050919050565b6000613932601983614118565b915061393d8261464e565b602082019050919050565b6000613955602c83614118565b915061396082614677565b604082019050919050565b6000613978601083614118565b9150613983826146c6565b602082019050919050565b600061399b603883614118565b91506139a6826146ef565b604082019050919050565b60006139be602a83614118565b91506139c98261473e565b604082019050919050565b60006139e1602983614118565b91506139ec8261478d565b604082019050919050565b6000613a04602f83614118565b9150613a0f826147dc565b604082019050919050565b6000613a27602083614118565b9150613a328261482b565b602082019050919050565b6000613a4a602c83614118565b9150613a5582614854565b604082019050919050565b6000613a6d602083614118565b9150613a78826148a3565b602082019050919050565b6000613a90602983614118565b9150613a9b826148cc565b604082019050919050565b6000613ab3602f83614118565b9150613abe8261491b565b604082019050919050565b6000613ad6602283614118565b9150613ae18261496a565b604082019050919050565b6000613af9602183614118565b9150613b04826149b9565b604082019050919050565b6000613b1c601283614118565b9150613b2782614a08565b602082019050919050565b6000613b3f602d83614118565b9150613b4a82614a31565b604082019050919050565b6000613b62603183614118565b9150613b6d82614a80565b604082019050919050565b6000613b85602083614118565b9150613b9082614acf565b602082019050919050565b6000613ba8601f83614118565b9150613bb382614af8565b602082019050919050565b613bc7816142bd565b82525050565b6000613bd982856136f7565b602082019150613be982846136f7565b6020820191508190509392505050565b6000613c058286613780565b9150613c118285613780565b9150613c1d82846137b1565b9150819050949350505050565b6000602082019050613c3f60008301846136d9565b92915050565b6000608082019050613c5a60008301876136d9565b613c6760208301866136d9565b613c746040830185613bbe565b8181036060830152613c86818461370e565b905095945050505050565b6000602082019050613ca660008301846136e8565b92915050565b60006020820190508181036000830152613cc68184613747565b905092915050565b60006020820190508181036000830152613ce781613830565b9050919050565b60006020820190508181036000830152613d0781613853565b9050919050565b60006020820190508181036000830152613d2781613876565b9050919050565b60006020820190508181036000830152613d4781613899565b9050919050565b60006020820190508181036000830152613d67816138bc565b9050919050565b60006020820190508181036000830152613d87816138df565b9050919050565b60006020820190508181036000830152613da781613902565b9050919050565b60006020820190508181036000830152613dc781613925565b9050919050565b60006020820190508181036000830152613de781613948565b9050919050565b60006020820190508181036000830152613e078161396b565b9050919050565b60006020820190508181036000830152613e278161398e565b9050919050565b60006020820190508181036000830152613e47816139b1565b9050919050565b60006020820190508181036000830152613e67816139d4565b9050919050565b60006020820190508181036000830152613e87816139f7565b9050919050565b60006020820190508181036000830152613ea781613a1a565b9050919050565b60006020820190508181036000830152613ec781613a3d565b9050919050565b60006020820190508181036000830152613ee781613a60565b9050919050565b60006020820190508181036000830152613f0781613a83565b9050919050565b60006020820190508181036000830152613f2781613aa6565b9050919050565b60006020820190508181036000830152613f4781613ac9565b9050919050565b60006020820190508181036000830152613f6781613aec565b9050919050565b60006020820190508181036000830152613f8781613b0f565b9050919050565b60006020820190508181036000830152613fa781613b32565b9050919050565b60006020820190508181036000830152613fc781613b55565b9050919050565b60006020820190508181036000830152613fe781613b78565b9050919050565b6000602082019050818103600083015261400781613b9b565b9050919050565b60006020820190506140236000830184613bbe565b92915050565b6000614033614044565b905061403f828261433b565b919050565b6000604051905090565b600067ffffffffffffffff8211156140695761406861447d565b5b602082029050602081019050919050565b600067ffffffffffffffff8211156140955761409461447d565b5b61409e826144ac565b9050602081019050919050565b600067ffffffffffffffff8211156140c6576140c561447d565b5b6140cf826144ac565b9050602081019050919050565b60008190508160005260206000209050919050565b600081519050919050565b600081519050919050565b600082825260208201905092915050565b600082825260208201905092915050565b600081905092915050565b600061413f826142bd565b915061414a836142bd565b9250827fffffffffffffffffffffffffffffffffffffffffffffffffffffffffffffffff0382111561417f5761417e6143f0565b5b828201905092915050565b6000614195826142bd565b91506141a0836142bd565b9250826141b0576141af61441f565b5b828204905092915050565b60006141c6826142bd565b91506141d1836142bd565b9250817fffffffffffffffffffffffffffffffffffffffffffffffffffffffffffffffff048311821515161561420a576142096143f0565b5b828202905092915050565b6000614220826142bd565b915061422b836142bd565b92508282101561423e5761423d6143f0565b5b828203905092915050565b60006142548261429d565b9050919050565b60008115159050919050565b6000819050919050565b60007fffffffff0000000000000000000000000000000000000000000000000000000082169050919050565b600073ffffffffffffffffffffffffffffffffffffffff82169050919050565b6000819050919050565b82818337600083830152505050565b60005b838110156142f45780820151818401526020810190506142d9565b83811115614303576000848401525b50505050565b6000600282049050600182168061432157607f821691505b602082108114156143355761433461444e565b5b50919050565b614344826144ac565b810181811067ffffffffffffffff821117156143635761436261447d565b5b80604052505050565b6000614377826142bd565b91507fffffffffffffffffffffffffffffffffffffffffffffffffffffffffffffffff8214156143aa576143a96143f0565b5b600182019050919050565b6000819050919050565b60006143ca826142bd565b91506143d5836142bd565b9250826143e5576143e461441f565b5b828206905092915050565b7f4e487b7100000000000000000000000000000000000000000000000000000000600052601160045260246000fd5b7f4e487b7100000000000000000000000000000000000000000000000000000000600052601260045260246000fd5b7f4e487b7100000000000000000000000000000000000000000000000000000000600052602260045260246000fd5b7f4e487b7100000000000000000000000000000000000000000000000000000000600052604160045260246000fd5b6000601f19601f8301169050919050565b7f63616e6e6f74206d696e74206d6f7265207468616e2074686520616d6f756e74600082015250565b7f5061757361626c653a206e6f7420706175736564000000000000000000000000600082015250565b7f4552433732313a207472616e7366657220746f206e6f6e20455243373231526560008201527f63656976657220696d706c656d656e7465720000000000000000000000000000602082015250565b7f4f776e61626c653a206e6577206f776e657220697320746865207a65726f206160008201527f6464726573730000000000000000000000000000000000000000000000000000602082015250565b7f4552433732313a20746f6b656e20616c7265616479206d696e74656400000000600082015250565b7f4d617820616d6f756e74206f66204e4654206d696e7465640000000000000000600082015250565b7f4552433732313a207472616e7366657220746f20746865207a65726f2061646460008201527f7265737300000000000000000000000000000000000000000000000000000000602082015250565b7f4552433732313a20617070726f766520746f2063616c6c657200000000000000600082015250565b7f4552433732313a206f70657261746f7220717565727920666f72206e6f6e657860008201527f697374656e7420746f6b656e0000000000000000000000000000000000000000602082015250565b7f5061757361626c653a2070617573656400000000000000000000000000000000600082015250565b7f4552433732313a20617070726f76652063616c6c6572206973206e6f74206f7760008201527f6e6572206e6f7220617070726f76656420666f7220616c6c0000000000000000602082015250565b7f4552433732313a2062616c616e636520717565727920666f7220746865207a6560008201527f726f206164647265737300000000000000000000000000000000000000000000602082015250565b7f4552433732313a206f776e657220717565727920666f72206e6f6e657869737460008201527f656e7420746f6b656e0000000000000000000000000000000000000000000000602082015250565b7f596f7520617265206e6f7420656c696769626c6520746f206d696e742074686960008201527f73206e756d626572206f66204e46540000000000000000000000000000000000602082015250565b7f4552433732313a206d696e7420746f20746865207a65726f2061646472657373600082015250565b7f4552433732313a20617070726f76656420717565727920666f72206e6f6e657860008201527f697374656e7420746f6b656e0000000000000000000000000000000000000000602082015250565b7f4f776e61626c653a2063616c6c6572206973206e6f7420746865206f776e6572600082015250565b7f4552433732313a207472616e73666572206f6620746f6b656e2074686174206960008201527f73206e6f74206f776e0000000000000000000000000000000000000000000000602082015250565b7f4552433732314d657461646174613a2055524920717565727920666f72206e6f60008201527f6e6578697374656e7420746f6b656e0000000000000000000000000000000000602082015250565b7f596f752063616e6e6f74206d696e74206d6f7265207468616e20656c6967696260008201527f6c65000000000000000000000000000000000000000000000000000000000000602082015250565b7f4552433732313a20617070726f76616c20746f2063757272656e74206f776e6560008201527f7200000000000000000000000000000000000000000000000000000000000000602082015250565b7f696e53756666696369656e742046756e64730000000000000000000000000000600082015250565b7f596f752063616e6e6f74206d696e74206d6f7265207468616e20746865206d6160008201527f78204e465420616c6c6f77656400000000000000000000000000000000000000602082015250565b7f4552433732313a207472616e736665722063616c6c6572206973206e6f74206f60008201527f776e6572206e6f7220617070726f766564000000000000000000000000000000602082015250565b7f596f7520617265206e6f7420656c696769626c6520666f722070726573616c65600082015250565b7f5265656e7472616e637947756172643a207265656e7472616e742063616c6c00600082015250565b614b2a81614249565b8114614b3557600080fd5b50565b614b418161425b565b8114614b4c57600080fd5b50565b614b5881614267565b8114614b6357600080fd5b50565b614b6f81614271565b8114614b7a57600080fd5b50565b614b86816142bd565b8114614b9157600080fd5b5056fea26469706673582212206c918d52cc4a4dddf9ab451bc263cb3b97017ee9c1fb6a34bf074ac82b173bfe64736f6c63430008040033",
    "linkReferences": {},
    "deployedLinkReferences": {}
}