{
  "_format": "hh-sol-artifact-1",
  "contractName": "TheoNFT",
  "sourceName": "contracts/TheoNFT.sol",
  "abi": [
    {
      "inputs": [
        {
          "internalType": "string",
          "name": "name",
          "type": "string"
        },
        {
          "internalType": "string",
          "name": "symbol",
          "type": "string"
        },
        {
          "internalType": "string",
          "name": "initRevealedURI",
          "type": "string"
        }
      ],
      "stateMutability": "nonpayable",
      "type": "constructor"
    },
    {
      "anonymous": false,
      "inputs": [
        {
          "indexed": true,
          "internalType": "address",
          "name": "owner",
          "type": "address"
        },
        {
          "indexed": true,
          "internalType": "address",
          "name": "approved",
          "type": "address"
        },
        {
          "indexed": true,
          "internalType": "uint256",
          "name": "tokenId",
          "type": "uint256"
        }
      ],
      "name": "Approval",
      "type": "event"
    },
    {
      "anonymous": false,
      "inputs": [
        {
          "indexed": true,
          "internalType": "address",
          "name": "owner",
          "type": "address"
        },
        {
          "indexed": true,
          "internalType": "address",
          "name": "operator",
          "type": "address"
        },
        {
          "indexed": false,
          "internalType": "bool",
          "name": "approved",
          "type": "bool"
        }
      ],
      "name": "ApprovalForAll",
      "type": "event"
    },
    {
      "anonymous": false,
      "inputs": [
        {
          "indexed": true,
          "internalType": "address",
          "name": "previousOwner",
          "type": "address"
        },
        {
          "indexed": true,
          "internalType": "address",
          "name": "newOwner",
          "type": "address"
        }
      ],
      "name": "OwnershipTransferred",
      "type": "event"
    },
    {
      "anonymous": false,
      "inputs": [
        {
          "indexed": false,
          "internalType": "address",
          "name": "account",
          "type": "address"
        }
      ],
      "name": "Paused",
      "type": "event"
    },
    {
      "anonymous": false,
      "inputs": [
        {
          "indexed": true,
          "internalType": "address",
          "name": "from",
          "type": "address"
        },
        {
          "indexed": true,
          "internalType": "address",
          "name": "to",
          "type": "address"
        },
        {
          "indexed": true,
          "internalType": "uint256",
          "name": "tokenId",
          "type": "uint256"
        }
      ],
      "name": "Transfer",
      "type": "event"
    },
    {
      "anonymous": false,
      "inputs": [
        {
          "indexed": false,
          "internalType": "address",
          "name": "account",
          "type": "address"
        }
      ],
      "name": "Unpaused",
      "type": "event"
    },
    {
      "anonymous": false,
      "inputs": [
        {
          "indexed": false,
          "internalType": "bool",
          "name": "status",
          "type": "bool"
        },
        {
          "indexed": false,
          "internalType": "address",
          "name": "_address",
          "type": "address"
        }
      ],
      "name": "VStatus",
      "type": "event"
    },
    {
      "inputs": [
        {
          "internalType": "address",
          "name": "to",
          "type": "address"
        },
        {
          "internalType": "uint256",
          "name": "tokenId",
          "type": "uint256"
        }
      ],
      "name": "approve",
      "outputs": [],
      "stateMutability": "nonpayable",
      "type": "function"
    },
    {
      "inputs": [
        {
          "internalType": "address",
          "name": "owner",
          "type": "address"
        }
      ],
      "name": "balanceOf",
      "outputs": [
        {
          "internalType": "uint256",
          "name": "",
          "type": "uint256"
        }
      ],
      "stateMutability": "view",
      "type": "function"
    },
    {
      "inputs": [],
      "name": "baseExtension",
      "outputs": [
        {
          "internalType": "string",
          "name": "",
          "type": "string"
        }
      ],
      "stateMutability": "view",
      "type": "function"
    },
    {
      "inputs": [],
      "name": "baseURI",
      "outputs": [
        {
          "internalType": "string",
          "name": "",
          "type": "string"
        }
      ],
      "stateMutability": "view",
      "type": "function"
    },
    {
      "inputs": [
        {
          "internalType": "uint256",
          "name": "tokenId",
          "type": "uint256"
        }
      ],
      "name": "getApproved",
      "outputs": [
        {
          "internalType": "address",
          "name": "",
          "type": "address"
        }
      ],
      "stateMutability": "view",
      "type": "function"
    },
    {
      "inputs": [],
      "name": "getBalance",
      "outputs": [
        {
          "internalType": "uint256",
          "name": "",
          "type": "uint256"
        }
      ],
      "stateMutability": "view",
      "type": "function"
    },
    {
      "inputs": [
        {
          "internalType": "address",
          "name": "",
          "type": "address"
        }
      ],
      "name": "isAllowedToMintInPresale",
      "outputs": [
        {
          "internalType": "uint256",
          "name": "",
          "type": "uint256"
        }
      ],
      "stateMutability": "view",
      "type": "function"
    },
    {
      "inputs": [
        {
          "internalType": "address",
          "name": "owner",
          "type": "address"
        },
        {
          "internalType": "address",
          "name": "operator",
          "type": "address"
        }
      ],
      "name": "isApprovedForAll",
      "outputs": [
        {
          "internalType": "bool",
          "name": "",
          "type": "bool"
        }
      ],
      "stateMutability": "view",
      "type": "function"
    },
    {
      "inputs": [],
      "name": "isRevealed",
      "outputs": [
        {
          "internalType": "bool",
          "name": "",
          "type": "bool"
        }
      ],
      "stateMutability": "view",
      "type": "function"
    },
    {
      "inputs": [
        {
          "internalType": "address",
          "name": "",
          "type": "address"
        }
      ],
      "name": "isVerified",
      "outputs": [
        {
          "internalType": "bool",
          "name": "",
          "type": "bool"
        }
      ],
      "stateMutability": "view",
      "type": "function"
    },
    {
      "inputs": [
        {
          "internalType": "address",
          "name": "",
          "type": "address"
        }
      ],
      "name": "maxMintable",
      "outputs": [
        {
          "internalType": "uint256",
          "name": "",
          "type": "uint256"
        }
      ],
      "stateMutability": "view",
      "type": "function"
    },
    {
      "inputs": [],
      "name": "maxPublicAmount",
      "outputs": [
        {
          "internalType": "uint256",
          "name": "",
          "type": "uint256"
        }
      ],
      "stateMutability": "view",
      "type": "function"
    },
    {
      "inputs": [],
      "name": "maxSupply",
      "outputs": [
        {
          "internalType": "uint256",
          "name": "",
          "type": "uint256"
        }
      ],
      "stateMutability": "view",
      "type": "function"
    },
    {
      "inputs": [
        {
          "internalType": "uint256",
          "name": "mintAmount",
          "type": "uint256"
        }
      ],
      "name": "mint",
      "outputs": [],
      "stateMutability": "payable",
      "type": "function"
    },
    {
      "inputs": [],
      "name": "name",
      "outputs": [
        {
          "internalType": "string",
          "name": "",
          "type": "string"
        }
      ],
      "stateMutability": "view",
      "type": "function"
    },
    {
      "inputs": [],
      "name": "notRevealedUri",
      "outputs": [
        {
          "internalType": "string",
          "name": "",
          "type": "string"
        }
      ],
      "stateMutability": "view",
      "type": "function"
    },
    {
      "inputs": [],
      "name": "owner",
      "outputs": [
        {
          "internalType": "address",
          "name": "",
          "type": "address"
        }
      ],
      "stateMutability": "view",
      "type": "function"
    },
    {
      "inputs": [
        {
          "internalType": "uint256",
          "name": "tokenId",
          "type": "uint256"
        }
      ],
      "name": "ownerOf",
      "outputs": [
        {
          "internalType": "address",
          "name": "",
          "type": "address"
        }
      ],
      "stateMutability": "view",
      "type": "function"
    },
    {
      "inputs": [],
      "name": "pause",
      "outputs": [
        {
          "internalType": "bool",
          "name": "",
          "type": "bool"
        }
      ],
      "stateMutability": "nonpayable",
      "type": "function"
    },
    {
      "inputs": [],
      "name": "paused",
      "outputs": [
        {
          "internalType": "bool",
          "name": "",
          "type": "bool"
        }
      ],
      "stateMutability": "view",
      "type": "function"
    },
    {
      "inputs": [
        {
          "internalType": "address",
          "name": "",
          "type": "address"
        }
      ],
      "name": "preSaleMaxMintAmount",
      "outputs": [
        {
          "internalType": "uint256",
          "name": "",
          "type": "uint256"
        }
      ],
      "stateMutability": "view",
      "type": "function"
    },
    {
      "inputs": [],
      "name": "presale",
      "outputs": [
        {
          "internalType": "bool",
          "name": "",
          "type": "bool"
        }
      ],
      "stateMutability": "view",
      "type": "function"
    },
    {
      "inputs": [
        {
          "internalType": "address",
          "name": "",
          "type": "address"
        }
      ],
      "name": "presaleMinted",
      "outputs": [
        {
          "internalType": "uint256",
          "name": "",
          "type": "uint256"
        }
      ],
      "stateMutability": "view",
      "type": "function"
    },
    {
      "inputs": [],
      "name": "presalePrice",
      "outputs": [
        {
          "internalType": "uint256",
          "name": "",
          "type": "uint256"
        }
      ],
      "stateMutability": "view",
      "type": "function"
    },
    {
      "inputs": [],
      "name": "price",
      "outputs": [
        {
          "internalType": "uint256",
          "name": "",
          "type": "uint256"
        }
      ],
      "stateMutability": "view",
      "type": "function"
    },
    {
      "inputs": [],
      "name": "renounceOwnership",
      "outputs": [],
      "stateMutability": "nonpayable",
      "type": "function"
    },
    {
      "inputs": [
        {
          "internalType": "address",
          "name": "from",
          "type": "address"
        },
        {
          "internalType": "address",
          "name": "to",
          "type": "address"
        },
        {
          "internalType": "uint256",
          "name": "tokenId",
          "type": "uint256"
        }
      ],
      "name": "safeTransferFrom",
      "outputs": [],
      "stateMutability": "nonpayable",
      "type": "function"
    },
    {
      "inputs": [
        {
          "internalType": "address",
          "name": "from",
          "type": "address"
        },
        {
          "internalType": "address",
          "name": "to",
          "type": "address"
        },
        {
          "internalType": "uint256",
          "name": "tokenId",
          "type": "uint256"
        },
        {
          "internalType": "bytes",
          "name": "_data",
          "type": "bytes"
        }
      ],
      "name": "safeTransferFrom",
      "outputs": [],
      "stateMutability": "nonpayable",
      "type": "function"
    },
    {
      "inputs": [
        {
          "internalType": "address",
          "name": "operator",
          "type": "address"
        },
        {
          "internalType": "bool",
          "name": "approved",
          "type": "bool"
        }
      ],
      "name": "setApprovalForAll",
      "outputs": [],
      "stateMutability": "nonpayable",
      "type": "function"
    },
    {
      "inputs": [
        {
          "internalType": "string",
          "name": "_newBaseURI",
          "type": "string"
        }
      ],
      "name": "setBaseURI",
      "outputs": [],
      "stateMutability": "nonpayable",
      "type": "function"
    },
    {
      "inputs": [
        {
          "internalType": "uint256",
          "name": "amount",
          "type": "uint256"
        }
      ],
      "name": "setMaxPublicSale",
      "outputs": [
        {
          "internalType": "bool",
          "name": "",
          "type": "bool"
        }
      ],
      "stateMutability": "nonpayable",
      "type": "function"
    },
    {
      "inputs": [
        {
          "internalType": "uint256",
          "name": "_maxSupply",
          "type": "uint256"
        }
      ],
      "name": "setMaxSupply",
      "outputs": [
        {
          "internalType": "bool",
          "name": "",
          "type": "bool"
        }
      ],
      "stateMutability": "nonpayable",
      "type": "function"
    },
    {
      "inputs": [
        {
          "internalType": "uint256",
          "name": "_price",
          "type": "uint256"
        }
      ],
      "name": "setPresalePrice",
      "outputs": [
        {
          "internalType": "bool",
          "name": "",
          "type": "bool"
        }
      ],
      "stateMutability": "nonpayable",
      "type": "function"
    },
    {
      "inputs": [
        {
          "internalType": "uint256",
          "name": "_newPrice",
          "type": "uint256"
        }
      ],
      "name": "setPrice",
      "outputs": [
        {
          "internalType": "bool",
          "name": "",
          "type": "bool"
        }
      ],
      "stateMutability": "nonpayable",
      "type": "function"
    },
    {
      "inputs": [
        {
          "internalType": "bytes32",
          "name": "newRoot",
          "type": "bytes32"
        }
      ],
      "name": "setRoot",
      "outputs": [
        {
          "internalType": "bool",
          "name": "",
          "type": "bool"
        }
      ],
      "stateMutability": "nonpayable",
      "type": "function"
    },
    {
      "inputs": [],
      "name": "startPresale",
      "outputs": [
        {
          "internalType": "bool",
          "name": "",
          "type": "bool"
        }
      ],
      "stateMutability": "nonpayable",
      "type": "function"
    },
    {
      "inputs": [],
      "name": "stopPresale",
      "outputs": [
        {
          "internalType": "bool",
          "name": "",
          "type": "bool"
        }
      ],
      "stateMutability": "nonpayable",
      "type": "function"
    },
    {
      "inputs": [
        {
          "internalType": "bytes4",
          "name": "interfaceId",
          "type": "bytes4"
        }
      ],
      "name": "supportsInterface",
      "outputs": [
        {
          "internalType": "bool",
          "name": "",
          "type": "bool"
        }
      ],
      "stateMutability": "view",
      "type": "function"
    },
    {
      "inputs": [],
      "name": "symbol",
      "outputs": [
        {
          "internalType": "string",
          "name": "",
          "type": "string"
        }
      ],
      "stateMutability": "view",
      "type": "function"
    },
    {
      "inputs": [
        {
          "internalType": "uint256",
          "name": "tokenId",
          "type": "uint256"
        }
      ],
      "name": "tokenURI",
      "outputs": [
        {
          "internalType": "string",
          "name": "",
          "type": "string"
        }
      ],
      "stateMutability": "view",
      "type": "function"
    },
    {
      "inputs": [],
      "name": "totalMinted",
      "outputs": [
        {
          "internalType": "uint256",
          "name": "",
          "type": "uint256"
        }
      ],
      "stateMutability": "view",
      "type": "function"
    },
    {
      "inputs": [
        {
          "internalType": "address",
          "name": "from",
          "type": "address"
        },
        {
          "internalType": "address",
          "name": "to",
          "type": "address"
        },
        {
          "internalType": "uint256",
          "name": "tokenId",
          "type": "uint256"
        }
      ],
      "name": "transferFrom",
      "outputs": [],
      "stateMutability": "nonpayable",
      "type": "function"
    },
    {
      "inputs": [
        {
          "internalType": "address",
          "name": "newOwner",
          "type": "address"
        }
      ],
      "name": "transferOwnership",
      "outputs": [],
      "stateMutability": "nonpayable",
      "type": "function"
    },
    {
      "inputs": [],
      "name": "unPaused",
      "outputs": [
        {
          "internalType": "bool",
          "name": "",
          "type": "bool"
        }
      ],
      "stateMutability": "nonpayable",
      "type": "function"
    },
    {
      "inputs": [
        {
          "internalType": "bytes32[]",
          "name": "proof",
          "type": "bytes32[]"
        },
        {
          "internalType": "bytes32",
          "name": "leaf",
          "type": "bytes32"
        },
        {
          "internalType": "uint256",
          "name": "maxMintAmount",
          "type": "uint256"
        }
      ],
      "name": "verification",
      "outputs": [
        {
          "internalType": "bool",
          "name": "",
          "type": "bool"
        }
      ],
      "stateMutability": "nonpayable",
      "type": "function"
    },
    {
      "inputs": [],
      "name": "viewRoot",
      "outputs": [
        {
          "internalType": "bytes32",
          "name": "",
          "type": "bytes32"
        }
      ],
      "stateMutability": "view",
      "type": "function"
    },
    {
      "inputs": [
        {
          "internalType": "address",
          "name": "_address",
          "type": "address"
        }
      ],
      "name": "whiteListAddress",
      "outputs": [
        {
          "internalType": "bool",
          "name": "",
          "type": "bool"
        }
      ],
      "stateMutability": "nonpayable",
      "type": "function"
    },
    {
      "inputs": [],
      "name": "withdraw",
      "outputs": [
        {
          "internalType": "bool",
          "name": "",
          "type": "bool"
        }
      ],
      "stateMutability": "nonpayable",
      "type": "function"
    }
  ],
  "bytecode": "0x60806040526040518060400160405280600581526020017f2e6a736f6e000000000000000000000000000000000000000000000000000000815250600a908051906020019062000051929190620002f8565b507f3af020aab4e27a80329d7f7a7616a8c69b2317e8222e6211c2e495322c4a2a8960001b600d556103e8600e556005600f5566038d7ea4c680006010553480156200009c57600080fd5b506040516200599b3803806200599b8339818101604052810190620000c291906200041a565b82828160009080519060200190620000dc929190620002f8565b508060019080519060200190620000f5929190620002f8565b505050620001186200010c6200015560201b60201c565b6200015d60201b60201c565b6000600760146101000a81548160ff02191690831515021790555060016008819055506200014c816200022360201b60201c565b505050620006ae565b600033905090565b6000600760009054906101000a900473ffffffffffffffffffffffffffffffffffffffff16905081600760006101000a81548173ffffffffffffffffffffffffffffffffffffffff021916908373ffffffffffffffffffffffffffffffffffffffff1602179055508173ffffffffffffffffffffffffffffffffffffffff168173ffffffffffffffffffffffffffffffffffffffff167f8be0079c531659141344cd1fd0a4f28419497f9722a3daafe3b4186f6b6457e060405160405180910390a35050565b620002336200015560201b60201c565b73ffffffffffffffffffffffffffffffffffffffff1662000259620002ce60201b60201c565b73ffffffffffffffffffffffffffffffffffffffff1614620002b2576040517f08c379a0000000000000000000000000000000000000000000000000000000008152600401620002a990620004e2565b60405180910390fd5b80600b9080519060200190620002ca929190620002f8565b5050565b6000600760009054906101000a900473ffffffffffffffffffffffffffffffffffffffff16905090565b8280546200030690620005aa565b90600052602060002090601f0160209004810192826200032a576000855562000376565b82601f106200034557805160ff191683800117855562000376565b8280016001018555821562000376579182015b828111156200037557825182559160200191906001019062000358565b5b50905062000385919062000389565b5090565b5b80821115620003a45760008160009055506001016200038a565b5090565b6000620003bf620003b9846200052d565b62000504565b905082815260208101848484011115620003d857600080fd5b620003e584828562000574565b509392505050565b600082601f830112620003ff57600080fd5b815162000411848260208601620003a8565b91505092915050565b6000806000606084860312156200043057600080fd5b600084015167ffffffffffffffff8111156200044b57600080fd5b6200045986828701620003ed565b935050602084015167ffffffffffffffff8111156200047757600080fd5b6200048586828701620003ed565b925050604084015167ffffffffffffffff811115620004a357600080fd5b620004b186828701620003ed565b9150509250925092565b6000620004ca60208362000563565b9150620004d78262000685565b602082019050919050565b60006020820190508181036000830152620004fd81620004bb565b9050919050565b60006200051062000523565b90506200051e8282620005e0565b919050565b6000604051905090565b600067ffffffffffffffff8211156200054b576200054a62000645565b5b620005568262000674565b9050602081019050919050565b600082825260208201905092915050565b60005b838110156200059457808201518184015260208101905062000577565b83811115620005a4576000848401525b50505050565b60006002820490506001821680620005c357607f821691505b60208210811415620005da57620005d962000616565b5b50919050565b620005eb8262000674565b810181811067ffffffffffffffff821117156200060d576200060c62000645565b5b80604052505050565b7f4e487b7100000000000000000000000000000000000000000000000000000000600052602260045260246000fd5b7f4e487b7100000000000000000000000000000000000000000000000000000000600052604160045260246000fd5b6000601f19601f8301169050919050565b7f4f776e61626c653a2063616c6c6572206973206e6f7420746865206f776e6572600082015250565b6152dd80620006be6000396000f3fe6080604052600436106102925760003560e01c8063715018a61161015a578063b88d4fde116100c1578063cf52a7b21161007a578063cf52a7b214610a84578063d5abeb0114610ac1578063dab5f34014610aec578063e985e9c514610b29578063f2fde38b14610b66578063fdea8e0b14610b8f57610292565b8063b88d4fde1461093c578063b9209e3314610965578063bc660cac146109a2578063c6682862146109df578063c6e5d1a314610a0a578063c87b56dd14610a4757610292565b806395d89b411161011357806395d89b411461084b578063a035b1fe14610876578063a0712d68146108a1578063a22cb465146108bd578063a2309ff8146108e6578063b2bf78131461091157610292565b8063715018a6146107395780637dfdd68714610750578063805e0b201461077b5780638456cb59146107b85780638da5cb5b146107e357806391b7f5ed1461080e57610292565b80633549345e116101fe5780635c975abb116101b75780635c975abb146105ef5780635ed88ecf1461061a5780636352211e146106575780636c0360eb146106945780636f8b44b0146106bf57806370a08231146106fc57610292565b80633549345e146104cd5780633ccfd60b1461050a57806342842e0e146105355780634d0ab1001461055e57806354214f691461059b57806355f804b3146105c657610292565b8063081c8c4411610250578063081c8c44146103bd578063095ea7b3146103e85780630b24bb231461041157806312065fe01461044e5780631ad2ad1a1461047957806323b872dd146104a457610292565b80620e7fa81461029757806301ffc9a7146102c257806304c98b2b146102ff578063061a46a91461032a57806306fdde0314610355578063081812fc14610380575b600080fd5b3480156102a357600080fd5b506102ac610bba565b6040516102b99190614721565b60405180910390f35b3480156102ce57600080fd5b506102e960048036038101906102e49190613cdd565b610bc0565b6040516102f69190614360565b60405180910390f35b34801561030b57600080fd5b50610314610ca2565b6040516103219190614360565b60405180910390f35b34801561033657600080fd5b5061033f610d50565b60405161034c9190614360565b60405180910390f35b34801561036157600080fd5b5061036a610ddd565b60405161037791906143bf565b60405180910390f35b34801561038c57600080fd5b506103a760048036038101906103a29190613d70565b610e6f565b6040516103b491906142f9565b60405180910390f35b3480156103c957600080fd5b506103d2610ef4565b6040516103df91906143bf565b60405180910390f35b3480156103f457600080fd5b5061040f600480360381019061040a9190613c11565b610f82565b005b34801561041d57600080fd5b5061043860048036038101906104339190613aa6565b61109a565b6040516104459190614721565b60405180910390f35b34801561045a57600080fd5b506104636110b2565b6040516104709190614721565b60405180910390f35b34801561048557600080fd5b5061048e6110c2565b60405161049b9190614360565b60405180910390f35b3480156104b057600080fd5b506104cb60048036038101906104c69190613b0b565b611170565b005b3480156104d957600080fd5b506104f460048036038101906104ef9190613d70565b6111d0565b6040516105019190614360565b60405180910390f35b34801561051657600080fd5b5061051f61125e565b60405161052c9190614360565b60405180910390f35b34801561054157600080fd5b5061055c60048036038101906105579190613b0b565b611330565b005b34801561056a57600080fd5b5061058560048036038101906105809190613aa6565b611350565b6040516105929190614721565b60405180910390f35b3480156105a757600080fd5b506105b0611368565b6040516105bd9190614360565b60405180910390f35b3480156105d257600080fd5b506105ed60048036038101906105e89190613d2f565b61137b565b005b3480156105fb57600080fd5b50610604611411565b6040516106119190614360565b60405180910390f35b34801561062657600080fd5b50610641600480360381019061063c9190613aa6565b611428565b60405161064e9190614721565b60405180910390f35b34801561066357600080fd5b5061067e60048036038101906106799190613d70565b611440565b60405161068b91906142f9565b60405180910390f35b3480156106a057600080fd5b506106a96114f2565b6040516106b691906143bf565b60405180910390f35b3480156106cb57600080fd5b506106e660048036038101906106e19190613d70565b611580565b6040516106f39190614360565b60405180910390f35b34801561070857600080fd5b50610723600480360381019061071e9190613aa6565b61160e565b6040516107309190614721565b60405180910390f35b34801561074557600080fd5b5061074e6116c6565b005b34801561075c57600080fd5b5061076561174e565b60405161077291906143a4565b60405180910390f35b34801561078757600080fd5b506107a2600480360381019061079d9190613d70565b6117d4565b6040516107af9190614360565b60405180910390f35b3480156107c457600080fd5b506107cd611862565b6040516107da9190614360565b60405180910390f35b3480156107ef57600080fd5b506107f86118ef565b60405161080591906142f9565b60405180910390f35b34801561081a57600080fd5b5061083560048036038101906108309190613d70565b611919565b6040516108429190614360565b60405180910390f35b34801561085757600080fd5b506108606119a7565b60405161086d91906143bf565b60405180910390f35b34801561088257600080fd5b5061088b611a39565b6040516108989190614721565b60405180910390f35b6108bb60048036038101906108b69190613d70565b611a3f565b005b3480156108c957600080fd5b506108e460048036038101906108df9190613bd5565b61205b565b005b3480156108f257600080fd5b506108fb612071565b6040516109089190614721565b60405180910390f35b34801561091d57600080fd5b50610926612082565b6040516109339190614721565b60405180910390f35b34801561094857600080fd5b50610963600480360381019061095e9190613b5a565b612088565b005b34801561097157600080fd5b5061098c60048036038101906109879190613aa6565b6120ea565b6040516109999190614360565b60405180910390f35b3480156109ae57600080fd5b506109c960048036038101906109c49190613aa6565b61210a565b6040516109d69190614721565b60405180910390f35b3480156109eb57600080fd5b506109f4612122565b604051610a0191906143bf565b60405180910390f35b348015610a1657600080fd5b50610a316004803603810190610a2c9190613c4d565b6121b0565b604051610a3e9190614360565b60405180910390f35b348015610a5357600080fd5b50610a6e6004803603810190610a699190613d70565b61236d565b604051610a7b91906143bf565b60405180910390f35b348015610a9057600080fd5b50610aab6004803603810190610aa69190613aa6565b612417565b604051610ab89190614360565b60405180910390f35b348015610acd57600080fd5b50610ad661253c565b604051610ae39190614721565b60405180910390f35b348015610af857600080fd5b50610b136004803603810190610b0e9190613cb4565b612542565b604051610b209190614360565b60405180910390f35b348015610b3557600080fd5b50610b506004803603810190610b4b9190613acf565b6125d0565b604051610b5d9190614360565b60405180910390f35b348015610b7257600080fd5b50610b8d6004803603810190610b889190613aa6565b612664565b005b348015610b9b57600080fd5b50610ba461275c565b604051610bb19190614360565b60405180910390f35b60115481565b60007f80ac58cd000000000000000000000000000000000000000000000000000000007bffffffffffffffffffffffffffffffffffffffffffffffffffffffff1916827bffffffffffffffffffffffffffffffffffffffffffffffffffffffff19161480610c8b57507f5b5e139f000000000000000000000000000000000000000000000000000000007bffffffffffffffffffffffffffffffffffffffffffffffffffffffff1916827bffffffffffffffffffffffffffffffffffffffffffffffffffffffff1916145b80610c9b5750610c9a8261276f565b5b9050919050565b6000610cac6127d9565b73ffffffffffffffffffffffffffffffffffffffff16610cca6118ef565b73ffffffffffffffffffffffffffffffffffffffff1614610d20576040517f08c379a0000000000000000000000000000000000000000000000000000000008152600401610d17906145e1565b60405180910390fd5b6001601260006101000a81548160ff021916908315150217905550601260009054906101000a900460ff16905090565b6000610d5a6127d9565b73ffffffffffffffffffffffffffffffffffffffff16610d786118ef565b73ffffffffffffffffffffffffffffffffffffffff1614610dce576040517f08c379a0000000000000000000000000000000000000000000000000000000008152600401610dc5906145e1565b60405180910390fd5b610dd66127e1565b6001905090565b606060008054610dec90614a1c565b80601f0160208091040260200160405190810160405280929190818152602001828054610e1890614a1c565b8015610e655780601f10610e3a57610100808354040283529160200191610e65565b820191906000526020600020905b815481529060010190602001808311610e4857829003601f168201915b5050505050905090565b6000610e7a82612883565b610eb9576040517f08c379a0000000000000000000000000000000000000000000000000000000008152600401610eb0906145c1565b60405180910390fd5b6004600083815260200190815260200160002060009054906101000a900473ffffffffffffffffffffffffffffffffffffffff169050919050565b600c8054610f0190614a1c565b80601f0160208091040260200160405190810160405280929190818152602001828054610f2d90614a1c565b8015610f7a5780601f10610f4f57610100808354040283529160200191610f7a565b820191906000526020600020905b815481529060010190602001808311610f5d57829003601f168201915b505050505081565b6000610f8d82611440565b90508073ffffffffffffffffffffffffffffffffffffffff168373ffffffffffffffffffffffffffffffffffffffff161415610ffe576040517f08c379a0000000000000000000000000000000000000000000000000000000008152600401610ff590614661565b60405180910390fd5b8073ffffffffffffffffffffffffffffffffffffffff1661101d6127d9565b73ffffffffffffffffffffffffffffffffffffffff16148061104c575061104b816110466127d9565b6125d0565b5b61108b576040517f08c379a000000000000000000000000000000000000000000000000000000000815260040161108290614521565b60405180910390fd5b61109583836128ef565b505050565b60146020528060005260406000206000915090505481565b60006110bd3361160e565b905090565b60006110cc6127d9565b73ffffffffffffffffffffffffffffffffffffffff166110ea6118ef565b73ffffffffffffffffffffffffffffffffffffffff1614611140576040517f08c379a0000000000000000000000000000000000000000000000000000000008152600401611137906145e1565b60405180910390fd5b6000601260006101000a81548160ff021916908315150217905550601260009054906101000a900460ff16905090565b61118161117b6127d9565b826129a8565b6111c0576040517f08c379a00000000000000000000000000000000000000000000000000000000081526004016111b7906146c1565b60405180910390fd5b6111cb838383612a86565b505050565b60006111da6127d9565b73ffffffffffffffffffffffffffffffffffffffff166111f86118ef565b73ffffffffffffffffffffffffffffffffffffffff161461124e576040517f08c379a0000000000000000000000000000000000000000000000000000000008152600401611245906145e1565b60405180910390fd5b8160118190555060019050919050565b60006112686127d9565b73ffffffffffffffffffffffffffffffffffffffff166112866118ef565b73ffffffffffffffffffffffffffffffffffffffff16146112dc576040517f08c379a00000000000000000000000000000000000000000000000000000000081526004016112d3906145e1565b60405180910390fd5b60004790503373ffffffffffffffffffffffffffffffffffffffff166108fc829081150290604051600060405180830381858888f19350505050158015611327573d6000803e3d6000fd5b50600191505090565b61134b83838360405180602001604052806000815250612088565b505050565b60166020528060005260406000206000915090505481565b601260019054906101000a900460ff1681565b6113836127d9565b73ffffffffffffffffffffffffffffffffffffffff166113a16118ef565b73ffffffffffffffffffffffffffffffffffffffff16146113f7576040517f08c379a00000000000000000000000000000000000000000000000000000000081526004016113ee906145e1565b60405180910390fd5b80600b908051906020019061140d92919061381f565b5050565b6000600760149054906101000a900460ff16905090565b60156020528060005260406000206000915090505481565b6000806002600084815260200190815260200160002060009054906101000a900473ffffffffffffffffffffffffffffffffffffffff169050600073ffffffffffffffffffffffffffffffffffffffff168173ffffffffffffffffffffffffffffffffffffffff1614156114e9576040517f08c379a00000000000000000000000000000000000000000000000000000000081526004016114e090614561565b60405180910390fd5b80915050919050565b600b80546114ff90614a1c565b80601f016020809104026020016040519081016040528092919081815260200182805461152b90614a1c565b80156115785780601f1061154d57610100808354040283529160200191611578565b820191906000526020600020905b81548152906001019060200180831161155b57829003601f168201915b505050505081565b600061158a6127d9565b73ffffffffffffffffffffffffffffffffffffffff166115a86118ef565b73ffffffffffffffffffffffffffffffffffffffff16146115fe576040517f08c379a00000000000000000000000000000000000000000000000000000000081526004016115f5906145e1565b60405180910390fd5b81600e8190555060019050919050565b60008073ffffffffffffffffffffffffffffffffffffffff168273ffffffffffffffffffffffffffffffffffffffff16141561167f576040517f08c379a000000000000000000000000000000000000000000000000000000000815260040161167690614541565b60405180910390fd5b600360008373ffffffffffffffffffffffffffffffffffffffff1673ffffffffffffffffffffffffffffffffffffffff168152602001908152602001600020549050919050565b6116ce6127d9565b73ffffffffffffffffffffffffffffffffffffffff166116ec6118ef565b73ffffffffffffffffffffffffffffffffffffffff1614611742576040517f08c379a0000000000000000000000000000000000000000000000000000000008152600401611739906145e1565b60405180910390fd5b61174c6000612ce2565b565b60006117586127d9565b73ffffffffffffffffffffffffffffffffffffffff166117766118ef565b73ffffffffffffffffffffffffffffffffffffffff16146117cc576040517f08c379a00000000000000000000000000000000000000000000000000000000081526004016117c3906145e1565b60405180910390fd5b600d54905090565b60006117de6127d9565b73ffffffffffffffffffffffffffffffffffffffff166117fc6118ef565b73ffffffffffffffffffffffffffffffffffffffff1614611852576040517f08c379a0000000000000000000000000000000000000000000000000000000008152600401611849906145e1565b60405180910390fd5b81600f8190555060019050919050565b600061186c6127d9565b73ffffffffffffffffffffffffffffffffffffffff1661188a6118ef565b73ffffffffffffffffffffffffffffffffffffffff16146118e0576040517f08c379a00000000000000000000000000000000000000000000000000000000081526004016118d7906145e1565b60405180910390fd5b6118e8612da8565b6001905090565b6000600760009054906101000a900473ffffffffffffffffffffffffffffffffffffffff16905090565b60006119236127d9565b73ffffffffffffffffffffffffffffffffffffffff166119416118ef565b73ffffffffffffffffffffffffffffffffffffffff1614611997576040517f08c379a000000000000000000000000000000000000000000000000000000000815260040161198e906145e1565b60405180910390fd5b8160108190555060019050919050565b6060600180546119b690614a1c565b80601f01602080910402602001604051908101604052809291908181526020018280546119e290614a1c565b8015611a2f5780601f10611a0457610100808354040283529160200191611a2f565b820191906000526020600020905b815481529060010190602001808311611a1257829003601f168201915b5050505050905090565b60105481565b611a47611411565b15611a87576040517f08c379a0000000000000000000000000000000000000000000000000000000008152600401611a7e90614501565b60405180910390fd5b60026008541415611acd576040517f08c379a0000000000000000000000000000000000000000000000000000000008152600401611ac490614701565b60405180910390fd5b6002600881905550600e54611ae26009612e4b565b1115611b23576040517f08c379a0000000000000000000000000000000000000000000000000000000008152600401611b1a90614481565b60405180910390fd5b60011515601260009054906101000a900460ff1615151415611e4057600081601154611b4f91906148ce565b905080341015611b94576040517f08c379a0000000000000000000000000000000000000000000000000000000008152600401611b8b90614681565b60405180910390fd5b60011515601360003373ffffffffffffffffffffffffffffffffffffffff1673ffffffffffffffffffffffffffffffffffffffff16815260200190815260200160002060009054906101000a900460ff16151514611c27576040517f08c379a0000000000000000000000000000000000000000000000000000000008152600401611c1e906146e1565b60405180910390fd5b601660003373ffffffffffffffffffffffffffffffffffffffff1673ffffffffffffffffffffffffffffffffffffffff16815260200190815260200160002054821115611ca9576040517f08c379a0000000000000000000000000000000000000000000000000000000008152600401611ca090614581565b60405180910390fd5b81601760003373ffffffffffffffffffffffffffffffffffffffff1673ffffffffffffffffffffffffffffffffffffffff16815260200190815260200160002054611cf49190614847565b601760003373ffffffffffffffffffffffffffffffffffffffff1673ffffffffffffffffffffffffffffffffffffffff16815260200190815260200160002081905550601660003373ffffffffffffffffffffffffffffffffffffffff1673ffffffffffffffffffffffffffffffffffffffff16815260200190815260200160002054601760003373ffffffffffffffffffffffffffffffffffffffff1673ffffffffffffffffffffffffffffffffffffffff168152602001908152602001600020541115611df8576040517f08c379a0000000000000000000000000000000000000000000000000000000008152600401611def90614641565b60405180910390fd5b6000600190505b828111611e3d57611e20611e116127d9565b611e1b6009612e4b565b612e59565b611e2a6009612e77565b8080611e3590614a7f565b915050611dff565b50505b60001515601260009054906101000a900460ff161515141561205057600081601054611e6c91906148ce565b905080341015611eb1576040517f08c379a0000000000000000000000000000000000000000000000000000000008152600401611ea890614681565b60405180910390fd5b600f54821115611ef6576040517f08c379a0000000000000000000000000000000000000000000000000000000008152600401611eed906143e1565b60405180910390fd5b81601560003373ffffffffffffffffffffffffffffffffffffffff1673ffffffffffffffffffffffffffffffffffffffff16815260200190815260200160002054611f419190614847565b601560003373ffffffffffffffffffffffffffffffffffffffff1673ffffffffffffffffffffffffffffffffffffffff16815260200190815260200160002081905550600f54601560003373ffffffffffffffffffffffffffffffffffffffff1673ffffffffffffffffffffffffffffffffffffffff168152602001908152602001600020541115612008576040517f08c379a0000000000000000000000000000000000000000000000000000000008152600401611fff906146a1565b60405180910390fd5b6000600190505b82811161204d576120306120216127d9565b61202b6009612e4b565b612e59565b61203a6009612e77565b808061204590614a7f565b91505061200f565b50505b600160088190555050565b61206d6120666127d9565b8383612e8d565b5050565b600061207d6009612e4b565b905090565b600f5481565b6120996120936127d9565b836129a8565b6120d8576040517f08c379a00000000000000000000000000000000000000000000000000000000081526004016120cf906146c1565b60405180910390fd5b6120e484848484612ffa565b50505050565b60136020528060005260406000206000915054906101000a900460ff1681565b60176020528060005260406000206000915090505481565b600a805461212f90614a1c565b80601f016020809104026020016040519081016040528092919081815260200182805461215b90614a1c565b80156121a85780601f1061217d576101008083540402835291602001916121a8565b820191906000526020600020905b81548152906001019060200180831161218b57829003601f168201915b505050505081565b60006121ba611411565b156121fa576040517f08c379a00000000000000000000000000000000000000000000000000000000081526004016121f190614501565b60405180910390fd5b60026008541415612240576040517f08c379a000000000000000000000000000000000000000000000000000000000815260040161223790614701565b60405180910390fd5b6002600881905550600061225785600d5486613056565b90506122628161306d565b61227761227286600d5487613056565b61306d565b600115158115151415612321576001601360003373ffffffffffffffffffffffffffffffffffffffff1673ffffffffffffffffffffffffffffffffffffffff16815260200190815260200160002060006101000a81548160ff02191690831515021790555082601660003373ffffffffffffffffffffffffffffffffffffffff1673ffffffffffffffffffffffffffffffffffffffff168152602001908152602001600020819055505b7f7367756b6744e408b3eaae8198e1d9929f92453e224ced244d427bd49efc16be813360405161235292919061437b565b60405180910390a18091505060016008819055509392505050565b606061237882612883565b6123b7576040517f08c379a00000000000000000000000000000000000000000000000000000000081526004016123ae90614621565b60405180910390fd5b60006123c1613106565b905060008151116123e1576040518060200160405280600081525061240f565b806123eb84613198565b600a6040516020016123ff939291906142c8565b6040516020818303038152906040525b915050919050565b60006124216127d9565b73ffffffffffffffffffffffffffffffffffffffff1661243f6118ef565b73ffffffffffffffffffffffffffffffffffffffff1614612495576040517f08c379a000000000000000000000000000000000000000000000000000000000815260040161248c906145e1565b60405180910390fd5b6001601360008473ffffffffffffffffffffffffffffffffffffffff1673ffffffffffffffffffffffffffffffffffffffff16815260200190815260200160002060006101000a81548160ff021916908315150217905550600f54601660008473ffffffffffffffffffffffffffffffffffffffff1673ffffffffffffffffffffffffffffffffffffffff1681526020019081526020016000208190555060019050919050565b600e5481565b600061254c6127d9565b73ffffffffffffffffffffffffffffffffffffffff1661256a6118ef565b73ffffffffffffffffffffffffffffffffffffffff16146125c0576040517f08c379a00000000000000000000000000000000000000000000000000000000081526004016125b7906145e1565b60405180910390fd5b81600d8190555060019050919050565b6000600560008473ffffffffffffffffffffffffffffffffffffffff1673ffffffffffffffffffffffffffffffffffffffff16815260200190815260200160002060008373ffffffffffffffffffffffffffffffffffffffff1673ffffffffffffffffffffffffffffffffffffffff16815260200190815260200160002060009054906101000a900460ff16905092915050565b61266c6127d9565b73ffffffffffffffffffffffffffffffffffffffff1661268a6118ef565b73ffffffffffffffffffffffffffffffffffffffff16146126e0576040517f08c379a00000000000000000000000000000000000000000000000000000000081526004016126d7906145e1565b60405180910390fd5b600073ffffffffffffffffffffffffffffffffffffffff168173ffffffffffffffffffffffffffffffffffffffff161415612750576040517f08c379a000000000000000000000000000000000000000000000000000000000815260040161274790614441565b60405180910390fd5b61275981612ce2565b50565b601260009054906101000a900460ff1681565b60007f01ffc9a7000000000000000000000000000000000000000000000000000000007bffffffffffffffffffffffffffffffffffffffffffffffffffffffff1916827bffffffffffffffffffffffffffffffffffffffffffffffffffffffff1916149050919050565b600033905090565b6127e9611411565b612828576040517f08c379a000000000000000000000000000000000000000000000000000000000815260040161281f90614401565b60405180910390fd5b6000600760146101000a81548160ff0219169083151502179055507f5db9ee0a495bf2e6ff9c91a7834c1ba4fdd244a5e8aa4e537bd38aeae4b073aa61286c6127d9565b60405161287991906142f9565b60405180910390a1565b60008073ffffffffffffffffffffffffffffffffffffffff166002600084815260200190815260200160002060009054906101000a900473ffffffffffffffffffffffffffffffffffffffff1673ffffffffffffffffffffffffffffffffffffffff1614159050919050565b816004600083815260200190815260200160002060006101000a81548173ffffffffffffffffffffffffffffffffffffffff021916908373ffffffffffffffffffffffffffffffffffffffff160217905550808273ffffffffffffffffffffffffffffffffffffffff1661296283611440565b73ffffffffffffffffffffffffffffffffffffffff167f8c5be1e5ebec7d5bd14f71427d1e84f3dd0314c0f7b2291e5b200ac8c7c3b92560405160405180910390a45050565b60006129b382612883565b6129f2576040517f08c379a00000000000000000000000000000000000000000000000000000000081526004016129e9906144e1565b60405180910390fd5b60006129fd83611440565b90508073ffffffffffffffffffffffffffffffffffffffff168473ffffffffffffffffffffffffffffffffffffffff161480612a6c57508373ffffffffffffffffffffffffffffffffffffffff16612a5484610e6f565b73ffffffffffffffffffffffffffffffffffffffff16145b80612a7d5750612a7c81856125d0565b5b91505092915050565b8273ffffffffffffffffffffffffffffffffffffffff16612aa682611440565b73ffffffffffffffffffffffffffffffffffffffff1614612afc576040517f08c379a0000000000000000000000000000000000000000000000000000000008152600401612af390614601565b60405180910390fd5b600073ffffffffffffffffffffffffffffffffffffffff168273ffffffffffffffffffffffffffffffffffffffff161415612b6c576040517f08c379a0000000000000000000000000000000000000000000000000000000008152600401612b63906144a1565b60405180910390fd5b612b77838383613345565b612b826000826128ef565b6001600360008573ffffffffffffffffffffffffffffffffffffffff1673ffffffffffffffffffffffffffffffffffffffff1681526020019081526020016000206000828254612bd29190614928565b925050819055506001600360008473ffffffffffffffffffffffffffffffffffffffff1673ffffffffffffffffffffffffffffffffffffffff1681526020019081526020016000206000828254612c299190614847565b92505081905550816002600083815260200190815260200160002060006101000a81548173ffffffffffffffffffffffffffffffffffffffff021916908373ffffffffffffffffffffffffffffffffffffffff160217905550808273ffffffffffffffffffffffffffffffffffffffff168473ffffffffffffffffffffffffffffffffffffffff167fddf252ad1be2c89b69c2b068fc378daa952ba7f163c4a11628f55a4df523b3ef60405160405180910390a4505050565b6000600760009054906101000a900473ffffffffffffffffffffffffffffffffffffffff16905081600760006101000a81548173ffffffffffffffffffffffffffffffffffffffff021916908373ffffffffffffffffffffffffffffffffffffffff1602179055508173ffffffffffffffffffffffffffffffffffffffff168173ffffffffffffffffffffffffffffffffffffffff167f8be0079c531659141344cd1fd0a4f28419497f9722a3daafe3b4186f6b6457e060405160405180910390a35050565b612db0611411565b15612df0576040517f08c379a0000000000000000000000000000000000000000000000000000000008152600401612de790614501565b60405180910390fd5b6001600760146101000a81548160ff0219169083151502179055507f62e78cea01bee320cd4e420270b5ea74000d11b0c9f74754ebdbfc544b05a258612e346127d9565b604051612e4191906142f9565b60405180910390a1565b600081600001549050919050565b612e7382826040518060200160405280600081525061334a565b5050565b6001816000016000828254019250508190555050565b8173ffffffffffffffffffffffffffffffffffffffff168373ffffffffffffffffffffffffffffffffffffffff161415612efc576040517f08c379a0000000000000000000000000000000000000000000000000000000008152600401612ef3906144c1565b60405180910390fd5b80600560008573ffffffffffffffffffffffffffffffffffffffff1673ffffffffffffffffffffffffffffffffffffffff16815260200190815260200160002060008473ffffffffffffffffffffffffffffffffffffffff1673ffffffffffffffffffffffffffffffffffffffff16815260200190815260200160002060006101000a81548160ff0219169083151502179055508173ffffffffffffffffffffffffffffffffffffffff168373ffffffffffffffffffffffffffffffffffffffff167f17307eab39ab6107e8899845ad3d59bd9653f200f220920489ca2b5937696c3183604051612fed9190614360565b60405180910390a3505050565b613005848484612a86565b613011848484846133a5565b613050576040517f08c379a000000000000000000000000000000000000000000000000000000000815260040161304790614421565b60405180910390fd5b50505050565b600082613063858461353c565b1490509392505050565b613103816040516024016130819190614360565b6040516020818303038152906040527f32458eed000000000000000000000000000000000000000000000000000000007bffffffffffffffffffffffffffffffffffffffffffffffffffffffff19166020820180517bffffffffffffffffffffffffffffffffffffffffffffffffffffffff8381831617835250505050613615565b50565b6060600b805461311590614a1c565b80601f016020809104026020016040519081016040528092919081815260200182805461314190614a1c565b801561318e5780601f106131635761010080835404028352916020019161318e565b820191906000526020600020905b81548152906001019060200180831161317157829003601f168201915b5050505050905090565b606060008214156131e0576040518060400160405280600181526020017f30000000000000000000000000000000000000000000000000000000000000008152509050613340565b600082905060005b600082146132125780806131fb90614a7f565b915050600a8261320b919061489d565b91506131e8565b60008167ffffffffffffffff811115613254577f4e487b7100000000000000000000000000000000000000000000000000000000600052604160045260246000fd5b6040519080825280601f01601f1916602001820160405280156132865781602001600182028036833780820191505090505b5090505b600085146133395760018261329f9190614928565b9150600a856132ae9190614ad2565b60306132ba9190614847565b60f81b8183815181106132f6577f4e487b7100000000000000000000000000000000000000000000000000000000600052603260045260246000fd5b60200101907effffffffffffffffffffffffffffffffffffffffffffffffffffffffffffff1916908160001a905350600a85613332919061489d565b945061328a565b8093505050505b919050565b505050565b613354838361363e565b61336160008484846133a5565b6133a0576040517f08c379a000000000000000000000000000000000000000000000000000000000815260040161339790614421565b60405180910390fd5b505050565b60006133c68473ffffffffffffffffffffffffffffffffffffffff1661380c565b1561352f578373ffffffffffffffffffffffffffffffffffffffff1663150b7a026133ef6127d9565b8786866040518563ffffffff1660e01b81526004016134119493929190614314565b602060405180830381600087803b15801561342b57600080fd5b505af192505050801561345c57506040513d601f19601f820116820180604052508101906134599190613d06565b60015b6134df573d806000811461348c576040519150601f19603f3d011682016040523d82523d6000602084013e613491565b606091505b506000815114156134d7576040517f08c379a00000000000000000000000000000000000000000000000000000000081526004016134ce90614421565b60405180910390fd5b805181602001fd5b63150b7a0260e01b7bffffffffffffffffffffffffffffffffffffffffffffffffffffffff1916817bffffffffffffffffffffffffffffffffffffffffffffffffffffffff191614915050613534565b600190505b949350505050565b60008082905060005b845181101561360a576000858281518110613589577f4e487b7100000000000000000000000000000000000000000000000000000000600052603260045260246000fd5b602002602001015190508083116135ca5782816040516020016135ad92919061429c565b6040516020818303038152906040528051906020012092506135f6565b80836040516020016135dd92919061429c565b6040516020818303038152906040528051906020012092505b50808061360290614a7f565b915050613545565b508091505092915050565b60008151905060006a636f6e736f6c652e6c6f679050602083016000808483855afa5050505050565b600073ffffffffffffffffffffffffffffffffffffffff168273ffffffffffffffffffffffffffffffffffffffff1614156136ae576040517f08c379a00000000000000000000000000000000000000000000000000000000081526004016136a5906145a1565b60405180910390fd5b6136b781612883565b156136f7576040517f08c379a00000000000000000000000000000000000000000000000000000000081526004016136ee90614461565b60405180910390fd5b61370360008383613345565b6001600360008473ffffffffffffffffffffffffffffffffffffffff1673ffffffffffffffffffffffffffffffffffffffff16815260200190815260200160002060008282546137539190614847565b92505081905550816002600083815260200190815260200160002060006101000a81548173ffffffffffffffffffffffffffffffffffffffff021916908373ffffffffffffffffffffffffffffffffffffffff160217905550808273ffffffffffffffffffffffffffffffffffffffff16600073ffffffffffffffffffffffffffffffffffffffff167fddf252ad1be2c89b69c2b068fc378daa952ba7f163c4a11628f55a4df523b3ef60405160405180910390a45050565b600080823b905060008111915050919050565b82805461382b90614a1c565b90600052602060002090601f01602090048101928261384d5760008555613894565b82601f1061386657805160ff1916838001178555613894565b82800160010185558215613894579182015b82811115613893578251825591602001919060010190613878565b5b5090506138a191906138a5565b5090565b5b808211156138be5760008160009055506001016138a6565b5090565b60006138d56138d084614761565b61473c565b905080838252602082019050828560208602820111156138f457600080fd5b60005b85811015613924578161390a88826139fe565b8452602084019350602083019250506001810190506138f7565b5050509392505050565b600061394161393c8461478d565b61473c565b90508281526020810184848401111561395957600080fd5b6139648482856149da565b509392505050565b600061397f61397a846147be565b61473c565b90508281526020810184848401111561399757600080fd5b6139a28482856149da565b509392505050565b6000813590506139b981615234565b92915050565b600082601f8301126139d057600080fd5b81356139e08482602086016138c2565b91505092915050565b6000813590506139f88161524b565b92915050565b600081359050613a0d81615262565b92915050565b600081359050613a2281615279565b92915050565b600081519050613a3781615279565b92915050565b600082601f830112613a4e57600080fd5b8135613a5e84826020860161392e565b91505092915050565b600082601f830112613a7857600080fd5b8135613a8884826020860161396c565b91505092915050565b600081359050613aa081615290565b92915050565b600060208284031215613ab857600080fd5b6000613ac6848285016139aa565b91505092915050565b60008060408385031215613ae257600080fd5b6000613af0858286016139aa565b9250506020613b01858286016139aa565b9150509250929050565b600080600060608486031215613b2057600080fd5b6000613b2e868287016139aa565b9350506020613b3f868287016139aa565b9250506040613b5086828701613a91565b9150509250925092565b60008060008060808587031215613b7057600080fd5b6000613b7e878288016139aa565b9450506020613b8f878288016139aa565b9350506040613ba087828801613a91565b925050606085013567ffffffffffffffff811115613bbd57600080fd5b613bc987828801613a3d565b91505092959194509250565b60008060408385031215613be857600080fd5b6000613bf6858286016139aa565b9250506020613c07858286016139e9565b9150509250929050565b60008060408385031215613c2457600080fd5b6000613c32858286016139aa565b9250506020613c4385828601613a91565b9150509250929050565b600080600060608486031215613c6257600080fd5b600084013567ffffffffffffffff811115613c7c57600080fd5b613c88868287016139bf565b9350506020613c99868287016139fe565b9250506040613caa86828701613a91565b9150509250925092565b600060208284031215613cc657600080fd5b6000613cd4848285016139fe565b91505092915050565b600060208284031215613cef57600080fd5b6000613cfd84828501613a13565b91505092915050565b600060208284031215613d1857600080fd5b6000613d2684828501613a28565b91505092915050565b600060208284031215613d4157600080fd5b600082013567ffffffffffffffff811115613d5b57600080fd5b613d6784828501613a67565b91505092915050565b600060208284031215613d8257600080fd5b6000613d9084828501613a91565b91505092915050565b613da28161495c565b82525050565b613db18161496e565b82525050565b613dc08161497a565b82525050565b613dd7613dd28261497a565b614ac8565b82525050565b6000613de882614804565b613df2818561481a565b9350613e028185602086016149e9565b613e0b81614bbf565b840191505092915050565b6000613e218261480f565b613e2b818561482b565b9350613e3b8185602086016149e9565b613e4481614bbf565b840191505092915050565b6000613e5a8261480f565b613e64818561483c565b9350613e748185602086016149e9565b80840191505092915050565b60008154613e8d81614a1c565b613e97818661483c565b94506001821660008114613eb25760018114613ec357613ef6565b60ff19831686528186019350613ef6565b613ecc856147ef565b60005b83811015613eee57815481890152600182019150602081019050613ecf565b838801955050505b50505092915050565b6000613f0c60208361482b565b9150613f1782614bd0565b602082019050919050565b6000613f2f60148361482b565b9150613f3a82614bf9565b602082019050919050565b6000613f5260328361482b565b9150613f5d82614c22565b604082019050919050565b6000613f7560268361482b565b9150613f8082614c71565b604082019050919050565b6000613f98601c8361482b565b9150613fa382614cc0565b602082019050919050565b6000613fbb60188361482b565b9150613fc682614ce9565b602082019050919050565b6000613fde60248361482b565b9150613fe982614d12565b604082019050919050565b600061400160198361482b565b915061400c82614d61565b602082019050919050565b6000614024602c8361482b565b915061402f82614d8a565b604082019050919050565b600061404760108361482b565b915061405282614dd9565b602082019050919050565b600061406a60388361482b565b915061407582614e02565b604082019050919050565b600061408d602a8361482b565b915061409882614e51565b604082019050919050565b60006140b060298361482b565b91506140bb82614ea0565b604082019050919050565b60006140d3602f8361482b565b91506140de82614eef565b604082019050919050565b60006140f660208361482b565b915061410182614f3e565b602082019050919050565b6000614119602c8361482b565b915061412482614f67565b604082019050919050565b600061413c60208361482b565b915061414782614fb6565b602082019050919050565b600061415f60298361482b565b915061416a82614fdf565b604082019050919050565b6000614182602f8361482b565b915061418d8261502e565b604082019050919050565b60006141a560228361482b565b91506141b08261507d565b604082019050919050565b60006141c860218361482b565b91506141d3826150cc565b604082019050919050565b60006141eb60128361482b565b91506141f68261511b565b602082019050919050565b600061420e602d8361482b565b915061421982615144565b604082019050919050565b600061423160318361482b565b915061423c82615193565b604082019050919050565b600061425460208361482b565b915061425f826151e2565b602082019050919050565b6000614277601f8361482b565b91506142828261520b565b602082019050919050565b614296816149d0565b82525050565b60006142a88285613dc6565b6020820191506142b88284613dc6565b6020820191508190509392505050565b60006142d48286613e4f565b91506142e08285613e4f565b91506142ec8284613e80565b9150819050949350505050565b600060208201905061430e6000830184613d99565b92915050565b60006080820190506143296000830187613d99565b6143366020830186613d99565b614343604083018561428d565b81810360608301526143558184613ddd565b905095945050505050565b60006020820190506143756000830184613da8565b92915050565b60006040820190506143906000830185613da8565b61439d6020830184613d99565b9392505050565b60006020820190506143b96000830184613db7565b92915050565b600060208201905081810360008301526143d98184613e16565b905092915050565b600060208201905081810360008301526143fa81613eff565b9050919050565b6000602082019050818103600083015261441a81613f22565b9050919050565b6000602082019050818103600083015261443a81613f45565b9050919050565b6000602082019050818103600083015261445a81613f68565b9050919050565b6000602082019050818103600083015261447a81613f8b565b9050919050565b6000602082019050818103600083015261449a81613fae565b9050919050565b600060208201905081810360008301526144ba81613fd1565b9050919050565b600060208201905081810360008301526144da81613ff4565b9050919050565b600060208201905081810360008301526144fa81614017565b9050919050565b6000602082019050818103600083015261451a8161403a565b9050919050565b6000602082019050818103600083015261453a8161405d565b9050919050565b6000602082019050818103600083015261455a81614080565b9050919050565b6000602082019050818103600083015261457a816140a3565b9050919050565b6000602082019050818103600083015261459a816140c6565b9050919050565b600060208201905081810360008301526145ba816140e9565b9050919050565b600060208201905081810360008301526145da8161410c565b9050919050565b600060208201905081810360008301526145fa8161412f565b9050919050565b6000602082019050818103600083015261461a81614152565b9050919050565b6000602082019050818103600083015261463a81614175565b9050919050565b6000602082019050818103600083015261465a81614198565b9050919050565b6000602082019050818103600083015261467a816141bb565b9050919050565b6000602082019050818103600083015261469a816141de565b9050919050565b600060208201905081810360008301526146ba81614201565b9050919050565b600060208201905081810360008301526146da81614224565b9050919050565b600060208201905081810360008301526146fa81614247565b9050919050565b6000602082019050818103600083015261471a8161426a565b9050919050565b6000602082019050614736600083018461428d565b92915050565b6000614746614757565b90506147528282614a4e565b919050565b6000604051905090565b600067ffffffffffffffff82111561477c5761477b614b90565b5b602082029050602081019050919050565b600067ffffffffffffffff8211156147a8576147a7614b90565b5b6147b182614bbf565b9050602081019050919050565b600067ffffffffffffffff8211156147d9576147d8614b90565b5b6147e282614bbf565b9050602081019050919050565b60008190508160005260206000209050919050565b600081519050919050565b600081519050919050565b600082825260208201905092915050565b600082825260208201905092915050565b600081905092915050565b6000614852826149d0565b915061485d836149d0565b9250827fffffffffffffffffffffffffffffffffffffffffffffffffffffffffffffffff0382111561489257614891614b03565b5b828201905092915050565b60006148a8826149d0565b91506148b3836149d0565b9250826148c3576148c2614b32565b5b828204905092915050565b60006148d9826149d0565b91506148e4836149d0565b9250817fffffffffffffffffffffffffffffffffffffffffffffffffffffffffffffffff048311821515161561491d5761491c614b03565b5b828202905092915050565b6000614933826149d0565b915061493e836149d0565b92508282101561495157614950614b03565b5b828203905092915050565b6000614967826149b0565b9050919050565b60008115159050919050565b6000819050919050565b60007fffffffff0000000000000000000000000000000000000000000000000000000082169050919050565b600073ffffffffffffffffffffffffffffffffffffffff82169050919050565b6000819050919050565b82818337600083830152505050565b60005b83811015614a075780820151818401526020810190506149ec565b83811115614a16576000848401525b50505050565b60006002820490506001821680614a3457607f821691505b60208210811415614a4857614a47614b61565b5b50919050565b614a5782614bbf565b810181811067ffffffffffffffff82111715614a7657614a75614b90565b5b80604052505050565b6000614a8a826149d0565b91507fffffffffffffffffffffffffffffffffffffffffffffffffffffffffffffffff821415614abd57614abc614b03565b5b600182019050919050565b6000819050919050565b6000614add826149d0565b9150614ae8836149d0565b925082614af857614af7614b32565b5b828206905092915050565b7f4e487b7100000000000000000000000000000000000000000000000000000000600052601160045260246000fd5b7f4e487b7100000000000000000000000000000000000000000000000000000000600052601260045260246000fd5b7f4e487b7100000000000000000000000000000000000000000000000000000000600052602260045260246000fd5b7f4e487b7100000000000000000000000000000000000000000000000000000000600052604160045260246000fd5b6000601f19601f8301169050919050565b7f63616e6e6f74206d696e74206d6f7265207468616e2074686520616d6f756e74600082015250565b7f5061757361626c653a206e6f7420706175736564000000000000000000000000600082015250565b7f4552433732313a207472616e7366657220746f206e6f6e20455243373231526560008201527f63656976657220696d706c656d656e7465720000000000000000000000000000602082015250565b7f4f776e61626c653a206e6577206f776e657220697320746865207a65726f206160008201527f6464726573730000000000000000000000000000000000000000000000000000602082015250565b7f4552433732313a20746f6b656e20616c7265616479206d696e74656400000000600082015250565b7f4d617820616d6f756e74206f66204e4654206d696e7465640000000000000000600082015250565b7f4552433732313a207472616e7366657220746f20746865207a65726f2061646460008201527f7265737300000000000000000000000000000000000000000000000000000000602082015250565b7f4552433732313a20617070726f766520746f2063616c6c657200000000000000600082015250565b7f4552433732313a206f70657261746f7220717565727920666f72206e6f6e657860008201527f697374656e7420746f6b656e0000000000000000000000000000000000000000602082015250565b7f5061757361626c653a2070617573656400000000000000000000000000000000600082015250565b7f4552433732313a20617070726f76652063616c6c6572206973206e6f74206f7760008201527f6e6572206e6f7220617070726f76656420666f7220616c6c0000000000000000602082015250565b7f4552433732313a2062616c616e636520717565727920666f7220746865207a6560008201527f726f206164647265737300000000000000000000000000000000000000000000602082015250565b7f4552433732313a206f776e657220717565727920666f72206e6f6e657869737460008201527f656e7420746f6b656e0000000000000000000000000000000000000000000000602082015250565b7f596f7520617265206e6f7420656c696769626c6520746f206d696e742074686960008201527f73206e756d626572206f66204e46540000000000000000000000000000000000602082015250565b7f4552433732313a206d696e7420746f20746865207a65726f2061646472657373600082015250565b7f4552433732313a20617070726f76656420717565727920666f72206e6f6e657860008201527f697374656e7420746f6b656e0000000000000000000000000000000000000000602082015250565b7f4f776e61626c653a2063616c6c6572206973206e6f7420746865206f776e6572600082015250565b7f4552433732313a207472616e73666572206f6620746f6b656e2074686174206960008201527f73206e6f74206f776e0000000000000000000000000000000000000000000000602082015250565b7f4552433732314d657461646174613a2055524920717565727920666f72206e6f60008201527f6e6578697374656e7420746f6b656e0000000000000000000000000000000000602082015250565b7f596f752063616e6e6f74206d696e74206d6f7265207468616e20656c6967696260008201527f6c65000000000000000000000000000000000000000000000000000000000000602082015250565b7f4552433732313a20617070726f76616c20746f2063757272656e74206f776e6560008201527f7200000000000000000000000000000000000000000000000000000000000000602082015250565b7f696e53756666696369656e742046756e64730000000000000000000000000000600082015250565b7f596f752063616e6e6f74206d696e74206d6f7265207468616e20746865206d6160008201527f78204e465420616c6c6f77656400000000000000000000000000000000000000602082015250565b7f4552433732313a207472616e736665722063616c6c6572206973206e6f74206f60008201527f776e6572206e6f7220617070726f766564000000000000000000000000000000602082015250565b7f596f7520617265206e6f7420656c696769626c6520666f722070726573616c65600082015250565b7f5265656e7472616e637947756172643a207265656e7472616e742063616c6c00600082015250565b61523d8161495c565b811461524857600080fd5b50565b6152548161496e565b811461525f57600080fd5b50565b61526b8161497a565b811461527657600080fd5b50565b61528281614984565b811461528d57600080fd5b50565b615299816149d0565b81146152a457600080fd5b5056fea2646970667358221220170750769b56cac788188efbc0c08a6d6d69e6c9bb24490458c06921b307fd4964736f6c63430008040033",
  "linkReferences": {},
  "deployedLinkReferences": {}
}