{
  "_format": "hh-sol-artifact-1",
  "contractName": "FusionsByGarvenLabs",
  "sourceName": "contracts/FusionsByGarvenLabs.sol",
  "abi": [
    {
      "inputs": [
        {
          "internalType": "string",
          "name": "name",
          "type": "string"
        },
        {
          "internalType": "string",
          "name": "symbol",
          "type": "string"
        },
        {
          "internalType": "string",
          "name": "initRevealedURI",
          "type": "string"
        }
      ],
      "stateMutability": "nonpayable",
      "type": "constructor"
    },
    {
      "anonymous": false,
      "inputs": [
        {
          "indexed": true,
          "internalType": "address",
          "name": "owner",
          "type": "address"
        },
        {
          "indexed": true,
          "internalType": "address",
          "name": "approved",
          "type": "address"
        },
        {
          "indexed": true,
          "internalType": "uint256",
          "name": "tokenId",
          "type": "uint256"
        }
      ],
      "name": "Approval",
      "type": "event"
    },
    {
      "anonymous": false,
      "inputs": [
        {
          "indexed": true,
          "internalType": "address",
          "name": "owner",
          "type": "address"
        },
        {
          "indexed": true,
          "internalType": "address",
          "name": "operator",
          "type": "address"
        },
        {
          "indexed": false,
          "internalType": "bool",
          "name": "approved",
          "type": "bool"
        }
      ],
      "name": "ApprovalForAll",
      "type": "event"
    },
    {
      "anonymous": false,
      "inputs": [
        {
          "indexed": true,
          "internalType": "address",
          "name": "previousOwner",
          "type": "address"
        },
        {
          "indexed": true,
          "internalType": "address",
          "name": "newOwner",
          "type": "address"
        }
      ],
      "name": "OwnershipTransferred",
      "type": "event"
    },
    {
      "anonymous": false,
      "inputs": [
        {
          "indexed": false,
          "internalType": "address",
          "name": "account",
          "type": "address"
        }
      ],
      "name": "Paused",
      "type": "event"
    },
    {
      "anonymous": false,
      "inputs": [
        {
          "indexed": true,
          "internalType": "address",
          "name": "from",
          "type": "address"
        },
        {
          "indexed": true,
          "internalType": "address",
          "name": "to",
          "type": "address"
        },
        {
          "indexed": true,
          "internalType": "uint256",
          "name": "tokenId",
          "type": "uint256"
        }
      ],
      "name": "Transfer",
      "type": "event"
    },
    {
      "anonymous": false,
      "inputs": [
        {
          "indexed": false,
          "internalType": "address",
          "name": "account",
          "type": "address"
        }
      ],
      "name": "Unpaused",
      "type": "event"
    },
    {
      "anonymous": false,
      "inputs": [
        {
          "indexed": false,
          "internalType": "bool",
          "name": "status",
          "type": "bool"
        },
        {
          "indexed": false,
          "internalType": "address",
          "name": "_address",
          "type": "address"
        }
      ],
      "name": "VStatus",
      "type": "event"
    },
    {
      "inputs": [
        {
          "internalType": "address",
          "name": "to",
          "type": "address"
        },
        {
          "internalType": "uint256",
          "name": "tokenId",
          "type": "uint256"
        }
      ],
      "name": "approve",
      "outputs": [],
      "stateMutability": "nonpayable",
      "type": "function"
    },
    {
      "inputs": [
        {
          "internalType": "address",
          "name": "owner",
          "type": "address"
        }
      ],
      "name": "balanceOf",
      "outputs": [
        {
          "internalType": "uint256",
          "name": "",
          "type": "uint256"
        }
      ],
      "stateMutability": "view",
      "type": "function"
    },
    {
      "inputs": [],
      "name": "baseExtension",
      "outputs": [
        {
          "internalType": "string",
          "name": "",
          "type": "string"
        }
      ],
      "stateMutability": "view",
      "type": "function"
    },
    {
      "inputs": [],
      "name": "baseURI",
      "outputs": [
        {
          "internalType": "string",
          "name": "",
          "type": "string"
        }
      ],
      "stateMutability": "view",
      "type": "function"
    },
    {
      "inputs": [
        {
          "internalType": "uint256",
          "name": "tokenId",
          "type": "uint256"
        }
      ],
      "name": "getApproved",
      "outputs": [
        {
          "internalType": "address",
          "name": "",
          "type": "address"
        }
      ],
      "stateMutability": "view",
      "type": "function"
    },
    {
      "inputs": [
        {
          "internalType": "address",
          "name": "",
          "type": "address"
        }
      ],
      "name": "isAllowedToMintInPresale",
      "outputs": [
        {
          "internalType": "uint256",
          "name": "",
          "type": "uint256"
        }
      ],
      "stateMutability": "view",
      "type": "function"
    },
    {
      "inputs": [
        {
          "internalType": "address",
          "name": "owner",
          "type": "address"
        },
        {
          "internalType": "address",
          "name": "operator",
          "type": "address"
        }
      ],
      "name": "isApprovedForAll",
      "outputs": [
        {
          "internalType": "bool",
          "name": "",
          "type": "bool"
        }
      ],
      "stateMutability": "view",
      "type": "function"
    },
    {
      "inputs": [],
      "name": "isRevealed",
      "outputs": [
        {
          "internalType": "bool",
          "name": "",
          "type": "bool"
        }
      ],
      "stateMutability": "view",
      "type": "function"
    },
    {
      "inputs": [
        {
          "internalType": "address",
          "name": "",
          "type": "address"
        }
      ],
      "name": "isVerified",
      "outputs": [
        {
          "internalType": "bool",
          "name": "",
          "type": "bool"
        }
      ],
      "stateMutability": "view",
      "type": "function"
    },
    {
      "inputs": [
        {
          "internalType": "address",
          "name": "",
          "type": "address"
        }
      ],
      "name": "maxMintable",
      "outputs": [
        {
          "internalType": "uint256",
          "name": "",
          "type": "uint256"
        }
      ],
      "stateMutability": "view",
      "type": "function"
    },
    {
      "inputs": [],
      "name": "maxPublicAmount",
      "outputs": [
        {
          "internalType": "uint256",
          "name": "",
          "type": "uint256"
        }
      ],
      "stateMutability": "view",
      "type": "function"
    },
    {
      "inputs": [],
      "name": "maxSupply",
      "outputs": [
        {
          "internalType": "uint256",
          "name": "",
          "type": "uint256"
        }
      ],
      "stateMutability": "view",
      "type": "function"
    },
    {
      "inputs": [
        {
          "internalType": "uint256",
          "name": "mintAmount",
          "type": "uint256"
        }
      ],
      "name": "mint",
      "outputs": [],
      "stateMutability": "payable",
      "type": "function"
    },
    {
      "inputs": [],
      "name": "name",
      "outputs": [
        {
          "internalType": "string",
          "name": "",
          "type": "string"
        }
      ],
      "stateMutability": "view",
      "type": "function"
    },
    {
      "inputs": [],
      "name": "notRevealedUri",
      "outputs": [
        {
          "internalType": "string",
          "name": "",
          "type": "string"
        }
      ],
      "stateMutability": "view",
      "type": "function"
    },
    {
      "inputs": [],
      "name": "owner",
      "outputs": [
        {
          "internalType": "address",
          "name": "",
          "type": "address"
        }
      ],
      "stateMutability": "view",
      "type": "function"
    },
    {
      "inputs": [
        {
          "internalType": "uint256",
          "name": "tokenId",
          "type": "uint256"
        }
      ],
      "name": "ownerOf",
      "outputs": [
        {
          "internalType": "address",
          "name": "",
          "type": "address"
        }
      ],
      "stateMutability": "view",
      "type": "function"
    },
    {
      "inputs": [],
      "name": "pause",
      "outputs": [
        {
          "internalType": "bool",
          "name": "",
          "type": "bool"
        }
      ],
      "stateMutability": "nonpayable",
      "type": "function"
    },
    {
      "inputs": [],
      "name": "paused",
      "outputs": [
        {
          "internalType": "bool",
          "name": "",
          "type": "bool"
        }
      ],
      "stateMutability": "view",
      "type": "function"
    },
    {
      "inputs": [
        {
          "internalType": "address",
          "name": "",
          "type": "address"
        }
      ],
      "name": "preSaleMaxMintAmount",
      "outputs": [
        {
          "internalType": "uint256",
          "name": "",
          "type": "uint256"
        }
      ],
      "stateMutability": "view",
      "type": "function"
    },
    {
      "inputs": [],
      "name": "presale",
      "outputs": [
        {
          "internalType": "bool",
          "name": "",
          "type": "bool"
        }
      ],
      "stateMutability": "view",
      "type": "function"
    },
    {
      "inputs": [
        {
          "internalType": "address",
          "name": "",
          "type": "address"
        }
      ],
      "name": "presaleMinted",
      "outputs": [
        {
          "internalType": "uint256",
          "name": "",
          "type": "uint256"
        }
      ],
      "stateMutability": "view",
      "type": "function"
    },
    {
      "inputs": [],
      "name": "presalePrice",
      "outputs": [
        {
          "internalType": "uint256",
          "name": "",
          "type": "uint256"
        }
      ],
      "stateMutability": "view",
      "type": "function"
    },
    {
      "inputs": [],
      "name": "price",
      "outputs": [
        {
          "internalType": "uint256",
          "name": "",
          "type": "uint256"
        }
      ],
      "stateMutability": "view",
      "type": "function"
    },
    {
      "inputs": [],
      "name": "renounceOwnership",
      "outputs": [],
      "stateMutability": "nonpayable",
      "type": "function"
    },
    {
      "inputs": [
        {
          "internalType": "address",
          "name": "from",
          "type": "address"
        },
        {
          "internalType": "address",
          "name": "to",
          "type": "address"
        },
        {
          "internalType": "uint256",
          "name": "tokenId",
          "type": "uint256"
        }
      ],
      "name": "safeTransferFrom",
      "outputs": [],
      "stateMutability": "nonpayable",
      "type": "function"
    },
    {
      "inputs": [
        {
          "internalType": "address",
          "name": "from",
          "type": "address"
        },
        {
          "internalType": "address",
          "name": "to",
          "type": "address"
        },
        {
          "internalType": "uint256",
          "name": "tokenId",
          "type": "uint256"
        },
        {
          "internalType": "bytes",
          "name": "_data",
          "type": "bytes"
        }
      ],
      "name": "safeTransferFrom",
      "outputs": [],
      "stateMutability": "nonpayable",
      "type": "function"
    },
    {
      "inputs": [
        {
          "internalType": "address",
          "name": "operator",
          "type": "address"
        },
        {
          "internalType": "bool",
          "name": "approved",
          "type": "bool"
        }
      ],
      "name": "setApprovalForAll",
      "outputs": [],
      "stateMutability": "nonpayable",
      "type": "function"
    },
    {
      "inputs": [
        {
          "internalType": "string",
          "name": "_newBaseURI",
          "type": "string"
        }
      ],
      "name": "setBaseURI",
      "outputs": [],
      "stateMutability": "nonpayable",
      "type": "function"
    },
    {
      "inputs": [
        {
          "internalType": "uint256",
          "name": "amount",
          "type": "uint256"
        }
      ],
      "name": "setMaxPublicSale",
      "outputs": [
        {
          "internalType": "bool",
          "name": "",
          "type": "bool"
        }
      ],
      "stateMutability": "nonpayable",
      "type": "function"
    },
    {
      "inputs": [
        {
          "internalType": "uint256",
          "name": "_maxSupply",
          "type": "uint256"
        }
      ],
      "name": "setMaxSupply",
      "outputs": [
        {
          "internalType": "bool",
          "name": "",
          "type": "bool"
        }
      ],
      "stateMutability": "nonpayable",
      "type": "function"
    },
    {
      "inputs": [
        {
          "internalType": "uint256",
          "name": "_price",
          "type": "uint256"
        }
      ],
      "name": "setPresalePrice",
      "outputs": [
        {
          "internalType": "bool",
          "name": "",
          "type": "bool"
        }
      ],
      "stateMutability": "nonpayable",
      "type": "function"
    },
    {
      "inputs": [
        {
          "internalType": "uint256",
          "name": "_newPrice",
          "type": "uint256"
        }
      ],
      "name": "setPrice",
      "outputs": [
        {
          "internalType": "bool",
          "name": "",
          "type": "bool"
        }
      ],
      "stateMutability": "nonpayable",
      "type": "function"
    },
    {
      "inputs": [
        {
          "internalType": "bytes32",
          "name": "newRoot",
          "type": "bytes32"
        }
      ],
      "name": "setRoot",
      "outputs": [
        {
          "internalType": "bool",
          "name": "",
          "type": "bool"
        }
      ],
      "stateMutability": "nonpayable",
      "type": "function"
    },
    {
      "inputs": [],
      "name": "startPresale",
      "outputs": [
        {
          "internalType": "bool",
          "name": "",
          "type": "bool"
        }
      ],
      "stateMutability": "nonpayable",
      "type": "function"
    },
    {
      "inputs": [],
      "name": "stopPresale",
      "outputs": [
        {
          "internalType": "bool",
          "name": "",
          "type": "bool"
        }
      ],
      "stateMutability": "nonpayable",
      "type": "function"
    },
    {
      "inputs": [
        {
          "internalType": "bytes4",
          "name": "interfaceId",
          "type": "bytes4"
        }
      ],
      "name": "supportsInterface",
      "outputs": [
        {
          "internalType": "bool",
          "name": "",
          "type": "bool"
        }
      ],
      "stateMutability": "view",
      "type": "function"
    },
    {
      "inputs": [],
      "name": "symbol",
      "outputs": [
        {
          "internalType": "string",
          "name": "",
          "type": "string"
        }
      ],
      "stateMutability": "view",
      "type": "function"
    },
    {
      "inputs": [
        {
          "internalType": "uint256",
          "name": "index",
          "type": "uint256"
        }
      ],
      "name": "tokenByIndex",
      "outputs": [
        {
          "internalType": "uint256",
          "name": "",
          "type": "uint256"
        }
      ],
      "stateMutability": "view",
      "type": "function"
    },
    {
      "inputs": [
        {
          "internalType": "address",
          "name": "owner",
          "type": "address"
        },
        {
          "internalType": "uint256",
          "name": "index",
          "type": "uint256"
        }
      ],
      "name": "tokenOfOwnerByIndex",
      "outputs": [
        {
          "internalType": "uint256",
          "name": "",
          "type": "uint256"
        }
      ],
      "stateMutability": "view",
      "type": "function"
    },
    {
      "inputs": [
        {
          "internalType": "uint256",
          "name": "tokenId",
          "type": "uint256"
        }
      ],
      "name": "tokenURI",
      "outputs": [
        {
          "internalType": "string",
          "name": "",
          "type": "string"
        }
      ],
      "stateMutability": "view",
      "type": "function"
    },
    {
      "inputs": [],
      "name": "totalMinted",
      "outputs": [
        {
          "internalType": "uint256",
          "name": "",
          "type": "uint256"
        }
      ],
      "stateMutability": "view",
      "type": "function"
    },
    {
      "inputs": [],
      "name": "totalSupply",
      "outputs": [
        {
          "internalType": "uint256",
          "name": "",
          "type": "uint256"
        }
      ],
      "stateMutability": "view",
      "type": "function"
    },
    {
      "inputs": [
        {
          "internalType": "address",
          "name": "from",
          "type": "address"
        },
        {
          "internalType": "address",
          "name": "to",
          "type": "address"
        },
        {
          "internalType": "uint256",
          "name": "tokenId",
          "type": "uint256"
        }
      ],
      "name": "transferFrom",
      "outputs": [],
      "stateMutability": "nonpayable",
      "type": "function"
    },
    {
      "inputs": [
        {
          "internalType": "address",
          "name": "newOwner",
          "type": "address"
        }
      ],
      "name": "transferOwnership",
      "outputs": [],
      "stateMutability": "nonpayable",
      "type": "function"
    },
    {
      "inputs": [],
      "name": "unPaused",
      "outputs": [
        {
          "internalType": "bool",
          "name": "",
          "type": "bool"
        }
      ],
      "stateMutability": "nonpayable",
      "type": "function"
    },
    {
      "inputs": [
        {
          "internalType": "bytes32[]",
          "name": "proof",
          "type": "bytes32[]"
        },
        {
          "internalType": "uint256",
          "name": "maxMintAmount",
          "type": "uint256"
        }
      ],
      "name": "verification",
      "outputs": [
        {
          "internalType": "bool",
          "name": "",
          "type": "bool"
        }
      ],
      "stateMutability": "nonpayable",
      "type": "function"
    },
    {
      "inputs": [],
      "name": "viewRoot",
      "outputs": [
        {
          "internalType": "bytes32",
          "name": "",
          "type": "bytes32"
        }
      ],
      "stateMutability": "view",
      "type": "function"
    },
    {
      "inputs": [
        {
          "internalType": "address[]",
          "name": "_address",
          "type": "address[]"
        }
      ],
      "name": "whiteListAddress",
      "outputs": [
        {
          "internalType": "bool",
          "name": "",
          "type": "bool"
        }
      ],
      "stateMutability": "nonpayable",
      "type": "function"
    },
    {
      "inputs": [],
      "name": "withdraw",
      "outputs": [
        {
          "internalType": "bool",
          "name": "",
          "type": "bool"
        }
      ],
      "stateMutability": "nonpayable",
      "type": "function"
    }
  ],
  "bytecode": "0x60806040526040518060400160405280600581526020017f2e6a736f6e000000000000000000000000000000000000000000000000000000815250600d90805190602001906200005192919062000ecf565b507f3af020aab4e27a80329d7f7a7616a8c69b2317e8222e6211c2e495322c4a2a8960001b601055611f40601155600a601255668e1bc9bf0400006013553480156200009c57600080fd5b506040516200741f3803806200741f8339818101604052810190620000c2919062001034565b82828160009080519060200190620000dc92919062000ecf565b508060019080519060200190620000f592919062000ecf565b505050620001186200010c620001f360201b60201c565b620001fb60201b60201c565b6000600a60146101000a81548160ff0219169083151502179055506001600b819055506200014c81620002c160201b60201c565b62000163600c6200036c60201b620029c21760201c565b505b60646200017e600c6200036c60201b620029c21760201c565b1015620001d957620001bc62000199620001f360201b60201c565b620001b0600c6200036c60201b620029c21760201c565b6200037a60201b60201c565b620001d3600c620003a060201b620029d01760201c565b62000165565b620001e9620003b660201b60201c565b50505050620016fa565b600033905090565b6000600a60009054906101000a900473ffffffffffffffffffffffffffffffffffffffff16905081600a60006101000a81548173ffffffffffffffffffffffffffffffffffffffff021916908373ffffffffffffffffffffffffffffffffffffffff1602179055508173ffffffffffffffffffffffffffffffffffffffff168173ffffffffffffffffffffffffffffffffffffffff167f8be0079c531659141344cd1fd0a4f28419497f9722a3daafe3b4186f6b6457e060405160405180910390a35050565b620002d1620001f360201b60201c565b73ffffffffffffffffffffffffffffffffffffffff16620002f76200047760201b60201c565b73ffffffffffffffffffffffffffffffffffffffff161462000350576040517f08c379a00000000000000000000000000000000000000000000000000000000081526004016200034790620012d7565b60405180910390fd5b80600e90805190602001906200036892919062000ecf565b5050565b600081600001549050919050565b6200039c828260405180602001604052806000815250620004a160201b60201c565b5050565b6001816000016000828254019250508190555050565b6000620003c8620001f360201b60201c565b73ffffffffffffffffffffffffffffffffffffffff16620003ee6200047760201b60201c565b73ffffffffffffffffffffffffffffffffffffffff161462000447576040517f08c379a00000000000000000000000000000000000000000000000000000000081526004016200043e90620012d7565b60405180910390fd5b6001601560006101000a81548160ff021916908315150217905550601560009054906101000a900460ff16905090565b6000600a60009054906101000a900473ffffffffffffffffffffffffffffffffffffffff16905090565b620004b383836200050f60201b60201c565b620004c86000848484620006f560201b60201c565b6200050a576040517f08c379a000000000000000000000000000000000000000000000000000000000815260040162000501906200124f565b60405180910390fd5b505050565b600073ffffffffffffffffffffffffffffffffffffffff168273ffffffffffffffffffffffffffffffffffffffff16141562000582576040517f08c379a00000000000000000000000000000000000000000000000000000000081526004016200057990620012b5565b60405180910390fd5b6200059381620008af60201b60201c565b15620005d6576040517f08c379a0000000000000000000000000000000000000000000000000000000008152600401620005cd9062001271565b60405180910390fd5b620005ea600083836200091b60201b60201c565b6001600360008473ffffffffffffffffffffffffffffffffffffffff1673ffffffffffffffffffffffffffffffffffffffff16815260200190815260200160002060008282546200063c919062001385565b92505081905550816002600083815260200190815260200160002060006101000a81548173ffffffffffffffffffffffffffffffffffffffff021916908373ffffffffffffffffffffffffffffffffffffffff160217905550808273ffffffffffffffffffffffffffffffffffffffff16600073ffffffffffffffffffffffffffffffffffffffff167fddf252ad1be2c89b69c2b068fc378daa952ba7f163c4a11628f55a4df523b3ef60405160405180910390a45050565b6000620007238473ffffffffffffffffffffffffffffffffffffffff1662000a6260201b620029e61760201c565b15620008a2578373ffffffffffffffffffffffffffffffffffffffff1663150b7a0262000755620001f360201b60201c565b8786866040518563ffffffff1660e01b8152600401620007799493929190620011fb565b602060405180830381600087803b1580156200079457600080fd5b505af1925050508015620007c857506040513d601f19601f82011682018060405250810190620007c5919062001008565b60015b62000851573d8060008114620007fb576040519150601f19603f3d011682016040523d82523d6000602084013e62000800565b606091505b5060008151141562000849576040517f08c379a000000000000000000000000000000000000000000000000000000000815260040162000840906200124f565b60405180910390fd5b805181602001fd5b63150b7a0260e01b7bffffffffffffffffffffffffffffffffffffffffffffffffffffffff1916817bffffffffffffffffffffffffffffffffffffffffffffffffffffffff191614915050620008a7565b600190505b949350505050565b60008073ffffffffffffffffffffffffffffffffffffffff166002600084815260200190815260200160002060009054906101000a900473ffffffffffffffffffffffffffffffffffffffff1673ffffffffffffffffffffffffffffffffffffffff1614159050919050565b6200093383838362000a7560201b620029f91760201c565b600073ffffffffffffffffffffffffffffffffffffffff168373ffffffffffffffffffffffffffffffffffffffff16141562000980576200097a8162000a7a60201b60201c565b620009c8565b8173ffffffffffffffffffffffffffffffffffffffff168373ffffffffffffffffffffffffffffffffffffffff1614620009c757620009c6838262000ac360201b60201c565b5b5b600073ffffffffffffffffffffffffffffffffffffffff168273ffffffffffffffffffffffffffffffffffffffff16141562000a155762000a0f8162000c4060201b60201c565b62000a5d565b8273ffffffffffffffffffffffffffffffffffffffff168273ffffffffffffffffffffffffffffffffffffffff161462000a5c5762000a5b828262000d8860201b60201c565b5b5b505050565b600080823b905060008111915050919050565b505050565b6008805490506009600083815260200190815260200160002081905550600881908060018154018082558091505060019003906000526020600020016000909190919091505550565b6000600162000add8462000e1460201b62001b431760201c565b62000ae99190620013e2565b905060006007600084815260200190815260200160002054905081811462000bcf576000600660008673ffffffffffffffffffffffffffffffffffffffff1673ffffffffffffffffffffffffffffffffffffffff168152602001908152602001600020600084815260200190815260200160002054905080600660008773ffffffffffffffffffffffffffffffffffffffff1673ffffffffffffffffffffffffffffffffffffffff168152602001908152602001600020600084815260200190815260200160002081905550816007600083815260200190815260200160002081905550505b6007600084815260200190815260200160002060009055600660008573ffffffffffffffffffffffffffffffffffffffff1673ffffffffffffffffffffffffffffffffffffffff16815260200190815260200160002060008381526020019081526020016000206000905550505050565b6000600160088054905062000c569190620013e2565b905060006009600084815260200190815260200160002054905060006008838154811062000cad577f4e487b7100000000000000000000000000000000000000000000000000000000600052603260045260246000fd5b90600052602060002001549050806008838154811062000cf6577f4e487b7100000000000000000000000000000000000000000000000000000000600052603260045260246000fd5b90600052602060002001819055508160096000838152602001908152602001600020819055506009600085815260200190815260200160002060009055600880548062000d6c577f4e487b7100000000000000000000000000000000000000000000000000000000600052603160045260246000fd5b6001900381819060005260206000200160009055905550505050565b600062000da08362000e1460201b62001b431760201c565b905081600660008573ffffffffffffffffffffffffffffffffffffffff1673ffffffffffffffffffffffffffffffffffffffff168152602001908152602001600020600083815260200190815260200160002081905550806007600084815260200190815260200160002081905550505050565b60008073ffffffffffffffffffffffffffffffffffffffff168273ffffffffffffffffffffffffffffffffffffffff16141562000e88576040517f08c379a000000000000000000000000000000000000000000000000000000000815260040162000e7f9062001293565b60405180910390fd5b600360008373ffffffffffffffffffffffffffffffffffffffff1673ffffffffffffffffffffffffffffffffffffffff168152602001908152602001600020549050919050565b82805462000edd90620014bd565b90600052602060002090601f01602090048101928262000f01576000855562000f4d565b82601f1062000f1c57805160ff191683800117855562000f4d565b8280016001018555821562000f4d579182015b8281111562000f4c57825182559160200191906001019062000f2f565b5b50905062000f5c919062000f60565b5090565b5b8082111562000f7b57600081600090555060010162000f61565b5090565b600062000f9662000f908462001322565b620012f9565b90508281526020810184848401111562000faf57600080fd5b62000fbc84828562001487565b509392505050565b60008151905062000fd581620016e0565b92915050565b600082601f83011262000fed57600080fd5b815162000fff84826020860162000f7f565b91505092915050565b6000602082840312156200101b57600080fd5b60006200102b8482850162000fc4565b91505092915050565b6000806000606084860312156200104a57600080fd5b600084015167ffffffffffffffff8111156200106557600080fd5b620010738682870162000fdb565b935050602084015167ffffffffffffffff8111156200109157600080fd5b6200109f8682870162000fdb565b925050604084015167ffffffffffffffff811115620010bd57600080fd5b620010cb8682870162000fdb565b9150509250925092565b620010e0816200141d565b82525050565b6000620010f38262001358565b620010ff818562001363565b93506200111181856020860162001487565b6200111c81620015b6565b840191505092915050565b60006200113660328362001374565b91506200114382620015c7565b604082019050919050565b60006200115d601c8362001374565b91506200116a8262001616565b602082019050919050565b600062001184602a8362001374565b915062001191826200163f565b604082019050919050565b6000620011ab60208362001374565b9150620011b8826200168e565b602082019050919050565b6000620011d260208362001374565b9150620011df82620016b7565b602082019050919050565b620011f5816200147d565b82525050565b6000608082019050620012126000830187620010d5565b620012216020830186620010d5565b620012306040830185620011ea565b8181036060830152620012448184620010e6565b905095945050505050565b600060208201905081810360008301526200126a8162001127565b9050919050565b600060208201905081810360008301526200128c816200114e565b9050919050565b60006020820190508181036000830152620012ae8162001175565b9050919050565b60006020820190508181036000830152620012d0816200119c565b9050919050565b60006020820190508181036000830152620012f281620011c3565b9050919050565b60006200130562001318565b9050620013138282620014f3565b919050565b6000604051905090565b600067ffffffffffffffff82111562001340576200133f62001587565b5b6200134b82620015b6565b9050602081019050919050565b600081519050919050565b600082825260208201905092915050565b600082825260208201905092915050565b600062001392826200147d565b91506200139f836200147d565b9250827fffffffffffffffffffffffffffffffffffffffffffffffffffffffffffffffff03821115620013d757620013d662001529565b5b828201905092915050565b6000620013ef826200147d565b9150620013fc836200147d565b92508282101562001412576200141162001529565b5b828203905092915050565b60006200142a826200145d565b9050919050565b60007fffffffff0000000000000000000000000000000000000000000000000000000082169050919050565b600073ffffffffffffffffffffffffffffffffffffffff82169050919050565b6000819050919050565b60005b83811015620014a75780820151818401526020810190506200148a565b83811115620014b7576000848401525b50505050565b60006002820490506001821680620014d657607f821691505b60208210811415620014ed57620014ec62001558565b5b50919050565b620014fe82620015b6565b810181811067ffffffffffffffff8211171562001520576200151f62001587565b5b80604052505050565b7f4e487b7100000000000000000000000000000000000000000000000000000000600052601160045260246000fd5b7f4e487b7100000000000000000000000000000000000000000000000000000000600052602260045260246000fd5b7f4e487b7100000000000000000000000000000000000000000000000000000000600052604160045260246000fd5b6000601f19601f8301169050919050565b7f4552433732313a207472616e7366657220746f206e6f6e20455243373231526560008201527f63656976657220696d706c656d656e7465720000000000000000000000000000602082015250565b7f4552433732313a20746f6b656e20616c7265616479206d696e74656400000000600082015250565b7f4552433732313a2062616c616e636520717565727920666f7220746865207a6560008201527f726f206164647265737300000000000000000000000000000000000000000000602082015250565b7f4552433732313a206d696e7420746f20746865207a65726f2061646472657373600082015250565b7f4f776e61626c653a2063616c6c6572206973206e6f7420746865206f776e6572600082015250565b620016eb8162001431565b8114620016f757600080fd5b50565b615d15806200170a6000396000f3fe6080604052600436106102c85760003560e01c80636c0360eb11610175578063a22cb465116100dc578063c668286211610095578063dab5f3401161006f578063dab5f34014610b9c578063e985e9c514610bd9578063f2fde38b14610c16578063fdea8e0b14610c3f576102c8565b8063c668286214610b09578063c87b56dd14610b34578063d5abeb0114610b71576102c8565b8063a22cb465146109e7578063a2309ff814610a10578063b2bf781314610a3b578063b88d4fde14610a66578063b9209e3314610a8f578063bc660cac14610acc576102c8565b80638456cb591161012e5780638456cb59146108e25780638da5cb5b1461090d57806391b7f5ed1461093857806395d89b4114610975578063a035b1fe146109a0578063a0712d68146109cb576102c8565b80636c0360eb146107be5780636f8b44b0146107e957806370a0823114610826578063715018a6146108635780637dfdd6871461087a578063805e0b20146108a5576102c8565b806323b872dd116102345780634e41cfdb116101ed57806355f804b3116101c757806355f804b3146106f05780635c975abb146107195780635ed88ecf146107445780636352211e14610781576102c8565b80634e41cfdb1461064b5780634f6ccce71461068857806354214f69146106c5576102c8565b806323b872dd146105175780632f745c59146105405780633549345e1461057d5780633ccfd60b146105ba57806342842e0e146105e55780634d0ab1001461060e576102c8565b8063081812fc11610286578063081812fc146103f3578063081c8c4414610430578063095ea7b31461045b5780630b24bb231461048457806318160ddd146104c15780631ad2ad1a146104ec576102c8565b80620e7fa8146102cd57806301ffc9a7146102f857806304c98b2b14610335578063061a46a91461036057806306cc64fa1461038b57806306fdde03146103c8575b600080fd5b3480156102d957600080fd5b506102e2610c6a565b6040516102ef919061505e565b60405180910390f35b34801561030457600080fd5b5061031f600480360381019061031a9190614562565b610c70565b60405161032c9190614c5d565b60405180910390f35b34801561034157600080fd5b5061034a610cea565b6040516103579190614c5d565b60405180910390f35b34801561036c57600080fd5b50610375610d98565b6040516103829190614c5d565b60405180910390f35b34801561039757600080fd5b506103b260048036038101906103ad91906144e5565b610e25565b6040516103bf9190614c5d565b60405180910390f35b3480156103d457600080fd5b506103dd611014565b6040516103ea9190614cbc565b60405180910390f35b3480156103ff57600080fd5b5061041a600480360381019061041591906145f5565b6110a6565b6040516104279190614bf6565b60405180910390f35b34801561043c57600080fd5b5061044561112b565b6040516104529190614cbc565b60405180910390f35b34801561046757600080fd5b50610482600480360381019061047d9190614468565b6111b9565b005b34801561049057600080fd5b506104ab60048036038101906104a691906142fd565b6112d1565b6040516104b8919061505e565b60405180910390f35b3480156104cd57600080fd5b506104d66112e9565b6040516104e3919061505e565b60405180910390f35b3480156104f857600080fd5b506105016112f6565b60405161050e9190614c5d565b60405180910390f35b34801561052357600080fd5b5061053e60048036038101906105399190614362565b6113a4565b005b34801561054c57600080fd5b5061056760048036038101906105629190614468565b611404565b604051610574919061505e565b60405180910390f35b34801561058957600080fd5b506105a4600480360381019061059f91906145f5565b6114a9565b6040516105b19190614c5d565b60405180910390f35b3480156105c657600080fd5b506105cf611537565b6040516105dc9190614c5d565b60405180910390f35b3480156105f157600080fd5b5061060c60048036038101906106079190614362565b611609565b005b34801561061a57600080fd5b50610635600480360381019061063091906142fd565b611629565b604051610642919061505e565b60405180910390f35b34801561065757600080fd5b50610672600480360381019061066d91906144a4565b611641565b60405161067f9190614c5d565b60405180910390f35b34801561069457600080fd5b506106af60048036038101906106aa91906145f5565b611806565b6040516106bc919061505e565b60405180910390f35b3480156106d157600080fd5b506106da61189d565b6040516106e79190614c5d565b60405180910390f35b3480156106fc57600080fd5b50610717600480360381019061071291906145b4565b6118b0565b005b34801561072557600080fd5b5061072e611946565b60405161073b9190614c5d565b60405180910390f35b34801561075057600080fd5b5061076b600480360381019061076691906142fd565b61195d565b604051610778919061505e565b60405180910390f35b34801561078d57600080fd5b506107a860048036038101906107a391906145f5565b611975565b6040516107b59190614bf6565b60405180910390f35b3480156107ca57600080fd5b506107d3611a27565b6040516107e09190614cbc565b60405180910390f35b3480156107f557600080fd5b50610810600480360381019061080b91906145f5565b611ab5565b60405161081d9190614c5d565b60405180910390f35b34801561083257600080fd5b5061084d600480360381019061084891906142fd565b611b43565b60405161085a919061505e565b60405180910390f35b34801561086f57600080fd5b50610878611bfb565b005b34801561088657600080fd5b5061088f611c83565b60405161089c9190614ca1565b60405180910390f35b3480156108b157600080fd5b506108cc60048036038101906108c791906145f5565b611d09565b6040516108d99190614c5d565b60405180910390f35b3480156108ee57600080fd5b506108f7611d97565b6040516109049190614c5d565b60405180910390f35b34801561091957600080fd5b50610922611e24565b60405161092f9190614bf6565b60405180910390f35b34801561094457600080fd5b5061095f600480360381019061095a91906145f5565b611e4e565b60405161096c9190614c5d565b60405180910390f35b34801561098157600080fd5b5061098a611edc565b6040516109979190614cbc565b60405180910390f35b3480156109ac57600080fd5b506109b5611f6e565b6040516109c2919061505e565b60405180910390f35b6109e560048036038101906109e091906145f5565b611f74565b005b3480156109f357600080fd5b50610a0e6004803603810190610a09919061442c565b612590565b005b348015610a1c57600080fd5b50610a256125a6565b604051610a32919061505e565b60405180910390f35b348015610a4757600080fd5b50610a506125b7565b604051610a5d919061505e565b60405180910390f35b348015610a7257600080fd5b50610a8d6004803603810190610a8891906143b1565b6125bd565b005b348015610a9b57600080fd5b50610ab66004803603810190610ab191906142fd565b61261f565b604051610ac39190614c5d565b60405180910390f35b348015610ad857600080fd5b50610af36004803603810190610aee91906142fd565b61263f565b604051610b00919061505e565b60405180910390f35b348015610b1557600080fd5b50610b1e612657565b604051610b2b9190614cbc565b60405180910390f35b348015610b4057600080fd5b50610b5b6004803603810190610b5691906145f5565b6126e5565b604051610b689190614cbc565b60405180910390f35b348015610b7d57600080fd5b50610b8661278f565b604051610b93919061505e565b60405180910390f35b348015610ba857600080fd5b50610bc36004803603810190610bbe9190614539565b612795565b604051610bd09190614c5d565b60405180910390f35b348015610be557600080fd5b50610c006004803603810190610bfb9190614326565b612823565b604051610c0d9190614c5d565b60405180910390f35b348015610c2257600080fd5b50610c3d6004803603810190610c3891906142fd565b6128b7565b005b348015610c4b57600080fd5b50610c546129af565b604051610c619190614c5d565b60405180910390f35b60145481565b60007f780e9d63000000000000000000000000000000000000000000000000000000007bffffffffffffffffffffffffffffffffffffffffffffffffffffffff1916827bffffffffffffffffffffffffffffffffffffffffffffffffffffffff19161480610ce35750610ce2826129fe565b5b9050919050565b6000610cf4612ae0565b73ffffffffffffffffffffffffffffffffffffffff16610d12611e24565b73ffffffffffffffffffffffffffffffffffffffff1614610d68576040517f08c379a0000000000000000000000000000000000000000000000000000000008152600401610d5f90614efe565b60405180910390fd5b6001601560006101000a81548160ff021916908315150217905550601560009054906101000a900460ff16905090565b6000610da2612ae0565b73ffffffffffffffffffffffffffffffffffffffff16610dc0611e24565b73ffffffffffffffffffffffffffffffffffffffff1614610e16576040517f08c379a0000000000000000000000000000000000000000000000000000000008152600401610e0d90614efe565b60405180910390fd5b610e1e612ae8565b6001905090565b6000610e2f611946565b15610e6f576040517f08c379a0000000000000000000000000000000000000000000000000000000008152600401610e6690614e1e565b60405180910390fd5b6002600b541415610eb5576040517f08c379a0000000000000000000000000000000000000000000000000000000008152600401610eac9061503e565b60405180910390fd5b6002600b819055506000610ec7612ae0565b604051602001610ed79190614b7e565b6040516020818303038152906040528051906020012090506000610efe8560105484612b8a565b9050610f0981612ba1565b610f1e610f198660105485612b8a565b612ba1565b600115158115151415610fc8576001601660003373ffffffffffffffffffffffffffffffffffffffff1673ffffffffffffffffffffffffffffffffffffffff16815260200190815260200160002060006101000a81548160ff02191690831515021790555083601960003373ffffffffffffffffffffffffffffffffffffffff1673ffffffffffffffffffffffffffffffffffffffff168152602001908152602001600020819055505b7f7367756b6744e408b3eaae8198e1d9929f92453e224ced244d427bd49efc16be8133604051610ff9929190614c78565b60405180910390a180925050506001600b8190555092915050565b60606000805461102390615385565b80601f016020809104026020016040519081016040528092919081815260200182805461104f90615385565b801561109c5780601f106110715761010080835404028352916020019161109c565b820191906000526020600020905b81548152906001019060200180831161107f57829003601f168201915b5050505050905090565b60006110b182612c3a565b6110f0576040517f08c379a00000000000000000000000000000000000000000000000000000000081526004016110e790614ede565b60405180910390fd5b6004600083815260200190815260200160002060009054906101000a900473ffffffffffffffffffffffffffffffffffffffff169050919050565b600f805461113890615385565b80601f016020809104026020016040519081016040528092919081815260200182805461116490615385565b80156111b15780601f10611186576101008083540402835291602001916111b1565b820191906000526020600020905b81548152906001019060200180831161119457829003601f168201915b505050505081565b60006111c482611975565b90508073ffffffffffffffffffffffffffffffffffffffff168373ffffffffffffffffffffffffffffffffffffffff161415611235576040517f08c379a000000000000000000000000000000000000000000000000000000000815260040161122c90614f7e565b60405180910390fd5b8073ffffffffffffffffffffffffffffffffffffffff16611254612ae0565b73ffffffffffffffffffffffffffffffffffffffff16148061128357506112828161127d612ae0565b612823565b5b6112c2576040517f08c379a00000000000000000000000000000000000000000000000000000000081526004016112b990614e3e565b60405180910390fd5b6112cc8383612ca6565b505050565b60176020528060005260406000206000915090505481565b6000600880549050905090565b6000611300612ae0565b73ffffffffffffffffffffffffffffffffffffffff1661131e611e24565b73ffffffffffffffffffffffffffffffffffffffff1614611374576040517f08c379a000000000000000000000000000000000000000000000000000000000815260040161136b90614efe565b60405180910390fd5b6000601560006101000a81548160ff021916908315150217905550601560009054906101000a900460ff16905090565b6113b56113af612ae0565b82612d5f565b6113f4576040517f08c379a00000000000000000000000000000000000000000000000000000000081526004016113eb90614fde565b60405180910390fd5b6113ff838383612e3d565b505050565b600061140f83611b43565b8210611450576040517f08c379a000000000000000000000000000000000000000000000000000000000815260040161144790614d1e565b60405180910390fd5b600660008473ffffffffffffffffffffffffffffffffffffffff1673ffffffffffffffffffffffffffffffffffffffff168152602001908152602001600020600083815260200190815260200160002054905092915050565b60006114b3612ae0565b73ffffffffffffffffffffffffffffffffffffffff166114d1611e24565b73ffffffffffffffffffffffffffffffffffffffff1614611527576040517f08c379a000000000000000000000000000000000000000000000000000000000815260040161151e90614efe565b60405180910390fd5b8160148190555060019050919050565b6000611541612ae0565b73ffffffffffffffffffffffffffffffffffffffff1661155f611e24565b73ffffffffffffffffffffffffffffffffffffffff16146115b5576040517f08c379a00000000000000000000000000000000000000000000000000000000081526004016115ac90614efe565b60405180910390fd5b60004790503373ffffffffffffffffffffffffffffffffffffffff166108fc829081150290604051600060405180830381858888f19350505050158015611600573d6000803e3d6000fd5b50600191505090565b611624838383604051806020016040528060008152506125bd565b505050565b60196020528060005260406000206000915090505481565b600061164b612ae0565b73ffffffffffffffffffffffffffffffffffffffff16611669611e24565b73ffffffffffffffffffffffffffffffffffffffff16146116bf576040517f08c379a00000000000000000000000000000000000000000000000000000000081526004016116b690614efe565b60405180910390fd5b60005b82518110156117fc5760016016600085848151811061170a577f4e487b7100000000000000000000000000000000000000000000000000000000600052603260045260246000fd5b602002602001015173ffffffffffffffffffffffffffffffffffffffff1673ffffffffffffffffffffffffffffffffffffffff16815260200190815260200160002060006101000a81548160ff021916908315150217905550601254601960008584815181106117a3577f4e487b7100000000000000000000000000000000000000000000000000000000600052603260045260246000fd5b602002602001015173ffffffffffffffffffffffffffffffffffffffff1673ffffffffffffffffffffffffffffffffffffffff1681526020019081526020016000208190555080806117f4906153e8565b9150506116c2565b5060019050919050565b60006118106112e9565b8210611851576040517f08c379a000000000000000000000000000000000000000000000000000000000815260040161184890614ffe565b60405180910390fd5b6008828154811061188b577f4e487b7100000000000000000000000000000000000000000000000000000000600052603260045260246000fd5b90600052602060002001549050919050565b601560019054906101000a900460ff1681565b6118b8612ae0565b73ffffffffffffffffffffffffffffffffffffffff166118d6611e24565b73ffffffffffffffffffffffffffffffffffffffff161461192c576040517f08c379a000000000000000000000000000000000000000000000000000000000815260040161192390614efe565b60405180910390fd5b80600e9080519060200190611942929190613fe0565b5050565b6000600a60149054906101000a900460ff16905090565b60186020528060005260406000206000915090505481565b6000806002600084815260200190815260200160002060009054906101000a900473ffffffffffffffffffffffffffffffffffffffff169050600073ffffffffffffffffffffffffffffffffffffffff168173ffffffffffffffffffffffffffffffffffffffff161415611a1e576040517f08c379a0000000000000000000000000000000000000000000000000000000008152600401611a1590614e7e565b60405180910390fd5b80915050919050565b600e8054611a3490615385565b80601f0160208091040260200160405190810160405280929190818152602001828054611a6090615385565b8015611aad5780601f10611a8257610100808354040283529160200191611aad565b820191906000526020600020905b815481529060010190602001808311611a9057829003601f168201915b505050505081565b6000611abf612ae0565b73ffffffffffffffffffffffffffffffffffffffff16611add611e24565b73ffffffffffffffffffffffffffffffffffffffff1614611b33576040517f08c379a0000000000000000000000000000000000000000000000000000000008152600401611b2a90614efe565b60405180910390fd5b8160118190555060019050919050565b60008073ffffffffffffffffffffffffffffffffffffffff168273ffffffffffffffffffffffffffffffffffffffff161415611bb4576040517f08c379a0000000000000000000000000000000000000000000000000000000008152600401611bab90614e5e565b60405180910390fd5b600360008373ffffffffffffffffffffffffffffffffffffffff1673ffffffffffffffffffffffffffffffffffffffff168152602001908152602001600020549050919050565b611c03612ae0565b73ffffffffffffffffffffffffffffffffffffffff16611c21611e24565b73ffffffffffffffffffffffffffffffffffffffff1614611c77576040517f08c379a0000000000000000000000000000000000000000000000000000000008152600401611c6e90614efe565b60405180910390fd5b611c816000613099565b565b6000611c8d612ae0565b73ffffffffffffffffffffffffffffffffffffffff16611cab611e24565b73ffffffffffffffffffffffffffffffffffffffff1614611d01576040517f08c379a0000000000000000000000000000000000000000000000000000000008152600401611cf890614efe565b60405180910390fd5b601054905090565b6000611d13612ae0565b73ffffffffffffffffffffffffffffffffffffffff16611d31611e24565b73ffffffffffffffffffffffffffffffffffffffff1614611d87576040517f08c379a0000000000000000000000000000000000000000000000000000000008152600401611d7e90614efe565b60405180910390fd5b8160128190555060019050919050565b6000611da1612ae0565b73ffffffffffffffffffffffffffffffffffffffff16611dbf611e24565b73ffffffffffffffffffffffffffffffffffffffff1614611e15576040517f08c379a0000000000000000000000000000000000000000000000000000000008152600401611e0c90614efe565b60405180910390fd5b611e1d61315f565b6001905090565b6000600a60009054906101000a900473ffffffffffffffffffffffffffffffffffffffff16905090565b6000611e58612ae0565b73ffffffffffffffffffffffffffffffffffffffff16611e76611e24565b73ffffffffffffffffffffffffffffffffffffffff1614611ecc576040517f08c379a0000000000000000000000000000000000000000000000000000000008152600401611ec390614efe565b60405180910390fd5b8160138190555060019050919050565b606060018054611eeb90615385565b80601f0160208091040260200160405190810160405280929190818152602001828054611f1790615385565b8015611f645780601f10611f3957610100808354040283529160200191611f64565b820191906000526020600020905b815481529060010190602001808311611f4757829003601f168201915b5050505050905090565b60135481565b611f7c611946565b15611fbc576040517f08c379a0000000000000000000000000000000000000000000000000000000008152600401611fb390614e1e565b60405180910390fd5b6002600b541415612002576040517f08c379a0000000000000000000000000000000000000000000000000000000008152600401611ff99061503e565b60405180910390fd5b6002600b81905550601154612017600c6129c2565b1115612058576040517f08c379a000000000000000000000000000000000000000000000000000000000815260040161204f90614d9e565b60405180910390fd5b60011515601560009054906101000a900460ff1615151415612375576000816014546120849190615237565b9050803410156120c9576040517f08c379a00000000000000000000000000000000000000000000000000000000081526004016120c090614f9e565b60405180910390fd5b60011515601660003373ffffffffffffffffffffffffffffffffffffffff1673ffffffffffffffffffffffffffffffffffffffff16815260200190815260200160002060009054906101000a900460ff1615151461215c576040517f08c379a00000000000000000000000000000000000000000000000000000000081526004016121539061501e565b60405180910390fd5b601960003373ffffffffffffffffffffffffffffffffffffffff1673ffffffffffffffffffffffffffffffffffffffff168152602001908152602001600020548211156121de576040517f08c379a00000000000000000000000000000000000000000000000000000000081526004016121d590614e9e565b60405180910390fd5b81601a60003373ffffffffffffffffffffffffffffffffffffffff1673ffffffffffffffffffffffffffffffffffffffff1681526020019081526020016000205461222991906151b0565b601a60003373ffffffffffffffffffffffffffffffffffffffff1673ffffffffffffffffffffffffffffffffffffffff16815260200190815260200160002081905550601960003373ffffffffffffffffffffffffffffffffffffffff1673ffffffffffffffffffffffffffffffffffffffff16815260200190815260200160002054601a60003373ffffffffffffffffffffffffffffffffffffffff1673ffffffffffffffffffffffffffffffffffffffff16815260200190815260200160002054111561232d576040517f08c379a000000000000000000000000000000000000000000000000000000000815260040161232490614f5e565b60405180910390fd5b6000600190505b82811161237257612355612346612ae0565b612350600c6129c2565b613202565b61235f600c6129d0565b808061236a906153e8565b915050612334565b50505b60001515601560009054906101000a900460ff1615151415612585576000816013546123a19190615237565b9050803410156123e6576040517f08c379a00000000000000000000000000000000000000000000000000000000081526004016123dd90614f9e565b60405180910390fd5b60125482111561242b576040517f08c379a000000000000000000000000000000000000000000000000000000000815260040161242290614cde565b60405180910390fd5b81601860003373ffffffffffffffffffffffffffffffffffffffff1673ffffffffffffffffffffffffffffffffffffffff1681526020019081526020016000205461247691906151b0565b601860003373ffffffffffffffffffffffffffffffffffffffff1673ffffffffffffffffffffffffffffffffffffffff16815260200190815260200160002081905550601254601860003373ffffffffffffffffffffffffffffffffffffffff1673ffffffffffffffffffffffffffffffffffffffff16815260200190815260200160002054111561253d576040517f08c379a000000000000000000000000000000000000000000000000000000000815260040161253490614fbe565b60405180910390fd5b6000600190505b82811161258257612565612556612ae0565b612560600c6129c2565b613202565b61256f600c6129d0565b808061257a906153e8565b915050612544565b50505b6001600b8190555050565b6125a261259b612ae0565b8383613220565b5050565b60006125b2600c6129c2565b905090565b60125481565b6125ce6125c8612ae0565b83612d5f565b61260d576040517f08c379a000000000000000000000000000000000000000000000000000000000815260040161260490614fde565b60405180910390fd5b6126198484848461338d565b50505050565b60166020528060005260406000206000915054906101000a900460ff1681565b601a6020528060005260406000206000915090505481565b600d805461266490615385565b80601f016020809104026020016040519081016040528092919081815260200182805461269090615385565b80156126dd5780601f106126b2576101008083540402835291602001916126dd565b820191906000526020600020905b8154815290600101906020018083116126c057829003601f168201915b505050505081565b60606126f082612c3a565b61272f576040517f08c379a000000000000000000000000000000000000000000000000000000000815260040161272690614f3e565b60405180910390fd5b60006127396133e9565b905060008151116127595760405180602001604052806000815250612787565b806127638461347b565b600d60405160200161277793929190614bc5565b6040516020818303038152906040525b915050919050565b60115481565b600061279f612ae0565b73ffffffffffffffffffffffffffffffffffffffff166127bd611e24565b73ffffffffffffffffffffffffffffffffffffffff1614612813576040517f08c379a000000000000000000000000000000000000000000000000000000000815260040161280a90614efe565b60405180910390fd5b8160108190555060019050919050565b6000600560008473ffffffffffffffffffffffffffffffffffffffff1673ffffffffffffffffffffffffffffffffffffffff16815260200190815260200160002060008373ffffffffffffffffffffffffffffffffffffffff1673ffffffffffffffffffffffffffffffffffffffff16815260200190815260200160002060009054906101000a900460ff16905092915050565b6128bf612ae0565b73ffffffffffffffffffffffffffffffffffffffff166128dd611e24565b73ffffffffffffffffffffffffffffffffffffffff1614612933576040517f08c379a000000000000000000000000000000000000000000000000000000000815260040161292a90614efe565b60405180910390fd5b600073ffffffffffffffffffffffffffffffffffffffff168173ffffffffffffffffffffffffffffffffffffffff1614156129a3576040517f08c379a000000000000000000000000000000000000000000000000000000000815260040161299a90614d5e565b60405180910390fd5b6129ac81613099565b50565b601560009054906101000a900460ff1681565b600081600001549050919050565b6001816000016000828254019250508190555050565b600080823b905060008111915050919050565b505050565b60007f80ac58cd000000000000000000000000000000000000000000000000000000007bffffffffffffffffffffffffffffffffffffffffffffffffffffffff1916827bffffffffffffffffffffffffffffffffffffffffffffffffffffffff19161480612ac957507f5b5e139f000000000000000000000000000000000000000000000000000000007bffffffffffffffffffffffffffffffffffffffffffffffffffffffff1916827bffffffffffffffffffffffffffffffffffffffffffffffffffffffff1916145b80612ad95750612ad882613628565b5b9050919050565b600033905090565b612af0611946565b612b2f576040517f08c379a0000000000000000000000000000000000000000000000000000000008152600401612b2690614cfe565b60405180910390fd5b6000600a60146101000a81548160ff0219169083151502179055507f5db9ee0a495bf2e6ff9c91a7834c1ba4fdd244a5e8aa4e537bd38aeae4b073aa612b73612ae0565b604051612b809190614bf6565b60405180910390a1565b600082612b978584613692565b1490509392505050565b612c3781604051602401612bb59190614c5d565b6040516020818303038152906040527f32458eed000000000000000000000000000000000000000000000000000000007bffffffffffffffffffffffffffffffffffffffffffffffffffffffff19166020820180517bffffffffffffffffffffffffffffffffffffffffffffffffffffffff838183161783525050505061376b565b50565b60008073ffffffffffffffffffffffffffffffffffffffff166002600084815260200190815260200160002060009054906101000a900473ffffffffffffffffffffffffffffffffffffffff1673ffffffffffffffffffffffffffffffffffffffff1614159050919050565b816004600083815260200190815260200160002060006101000a81548173ffffffffffffffffffffffffffffffffffffffff021916908373ffffffffffffffffffffffffffffffffffffffff160217905550808273ffffffffffffffffffffffffffffffffffffffff16612d1983611975565b73ffffffffffffffffffffffffffffffffffffffff167f8c5be1e5ebec7d5bd14f71427d1e84f3dd0314c0f7b2291e5b200ac8c7c3b92560405160405180910390a45050565b6000612d6a82612c3a565b612da9576040517f08c379a0000000000000000000000000000000000000000000000000000000008152600401612da090614dfe565b60405180910390fd5b6000612db483611975565b90508073ffffffffffffffffffffffffffffffffffffffff168473ffffffffffffffffffffffffffffffffffffffff161480612e2357508373ffffffffffffffffffffffffffffffffffffffff16612e0b846110a6565b73ffffffffffffffffffffffffffffffffffffffff16145b80612e345750612e338185612823565b5b91505092915050565b8273ffffffffffffffffffffffffffffffffffffffff16612e5d82611975565b73ffffffffffffffffffffffffffffffffffffffff1614612eb3576040517f08c379a0000000000000000000000000000000000000000000000000000000008152600401612eaa90614f1e565b60405180910390fd5b600073ffffffffffffffffffffffffffffffffffffffff168273ffffffffffffffffffffffffffffffffffffffff161415612f23576040517f08c379a0000000000000000000000000000000000000000000000000000000008152600401612f1a90614dbe565b60405180910390fd5b612f2e838383613794565b612f39600082612ca6565b6001600360008573ffffffffffffffffffffffffffffffffffffffff1673ffffffffffffffffffffffffffffffffffffffff1681526020019081526020016000206000828254612f899190615291565b925050819055506001600360008473ffffffffffffffffffffffffffffffffffffffff1673ffffffffffffffffffffffffffffffffffffffff1681526020019081526020016000206000828254612fe091906151b0565b92505081905550816002600083815260200190815260200160002060006101000a81548173ffffffffffffffffffffffffffffffffffffffff021916908373ffffffffffffffffffffffffffffffffffffffff160217905550808273ffffffffffffffffffffffffffffffffffffffff168473ffffffffffffffffffffffffffffffffffffffff167fddf252ad1be2c89b69c2b068fc378daa952ba7f163c4a11628f55a4df523b3ef60405160405180910390a4505050565b6000600a60009054906101000a900473ffffffffffffffffffffffffffffffffffffffff16905081600a60006101000a81548173ffffffffffffffffffffffffffffffffffffffff021916908373ffffffffffffffffffffffffffffffffffffffff1602179055508173ffffffffffffffffffffffffffffffffffffffff168173ffffffffffffffffffffffffffffffffffffffff167f8be0079c531659141344cd1fd0a4f28419497f9722a3daafe3b4186f6b6457e060405160405180910390a35050565b613167611946565b156131a7576040517f08c379a000000000000000000000000000000000000000000000000000000000815260040161319e90614e1e565b60405180910390fd5b6001600a60146101000a81548160ff0219169083151502179055507f62e78cea01bee320cd4e420270b5ea74000d11b0c9f74754ebdbfc544b05a2586131eb612ae0565b6040516131f89190614bf6565b60405180910390a1565b61321c8282604051806020016040528060008152506138a8565b5050565b8173ffffffffffffffffffffffffffffffffffffffff168373ffffffffffffffffffffffffffffffffffffffff16141561328f576040517f08c379a000000000000000000000000000000000000000000000000000000000815260040161328690614dde565b60405180910390fd5b80600560008573ffffffffffffffffffffffffffffffffffffffff1673ffffffffffffffffffffffffffffffffffffffff16815260200190815260200160002060008473ffffffffffffffffffffffffffffffffffffffff1673ffffffffffffffffffffffffffffffffffffffff16815260200190815260200160002060006101000a81548160ff0219169083151502179055508173ffffffffffffffffffffffffffffffffffffffff168373ffffffffffffffffffffffffffffffffffffffff167f17307eab39ab6107e8899845ad3d59bd9653f200f220920489ca2b5937696c31836040516133809190614c5d565b60405180910390a3505050565b613398848484612e3d565b6133a484848484613903565b6133e3576040517f08c379a00000000000000000000000000000000000000000000000000000000081526004016133da90614d3e565b60405180910390fd5b50505050565b6060600e80546133f890615385565b80601f016020809104026020016040519081016040528092919081815260200182805461342490615385565b80156134715780601f1061344657610100808354040283529160200191613471565b820191906000526020600020905b81548152906001019060200180831161345457829003601f168201915b5050505050905090565b606060008214156134c3576040518060400160405280600181526020017f30000000000000000000000000000000000000000000000000000000000000008152509050613623565b600082905060005b600082146134f55780806134de906153e8565b915050600a826134ee9190615206565b91506134cb565b60008167ffffffffffffffff811115613537577f4e487b7100000000000000000000000000000000000000000000000000000000600052604160045260246000fd5b6040519080825280601f01601f1916602001820160405280156135695781602001600182028036833780820191505090505b5090505b6000851461361c576001826135829190615291565b9150600a85613591919061545f565b603061359d91906151b0565b60f81b8183815181106135d9577f4e487b7100000000000000000000000000000000000000000000000000000000600052603260045260246000fd5b60200101907effffffffffffffffffffffffffffffffffffffffffffffffffffffffffffff1916908160001a905350600a856136159190615206565b945061356d565b8093505050505b919050565b60007f01ffc9a7000000000000000000000000000000000000000000000000000000007bffffffffffffffffffffffffffffffffffffffffffffffffffffffff1916827bffffffffffffffffffffffffffffffffffffffffffffffffffffffff1916149050919050565b60008082905060005b84518110156137605760008582815181106136df577f4e487b7100000000000000000000000000000000000000000000000000000000600052603260045260246000fd5b60200260200101519050808311613720578281604051602001613703929190614b99565b60405160208183030381529060405280519060200120925061374c565b8083604051602001613733929190614b99565b6040516020818303038152906040528051906020012092505b508080613758906153e8565b91505061369b565b508091505092915050565b60008151905060006a636f6e736f6c652e6c6f679050602083016000808483855afa5050505050565b61379f8383836129f9565b600073ffffffffffffffffffffffffffffffffffffffff168373ffffffffffffffffffffffffffffffffffffffff1614156137e2576137dd81613a9a565b613821565b8173ffffffffffffffffffffffffffffffffffffffff168373ffffffffffffffffffffffffffffffffffffffff16146138205761381f8382613ae3565b5b5b600073ffffffffffffffffffffffffffffffffffffffff168273ffffffffffffffffffffffffffffffffffffffff1614156138645761385f81613c50565b6138a3565b8273ffffffffffffffffffffffffffffffffffffffff168273ffffffffffffffffffffffffffffffffffffffff16146138a2576138a18282613d93565b5b5b505050565b6138b28383613e12565b6138bf6000848484613903565b6138fe576040517f08c379a00000000000000000000000000000000000000000000000000000000081526004016138f590614d3e565b60405180910390fd5b505050565b60006139248473ffffffffffffffffffffffffffffffffffffffff166129e6565b15613a8d578373ffffffffffffffffffffffffffffffffffffffff1663150b7a0261394d612ae0565b8786866040518563ffffffff1660e01b815260040161396f9493929190614c11565b602060405180830381600087803b15801561398957600080fd5b505af19250505080156139ba57506040513d601f19601f820116820180604052508101906139b7919061458b565b60015b613a3d573d80600081146139ea576040519150601f19603f3d011682016040523d82523d6000602084013e6139ef565b606091505b50600081511415613a35576040517f08c379a0000000000000000000000000000000000000000000000000000000008152600401613a2c90614d3e565b60405180910390fd5b805181602001fd5b63150b7a0260e01b7bffffffffffffffffffffffffffffffffffffffffffffffffffffffff1916817bffffffffffffffffffffffffffffffffffffffffffffffffffffffff191614915050613a92565b600190505b949350505050565b6008805490506009600083815260200190815260200160002081905550600881908060018154018082558091505060019003906000526020600020016000909190919091505550565b60006001613af084611b43565b613afa9190615291565b9050600060076000848152602001908152602001600020549050818114613bdf576000600660008673ffffffffffffffffffffffffffffffffffffffff1673ffffffffffffffffffffffffffffffffffffffff168152602001908152602001600020600084815260200190815260200160002054905080600660008773ffffffffffffffffffffffffffffffffffffffff1673ffffffffffffffffffffffffffffffffffffffff168152602001908152602001600020600084815260200190815260200160002081905550816007600083815260200190815260200160002081905550505b6007600084815260200190815260200160002060009055600660008573ffffffffffffffffffffffffffffffffffffffff1673ffffffffffffffffffffffffffffffffffffffff16815260200190815260200160002060008381526020019081526020016000206000905550505050565b60006001600880549050613c649190615291565b9050600060096000848152602001908152602001600020549050600060088381548110613cba577f4e487b7100000000000000000000000000000000000000000000000000000000600052603260045260246000fd5b906000526020600020015490508060088381548110613d02577f4e487b7100000000000000000000000000000000000000000000000000000000600052603260045260246000fd5b906000526020600020018190555081600960008381526020019081526020016000208190555060096000858152602001908152602001600020600090556008805480613d77577f4e487b7100000000000000000000000000000000000000000000000000000000600052603160045260246000fd5b6001900381819060005260206000200160009055905550505050565b6000613d9e83611b43565b905081600660008573ffffffffffffffffffffffffffffffffffffffff1673ffffffffffffffffffffffffffffffffffffffff168152602001908152602001600020600083815260200190815260200160002081905550806007600084815260200190815260200160002081905550505050565b600073ffffffffffffffffffffffffffffffffffffffff168273ffffffffffffffffffffffffffffffffffffffff161415613e82576040517f08c379a0000000000000000000000000000000000000000000000000000000008152600401613e7990614ebe565b60405180910390fd5b613e8b81612c3a565b15613ecb576040517f08c379a0000000000000000000000000000000000000000000000000000000008152600401613ec290614d7e565b60405180910390fd5b613ed760008383613794565b6001600360008473ffffffffffffffffffffffffffffffffffffffff1673ffffffffffffffffffffffffffffffffffffffff1681526020019081526020016000206000828254613f2791906151b0565b92505081905550816002600083815260200190815260200160002060006101000a81548173ffffffffffffffffffffffffffffffffffffffff021916908373ffffffffffffffffffffffffffffffffffffffff160217905550808273ffffffffffffffffffffffffffffffffffffffff16600073ffffffffffffffffffffffffffffffffffffffff167fddf252ad1be2c89b69c2b068fc378daa952ba7f163c4a11628f55a4df523b3ef60405160405180910390a45050565b828054613fec90615385565b90600052602060002090601f01602090048101928261400e5760008555614055565b82601f1061402757805160ff1916838001178555614055565b82800160010185558215614055579182015b82811115614054578251825591602001919060010190614039565b5b5090506140629190614066565b5090565b5b8082111561407f576000816000905550600101614067565b5090565b60006140966140918461509e565b615079565b905080838252602082019050828560208602820111156140b557600080fd5b60005b858110156140e557816140cb88826141d7565b8452602084019350602083019250506001810190506140b8565b5050509392505050565b60006141026140fd846150ca565b615079565b9050808382526020820190508285602086028201111561412157600080fd5b60005b8581101561415157816141378882614255565b845260208401935060208301925050600181019050614124565b5050509392505050565b600061416e614169846150f6565b615079565b90508281526020810184848401111561418657600080fd5b614191848285615343565b509392505050565b60006141ac6141a784615127565b615079565b9050828152602081018484840111156141c457600080fd5b6141cf848285615343565b509392505050565b6000813590506141e681615c6c565b92915050565b600082601f8301126141fd57600080fd5b813561420d848260208601614083565b91505092915050565b600082601f83011261422757600080fd5b81356142378482602086016140ef565b91505092915050565b60008135905061424f81615c83565b92915050565b60008135905061426481615c9a565b92915050565b60008135905061427981615cb1565b92915050565b60008151905061428e81615cb1565b92915050565b600082601f8301126142a557600080fd5b81356142b584826020860161415b565b91505092915050565b600082601f8301126142cf57600080fd5b81356142df848260208601614199565b91505092915050565b6000813590506142f781615cc8565b92915050565b60006020828403121561430f57600080fd5b600061431d848285016141d7565b91505092915050565b6000806040838503121561433957600080fd5b6000614347858286016141d7565b9250506020614358858286016141d7565b9150509250929050565b60008060006060848603121561437757600080fd5b6000614385868287016141d7565b9350506020614396868287016141d7565b92505060406143a7868287016142e8565b9150509250925092565b600080600080608085870312156143c757600080fd5b60006143d5878288016141d7565b94505060206143e6878288016141d7565b93505060406143f7878288016142e8565b925050606085013567ffffffffffffffff81111561441457600080fd5b61442087828801614294565b91505092959194509250565b6000806040838503121561443f57600080fd5b600061444d858286016141d7565b925050602061445e85828601614240565b9150509250929050565b6000806040838503121561447b57600080fd5b6000614489858286016141d7565b925050602061449a858286016142e8565b9150509250929050565b6000602082840312156144b657600080fd5b600082013567ffffffffffffffff8111156144d057600080fd5b6144dc848285016141ec565b91505092915050565b600080604083850312156144f857600080fd5b600083013567ffffffffffffffff81111561451257600080fd5b61451e85828601614216565b925050602061452f858286016142e8565b9150509250929050565b60006020828403121561454b57600080fd5b600061455984828501614255565b91505092915050565b60006020828403121561457457600080fd5b60006145828482850161426a565b91505092915050565b60006020828403121561459d57600080fd5b60006145ab8482850161427f565b91505092915050565b6000602082840312156145c657600080fd5b600082013567ffffffffffffffff8111156145e057600080fd5b6145ec848285016142be565b91505092915050565b60006020828403121561460757600080fd5b6000614615848285016142e8565b91505092915050565b614627816152c5565b82525050565b61463e614639826152c5565b615431565b82525050565b61464d816152d7565b82525050565b61465c816152e3565b82525050565b61467361466e826152e3565b615443565b82525050565b60006146848261516d565b61468e8185615183565b935061469e818560208601615352565b6146a78161554c565b840191505092915050565b60006146bd82615178565b6146c78185615194565b93506146d7818560208601615352565b6146e08161554c565b840191505092915050565b60006146f682615178565b61470081856151a5565b9350614710818560208601615352565b80840191505092915050565b6000815461472981615385565b61473381866151a5565b9450600182166000811461474e576001811461475f57614792565b60ff19831686528186019350614792565b61476885615158565b60005b8381101561478a5781548189015260018201915060208101905061476b565b838801955050505b50505092915050565b60006147a8602083615194565b91506147b38261556a565b602082019050919050565b60006147cb601483615194565b91506147d682615593565b602082019050919050565b60006147ee602b83615194565b91506147f9826155bc565b604082019050919050565b6000614811603283615194565b915061481c8261560b565b604082019050919050565b6000614834602683615194565b915061483f8261565a565b604082019050919050565b6000614857601c83615194565b9150614862826156a9565b602082019050919050565b600061487a601883615194565b9150614885826156d2565b602082019050919050565b600061489d602483615194565b91506148a8826156fb565b604082019050919050565b60006148c0601983615194565b91506148cb8261574a565b602082019050919050565b60006148e3602c83615194565b91506148ee82615773565b604082019050919050565b6000614906601083615194565b9150614911826157c2565b602082019050919050565b6000614929603883615194565b9150614934826157eb565b604082019050919050565b600061494c602a83615194565b91506149578261583a565b604082019050919050565b600061496f602983615194565b915061497a82615889565b604082019050919050565b6000614992602f83615194565b915061499d826158d8565b604082019050919050565b60006149b5602083615194565b91506149c082615927565b602082019050919050565b60006149d8602c83615194565b91506149e382615950565b604082019050919050565b60006149fb602083615194565b9150614a068261599f565b602082019050919050565b6000614a1e602983615194565b9150614a29826159c8565b604082019050919050565b6000614a41602f83615194565b9150614a4c82615a17565b604082019050919050565b6000614a64602283615194565b9150614a6f82615a66565b604082019050919050565b6000614a87602183615194565b9150614a9282615ab5565b604082019050919050565b6000614aaa601283615194565b9150614ab582615b04565b602082019050919050565b6000614acd602d83615194565b9150614ad882615b2d565b604082019050919050565b6000614af0603183615194565b9150614afb82615b7c565b604082019050919050565b6000614b13602c83615194565b9150614b1e82615bcb565b604082019050919050565b6000614b36602083615194565b9150614b4182615c1a565b602082019050919050565b6000614b59601f83615194565b9150614b6482615c43565b602082019050919050565b614b7881615339565b82525050565b6000614b8a828461462d565b60148201915081905092915050565b6000614ba58285614662565b602082019150614bb58284614662565b6020820191508190509392505050565b6000614bd182866146eb565b9150614bdd82856146eb565b9150614be9828461471c565b9150819050949350505050565b6000602082019050614c0b600083018461461e565b92915050565b6000608082019050614c26600083018761461e565b614c33602083018661461e565b614c406040830185614b6f565b8181036060830152614c528184614679565b905095945050505050565b6000602082019050614c726000830184614644565b92915050565b6000604082019050614c8d6000830185614644565b614c9a602083018461461e565b9392505050565b6000602082019050614cb66000830184614653565b92915050565b60006020820190508181036000830152614cd681846146b2565b905092915050565b60006020820190508181036000830152614cf78161479b565b9050919050565b60006020820190508181036000830152614d17816147be565b9050919050565b60006020820190508181036000830152614d37816147e1565b9050919050565b60006020820190508181036000830152614d5781614804565b9050919050565b60006020820190508181036000830152614d7781614827565b9050919050565b60006020820190508181036000830152614d978161484a565b9050919050565b60006020820190508181036000830152614db78161486d565b9050919050565b60006020820190508181036000830152614dd781614890565b9050919050565b60006020820190508181036000830152614df7816148b3565b9050919050565b60006020820190508181036000830152614e17816148d6565b9050919050565b60006020820190508181036000830152614e37816148f9565b9050919050565b60006020820190508181036000830152614e578161491c565b9050919050565b60006020820190508181036000830152614e778161493f565b9050919050565b60006020820190508181036000830152614e9781614962565b9050919050565b60006020820190508181036000830152614eb781614985565b9050919050565b60006020820190508181036000830152614ed7816149a8565b9050919050565b60006020820190508181036000830152614ef7816149cb565b9050919050565b60006020820190508181036000830152614f17816149ee565b9050919050565b60006020820190508181036000830152614f3781614a11565b9050919050565b60006020820190508181036000830152614f5781614a34565b9050919050565b60006020820190508181036000830152614f7781614a57565b9050919050565b60006020820190508181036000830152614f9781614a7a565b9050919050565b60006020820190508181036000830152614fb781614a9d565b9050919050565b60006020820190508181036000830152614fd781614ac0565b9050919050565b60006020820190508181036000830152614ff781614ae3565b9050919050565b6000602082019050818103600083015261501781614b06565b9050919050565b6000602082019050818103600083015261503781614b29565b9050919050565b6000602082019050818103600083015261505781614b4c565b9050919050565b60006020820190506150736000830184614b6f565b92915050565b6000615083615094565b905061508f82826153b7565b919050565b6000604051905090565b600067ffffffffffffffff8211156150b9576150b861551d565b5b602082029050602081019050919050565b600067ffffffffffffffff8211156150e5576150e461551d565b5b602082029050602081019050919050565b600067ffffffffffffffff8211156151115761511061551d565b5b61511a8261554c565b9050602081019050919050565b600067ffffffffffffffff8211156151425761514161551d565b5b61514b8261554c565b9050602081019050919050565b60008190508160005260206000209050919050565b600081519050919050565b600081519050919050565b600082825260208201905092915050565b600082825260208201905092915050565b600081905092915050565b60006151bb82615339565b91506151c683615339565b9250827fffffffffffffffffffffffffffffffffffffffffffffffffffffffffffffffff038211156151fb576151fa615490565b5b828201905092915050565b600061521182615339565b915061521c83615339565b92508261522c5761522b6154bf565b5b828204905092915050565b600061524282615339565b915061524d83615339565b9250817fffffffffffffffffffffffffffffffffffffffffffffffffffffffffffffffff048311821515161561528657615285615490565b5b828202905092915050565b600061529c82615339565b91506152a783615339565b9250828210156152ba576152b9615490565b5b828203905092915050565b60006152d082615319565b9050919050565b60008115159050919050565b6000819050919050565b60007fffffffff0000000000000000000000000000000000000000000000000000000082169050919050565b600073ffffffffffffffffffffffffffffffffffffffff82169050919050565b6000819050919050565b82818337600083830152505050565b60005b83811015615370578082015181840152602081019050615355565b8381111561537f576000848401525b50505050565b6000600282049050600182168061539d57607f821691505b602082108114156153b1576153b06154ee565b5b50919050565b6153c08261554c565b810181811067ffffffffffffffff821117156153df576153de61551d565b5b80604052505050565b60006153f382615339565b91507fffffffffffffffffffffffffffffffffffffffffffffffffffffffffffffffff82141561542657615425615490565b5b600182019050919050565b600061543c8261544d565b9050919050565b6000819050919050565b60006154588261555d565b9050919050565b600061546a82615339565b915061547583615339565b925082615485576154846154bf565b5b828206905092915050565b7f4e487b7100000000000000000000000000000000000000000000000000000000600052601160045260246000fd5b7f4e487b7100000000000000000000000000000000000000000000000000000000600052601260045260246000fd5b7f4e487b7100000000000000000000000000000000000000000000000000000000600052602260045260246000fd5b7f4e487b7100000000000000000000000000000000000000000000000000000000600052604160045260246000fd5b6000601f19601f8301169050919050565b60008160601b9050919050565b7f63616e6e6f74206d696e74206d6f7265207468616e2074686520616d6f756e74600082015250565b7f5061757361626c653a206e6f7420706175736564000000000000000000000000600082015250565b7f455243373231456e756d657261626c653a206f776e657220696e646578206f7560008201527f74206f6620626f756e6473000000000000000000000000000000000000000000602082015250565b7f4552433732313a207472616e7366657220746f206e6f6e20455243373231526560008201527f63656976657220696d706c656d656e7465720000000000000000000000000000602082015250565b7f4f776e61626c653a206e6577206f776e657220697320746865207a65726f206160008201527f6464726573730000000000000000000000000000000000000000000000000000602082015250565b7f4552433732313a20746f6b656e20616c7265616479206d696e74656400000000600082015250565b7f4d617820616d6f756e74206f66204e4654206d696e7465640000000000000000600082015250565b7f4552433732313a207472616e7366657220746f20746865207a65726f2061646460008201527f7265737300000000000000000000000000000000000000000000000000000000602082015250565b7f4552433732313a20617070726f766520746f2063616c6c657200000000000000600082015250565b7f4552433732313a206f70657261746f7220717565727920666f72206e6f6e657860008201527f697374656e7420746f6b656e0000000000000000000000000000000000000000602082015250565b7f5061757361626c653a2070617573656400000000000000000000000000000000600082015250565b7f4552433732313a20617070726f76652063616c6c6572206973206e6f74206f7760008201527f6e6572206e6f7220617070726f76656420666f7220616c6c0000000000000000602082015250565b7f4552433732313a2062616c616e636520717565727920666f7220746865207a6560008201527f726f206164647265737300000000000000000000000000000000000000000000602082015250565b7f4552433732313a206f776e657220717565727920666f72206e6f6e657869737460008201527f656e7420746f6b656e0000000000000000000000000000000000000000000000602082015250565b7f596f7520617265206e6f7420656c696769626c6520746f206d696e742074686960008201527f73206e756d626572206f66204e46540000000000000000000000000000000000602082015250565b7f4552433732313a206d696e7420746f20746865207a65726f2061646472657373600082015250565b7f4552433732313a20617070726f76656420717565727920666f72206e6f6e657860008201527f697374656e7420746f6b656e0000000000000000000000000000000000000000602082015250565b7f4f776e61626c653a2063616c6c6572206973206e6f7420746865206f776e6572600082015250565b7f4552433732313a207472616e73666572206f6620746f6b656e2074686174206960008201527f73206e6f74206f776e0000000000000000000000000000000000000000000000602082015250565b7f4552433732314d657461646174613a2055524920717565727920666f72206e6f60008201527f6e6578697374656e7420746f6b656e0000000000000000000000000000000000602082015250565b7f596f752063616e6e6f74206d696e74206d6f7265207468616e20656c6967696260008201527f6c65000000000000000000000000000000000000000000000000000000000000602082015250565b7f4552433732313a20617070726f76616c20746f2063757272656e74206f776e6560008201527f7200000000000000000000000000000000000000000000000000000000000000602082015250565b7f696e53756666696369656e742046756e64730000000000000000000000000000600082015250565b7f596f752063616e6e6f74206d696e74206d6f7265207468616e20746865206d6160008201527f78204e465420616c6c6f77656400000000000000000000000000000000000000602082015250565b7f4552433732313a207472616e736665722063616c6c6572206973206e6f74206f60008201527f776e6572206e6f7220617070726f766564000000000000000000000000000000602082015250565b7f455243373231456e756d657261626c653a20676c6f62616c20696e646578206f60008201527f7574206f6620626f756e64730000000000000000000000000000000000000000602082015250565b7f596f7520617265206e6f7420656c696769626c6520666f722070726573616c65600082015250565b7f5265656e7472616e637947756172643a207265656e7472616e742063616c6c00600082015250565b615c75816152c5565b8114615c8057600080fd5b50565b615c8c816152d7565b8114615c9757600080fd5b50565b615ca3816152e3565b8114615cae57600080fd5b50565b615cba816152ed565b8114615cc557600080fd5b50565b615cd181615339565b8114615cdc57600080fd5b5056fea264697066735822122069a9969d3bd2fd22cf43214c9b8d8860807b279c0b29582145b34c63bb694aae64736f6c63430008040033",
  "linkReferences": {},
  "deployedLinkReferences": {}
}